:020000021000EC
:10F000000000012033F10100D9F001002167020066
:10F01000DDF00100DFF00100E1F001000000000080
:10F02000000000000000000000000000E3F001000C
:10F03000E5F0010000000000E7F00100E9F0010048
:10F04000E10F0200EDF00100EFF00100FD0E020003
:10F05000F3F00100F5F0010041050200ED1002009F
:10F06000591F0200711F0200891F020001F10100F7
:10F0700003F1010005F1010007F1010009F10100B0
:10F080000BF10100C52B02005D62020011F10100CD
:10F09000052C020015F10100B94E020019F1010022
:10F0A0001BF101001DF101001FF1010021F1010020
:10F0B00023F1010025F10100000000000000000024
:10F0C00027F1010029F101002BF101002DF10100D0
:08F0D0002FF1010031F10100F4
:10F0D800FEE7FEE7FEE7FEE7FEE7FEE7FEE7FEE700
:10F0E800FEE7FEE7FEE7FEE7FEE7FEE7FEE7FEE7F0
:10F0F800FEE7FEE7FEE7FEE7FEE7FEE7FEE7FEE7E0
:10F10800FEE7FEE7FEE7FEE7FEE7FEE7FEE7FEE7CF
:10F11800FEE7FEE7FEE7FEE7FEE7FEE7FEE7FEE7BF
:10F12800FEE7FEE7FEE7FEE7FEE70348854600F058
:10F13800C5F800F003B87047000001203749384887
:10F148000A1A02D0072291438D46364936480A1AD0
:10F1580006D00722914381F30988022282F314889A
:10F1680032483349334A00F048F833483349344A7F
:10F1780000F043F833483449344A00F03EF8344844
:10F188003449354A00F039F834483549354A00F0F1
:10F1980034F835483549364A00F02FF835483649AD
:10F1A800364A00F02AF836483649374A00F025F83A
:10F1B80036483749002200F02BF8364836490022F5
:10F1C80000F026F835483649091A082903DB0022D9
:10F1D8000260043001601F481F49884205D0026858
:10F1E800043003B4904703BCF7E700208646EC469A
:10F1F800002000212B4A9047FEE7884207D0521A88
:10F2080005D0037801300B700131013AF9D170470C
:10F21800884202D002700130FAE7704700000120EE
:10F2280000FC0020000001200000012030810200C5
:10F23800F02D0020142E0020B0F20100B0F20100E1
:10F24800E871020030810200F02D0020F02D00202E
:10F25800E8710200E8710200E8710200E87102003A
:10F26800E8710200E8710200E8710200E87102002A
:10F278003081020054810200142E0020142E002038
:10F2880054810200142E0020242E0020242E002059
:10F29800703C0020703C0020703C0020703C002036
:08F2A80070400020F1FA0100A2
:10F2B000024B034A1A6000BF704700BFF02D0020C8
:10F2C0000090D00308B500F00DF90346002B06D0DE
:10F2D000744B1B681B0A744A03F01F03136000F091
:10F2E0002DF90346002B02D0704B714A1A6000F0D2
:10F2F00041F90346002B06D06E4B1B685B0B6E4A30
:10F3000003F00703136000F061F90346002B05D0FA
:10F310006A4BDB68694A23F08073D36000F072F9AE
:10F320000346002B0ED04FF080430022C3F80C217F
:10F330004FF080430022C3F810214FF08043002299
:10F34000C3F8382500F08AF90346002B02D05C4B45
:10F3500003221A6000F09EF90346002B0BD0594B94
:10F3600005221A60584B01221A60584B00221A607D
:10F37000574B3F221A6000F0A9F90346002B76D0C4
:10F380004FF08053534AD3F80434C2F820354FF07D
:10F390008053504AD3F80834C2F824354FF08053D4
:10F3A0004C4AD3F80C34C2F828354FF08053494A00
:10F3B000D3F81034C2F82C354FF08053454AD3F8B7
:10F3C0001434C2F830354FF08053424AD3F8183421
:10F3D000C2F834354FF080533E4AD3F81C34C2F89B
:10F3E00040354FF080533B4AD3F82034C2F84435BF
:10F3F0004FF08053374AD3F82434C2F848354FF0E1
:10F400008053344AD3F82834C2F84C354FF0805337
:10F41000304AD3F82C34C2F850354FF080532D4A7F
:10F42000D3F83034C2F854354FF08053294AD3F81A
:10F430003434C2F860354FF08053264AD3F838345C
:10F44000C2F864354FF08053224AD3F83C34C2F8F6
:10F4500068354FF080531F4AD3F84034C2F86C35FA
:10F460004FF080531B4AD3F84434C2F8703500F093
:10F4700049F90346002B05D0174B1B68174A03F0C8
:10F480004F031360164BD3F88830154A43F47003CA
:10F49000C2F88830BFF34F8FBFF36F8FFFF708FFBD
:10F4A00000BF08BD240300104035014074C0074070
:10F4B0000DF0ADBA440200103C050040F0ED00E054
:10F4C000A0050040105600408856004018560040E5
:10F4D0001456004000C0004058020010E40E0040E6
:10F4E00000ED00E0124B1B68DBB2062B1DD1114B67
:10F4F0001B6803F00F03002B17D10F4B1B6803F0A1
:10F50000F003302B01D1012310E00B4B1B6803F0FB
:10F51000F003402B01D1012308E0074B1B6803F0E7
:10F52000F003502B01D1012300E00023184670475F
:10F53000E00F00F0E40F00F0E80F00F00A4B1B684A
:10F54000DBB2062B0DD1094B1B6803F00F03002B18
:10F5500007D1074B1B6803F0F003302B01D10123C7
:10F5600000E0002318467047E00F00F0E40F00F0C1
:10F57000E80F00F0124B1B68DBB2062B1DD1114BBC
:10F580001B6803F00F03002B17D10F4B1B6803F010
:10F59000F003302B01D1012310E00B4B1B6803F06B
:10F5A000F003402B01D1012308E0074B1B6803F057
:10F5B000F003502B01D1012300E0002318467047CF
:10F5C000E00F00F0E40F00F0E80F00F00A4B1B68BA
:10F5D000DBB2062B0DD1094B1B6803F00F03002B88
:10F5E00007D1074B1B6803F0F003302B01D1012337
:10F5F00000E0002318467047E00F00F0E40F00F031
:10F60000E80F00F0124B1B68DBB2062B1DD1114B2B
:10F610001B6803F00F03002B17D10F4B1B6803F07F
:10F62000F003302B01D1012310E00B4B1B6803F0DA
:10F63000F003402B01D1012308E0074B1B6803F0C6
:10F64000F003502B01D1012300E00023184670473E
:10F65000E00F00F0E40F00F0E80F00F00A4B1B6829
:10F66000DBB2062B0DD1094B1B6803F00F03002BF7
:10F6700007D1074B1B6803F0F003302B01D10123A6
:10F6800000E0002318467047E00F00F0E40F00F0A0
:10F69000E80F00F00A4B1B68DBB2062B0DD1094BBB
:10F6A0001B6803F00F03002B07D1074B1B6803F007
:10F6B000F003302B01D1012300E0002318467047EE
:10F6C000E00F00F0E40F00F0E80F00F00A4B1B68B9
:10F6D000DBB2062B0DD1094B1B6803F00F03002B87
:10F6E00007D1074B1B6803F0F003502B01D1012316
:10F6F00000E0002318467047E00F00F0E40F00F030
:10F70000E80F00F0124B1B68DBB2062B1DD1114B2A
:10F710001B6803F00F03002B17D10F4B1B6803F07E
:10F72000F003302B01D1012310E00B4B1B6803F0D9
:10F73000F003402B01D1012308E0074B1B6803F0C5
:10F74000F003502B01D1012300E00023184670473D
:10F75000E00F00F0E40F00F0E80F00F082B0034685
:10F760008DF807309DF90730002B0DDB9DF8073031
:10F7700003F01F0206499DF907305B09012000FADA
:10F7800002F2603341F8232000BF02B0704700BF8F
:10F7900000E100E0BFF34F8F054BDB6803F4E0624C
:10F7A0000349044B1343CB60BFF34F8F00BFFDE70A
:10F7B00000ED00E00400FA053EDF704700BF184688
:10F7C00082B001904FF0A043184602B0704700B5D8
:10F7D00085B00190084611461A4603468DF803305D
:10F7E0000B468DF8023013468DF8013001AB1846F8
:10F7F000FFF7E6FF03909DF803209DF802305B00C1
:10F800001A439DF801309B001A439DF818301B02E3
:10F8100042EA03019DF81C301B04019A1943039B23
:10F8200002F5E07243F8221000BF05B05DF804FB5A
:10F8300000B585B0039000230193002300930023BB
:10F84000012201210398FFF7C2FF00BF05B05DF858
:10F8500004FB00B585B003900B468DF80B309DF886
:10F860000B20002301930023009313460022002164
:10F870000398FFF7ACFF00BF05B05DF804FB00B5CF
:10F8800085B0019001AB1846FFF79AFF03900398EB
:10F8900000F00AF80246019B22FA03F303F0010389
:10F8A000184605B05DF804FB82B00190019BD3F8C7
:10F8B0001035184602B0704784B00190244B039372
:10F8C000019B002B40D0234B1A680399019B00BF7A
:10F8D00000BF00BF00BF00BF00BF00BF00BF8A4223
:10F8E0002FD000BF00BF00BF00BF00BF00BF00BFE0
:10F8F00000BF00BF00BF00BF00BF00BF00BF00BF10
:10F9000000BF00BF00BF00BF00BF00BF00BF00BFFF
:10F9100000BF00BF00BF00BF00BF00BF00BF00BFEF
:10F9200000BF00BF00BF00BF00BF00BF00BF00BFDF
:10F9300000BF00BF00BF00BF00BF00BF00BF00BFCF
:10F9400000BF013BC3D1019300BF04B0704700BFAB
:10F950000024F400F02D002000B583B00190019B3D
:10F960004FF47A7202FB03F31846FFF7A5FF00BFBE
:10F9700003B05DF804FB82B04FF010235B69019384
:10F98000019BB3F1FF3F04D14FF080535B691B0330
:10F9900000E0019B184602B07047000070B58AB0C5
:10F9A000079006910592059B0993099B5B68184691
:10F9B00005F0F2FA0546099B1B881E46099B9C68C8
:10F9C000099B9B68184605F0C3FE0346184605F0E0
:10F9D000E3FA03460393029401960095069B079A67
:10F9E0000749012005F033FB0520FFF7B5FF059A15
:10F9F0000699079802F0ECFA00BF0AB070BD00BF8C
:10FA00000072020000B587B0F1EE103A0193019B3D
:10FA100023F09F030293029BE1EE103AF1EE103ABD
:10FA200003932620FFF79AFEFFF7C6FE0590059B7D
:10FA30000493049B002B04D0044AB921049802F0DB
:10FA4000AFFA00BF07B05DF804FB00BF9872020078
:10FA500000B583B003468DF807309DF80730012BC1
:10FA600003D10449032005F09DFA00BF03B05DF8FF
:10FA700004FB00BF7C73020082B00190024B0122A4
:10FA80001A7000BF02B07047482E002030B589B010
:10FA9000134B01AC1D460FCD0FC42B68236001230F
:10FAA0008DF80D3001AB0F4A19460F4804F0CCFF1A
:10FAB0000790079B0693069B002B05D00B4A4FF43B
:10FAC000E871069802F06CFA074805F0E7F80220A2
:10FAD000FFF7AEFE0320FFF7ABFE00BF09B030BD5D
:10FAE000C073020079FA0100F071020098720200FE
:10FAF00000B587B0002005F0FFF90490049B039344
:10FB0000039B002B05D0234A4FF4EF71039802F0BA
:10FB100047FA2149032005F045FA03210B20FFF79E
:10FB200098FE0B20FFF7ABFE0346002B25D10423E4
:10FB30008DF80B30FFF71FFF0346A3F5E043019359
:10FB4000FFF719FF03461A469DF80B301B03D31A23
:10FB5000A3F5E043059306E0059801F0F1FB059B52
:10FB600003F580530593019A059B9A42F4D20B4901
:10FB7000032005F017FAFFF70DFE094A04214FF4A0
:10FB8000804006F0A9FCFFF781FF02F039FBFFF788
:10FB900039FFFAE798720200D47302002074020061
:10FBA0009D64020082B003468DF807309DF907304E
:10FBB000002B0CDB9DF8073003F01F0205499DF96F
:10FBC00007305B09012000FA02F241F8232000BF50
:10FBD00002B0704700E100E082B003468DF80730C4
:10FBE0009DF90730002B0DDB9DF8073003F01F0255
:10FBF00006499DF907305B09012000FA02F26033E3
:10FC000041F8232000BF02B0704700BF00E100E0D0
:10FC100082B0034600918DF807309DF90730002B24
:10FC20000ADB009BDAB20C499DF907305201D2B2CF
:10FC30000B4483F800230BE0009BDAB207499DF8E0
:10FC4000073003F00F03043B5201D2B20B441A7683
:10FC500000BF02B0704700BF00E100E000ED00E02F
:10FC600000B583B003460A468DF8073013468DF879
:10FC700006309DF806209DF9073011461846FFF71B
:10FC8000C7FF9DF907301846FFF7A6FF9DF907301B
:10FC90001846FFF787FF00BF03B05DF804FB82B092
:10FCA00003468DF807309DF8073003F1804303F5D4
:10FCB000C043184602B0704700B583B00346ADF8A4
:10FCC0000630BDF80630184600F026F803461B68DB
:10FCD000012B0CBF01230023DBB2184603B05DF8F3
:10FCE00004FB00B585B00346ADF80630BDF806301C
:10FCF000184600F011F803461A4600231360BDF8B9
:10FD00000630184600F008F803461B680393039B6F
:10FD100000BF05B05DF804FB82B00346ADF80630C5
:10FD2000BDF8063003F1804303F5C043184602B026
:10FD30007047000082B00190034A019BC2F804336F
:10FD400000BF02B0704700BF0060004082B0019069
:10FD5000034BD3F80423019B1340184602B07047AD
:10FD60000060004082B00190054A019B03F5A27338
:10FD700052F823301B0A03F01F03184602B07047E5
:10FD80000060004082B00190064A019B03F5A27317
:10FD900052F823301B0C03F00303DBB2184602B009
:10FDA000704700BF0060004084B00190094A019B89
:10FDB00003F5A27352F8233043F00303039305497C
:10FDC000019B03F5A273039A41F8232000BF04B0FE
:10FDD000704700BF0060004084B00390029111465C
:10FDE0001A460B468DF8073013468DF80630184A30
:10FDF000039B03F5A27352F82330154923F498139B
:10FE000023F4F853039A02F5A27241F82230104A03
:10FE1000039B03F5A27352F82320029B1B0203F4F9
:10FE2000F8519DF807301B0403F4403319439DF843
:10FE300006301B0503F480130B4305491A43039B4B
:10FE400003F5A27341F8232000BF04B0704700BF40
:10FE50000060004082B001900B468DF803300B4AE1
:10FE6000019B03F5A27352F8233023F480129DF80E
:10FE700003301B0503F4801304491A43019B03F567
:10FE8000A27341F8232000BF02B070470060004019
:10FE900082B00190044A019B03F5A273002142F84D
:10FEA000231000BF02B070470060004082B0019094
:10FEB0004FF0A043184602B0704700B585B00190DE
:10FEC000084611461A4603468DF803300B468DF856
:10FED000023013468DF8013001AB1846FFF7E6FFFC
:10FEE00003909DF803209DF802305B001A439DF8B3
:10FEF00001309B001A439DF818301B0242EA0301AF
:10FF00009DF81C301B04019A1943039B02F5E07213
:10FF100043F8221000BF05B05DF804FB00B585B0C2
:10FF20000390002301930023009300230122012169
:10FF30000398FFF7C2FF00BF05B05DF804FB00B5F2
:10FF400085B0039000230193002300930023012236
:10FF500000210398FFF7B1FF00BF05B05DF804FB77
:10FF600000B585B001900B468DF8033001AB184603
:10FF7000FFF79CFF0390019A039B02F5E07253F890
:10FF80002230019A23F44031039B02F5E07243F8DA
:10FF90002210019A039B02F5E07253F822309DF87B
:10FFA000032012041146019A1943039B02F5E072E3
:10FFB00043F8221000BF05B05DF804FB00B585B022
:10FFC000019001AB1846FFF771FF0390019B0122DE
:10FFD00002FA03F31946039800F036F800BF05B0A3
:10FFE0005DF804FB00B585B0019001AB1846FFF742
:10FFF0005DFF0390019B012202FA03F31946039867
:020000022000DC
:1000000000F02CF800BF05B05DF804FB00B585B02A
:10001000019001AB1846FFF749FF0390019A039B3B
:1000200002F5E07253F822301B0C03F00303DBB23D
:10003000184605B05DF804FB82B00190019BD3F82F
:100040001035184602B0704782B001900091019BB4
:10005000009AC3F8082500BF02B0704782B0019033
:100060000091019B009AC3F80C2500BF02B07047B5
:1000700000B587B00390029101924FF0A043049322
:10008000039B059311E0059B9B0006AA134453F8BC
:10009000083C1846FFF7D0FF0246019B1A60019BFF
:1000A00004330193059B01330593039A029B134488
:1000B000059A9A42E7D300BF07B05DF804FB84B00D
:1000C00001900091009B0393019BDB080293019B2D
:1000D00003F0070301930122019B02FA03F3039942
:1000E000029A0A4412781340184604B0704784B04C
:1000F00001900091009B0393019BDB080293019BFD
:1001000003F007030193039A029B13441B785AB22E
:100110000121019B01FA03F35BB2134359B2039A25
:10012000029B1344CAB21A7000BF04B070470000AB
:1001300082B00190074A019B1344403393F9003089
:10014000B3F1FF3F14BF01230023DBB2184602B016
:10015000704700BF4C2E002082B001900C4A019BDA
:100160001344403393F90030002B09DB084A019B0C
:100170001344403393F90030072B01DC012300E0E6
:10018000002303F00103DBB2184602B0704700BF42
:100190004C2E002084B00390029101928DF8033020
:1001A000029B59B20E4A039B134440330A461A700D
:1001B0000B49029B019A41F823209DF8033083F0FC
:1001C0000103DBB2002B08D0029B083B039A51B21B
:1001D000034A13440A4683F8602000BF04B0704706
:1001E0004C2E002082B00190044A019B13444033FE
:1001F000FE221A7000BF02B0704700BF4C2E0020D4
:1002000082B00190044A019B13444033FF221A70CC
:1002100000BF02B0704700BF4C2E002082B001909A
:10022000044A019B1344403393F90030184602B04E
:10023000704700BF4C2E002082B00190034A019B02
:1002400052F82330184602B0704700BF4C2E0020F1
:1002500000B589B00390029113468DF80730FF2353
:100260008DF81F309DF80730002B01D0002300E0EF
:10027000082305939DF80730002B01D0082300E0E8
:1002800010230493059B069314E00F4A069B52F833
:100290002330B3F1FF3F0AD19DF80730029A069947
:1002A0000398FFF777FF069B8DF81F3006E0069B4B
:1002B00001330693069A049B9A42E6D39DF91F30B8
:1002C000184609B05DF804FB4C2E002082B00346AE
:1002D0008DF807309DF80730094A4FF0FF3142F89A
:1002E00023109DF80730072B07D99DF80730083BEE
:1002F000034A1344FF2283F8602000BF02B0704716
:100300004C2E002000B583B0214B93F86830002BB1
:1003100003D008230093009B36E000238DF80730BC
:1003200009E09DF807301846FFF76AFF9DF807308F
:1003300001338DF807309DF807301F2BF1D90023CA
:100340008DF8073009E09DF807301846FFF7BEFF2B
:100350009DF8073001338DF807309DF807300F2BDB
:10036000F1D906210620FFF77BFC4FF4BE70FFF7A2
:10037000B8FC4FF00040FFF7DDFC054B012283F88D
:10038000682000230093009B184603B05DF804FB2F
:100390004C2E0020044B93F86830002B14BF01232F
:1003A0000023DBB2184670474C2E002000B585B004
:1003B00001900091002303930198FFF7B9FE0346D3
:1003C000002B02D00823039331E0009B9B78002B85
:1003D00019D0012200210198FFF73AFF03468DF85A
:1003E0000B309DF90B30B3F1FF3F09D09DF90B00A5
:1003F000009B1A78009B5B780199FFF7EDFC05E004
:100400000423039302E00198FFF7ECFE039B002B0B
:100410000DD1009B5B78012B03D10198FFF7CEFD36
:1004200002E00198FFF7DEFD0198FFF777FD039BDF
:10043000184605B05DF804FB00B583B00190019843
:10044000FFF78AFE0346002B0ED00198FFF7E6FE69
:100450000346DBB21846FFF739FF0198FFF7DEFECF
:1004600003461846FFF714FD0198FFF7C9FE0198EF
:10047000FFF765FD00BF03B05DF804FB00B583B076
:100480000190064A019B1344403393F9003018460B
:10049000FFF78AFC00BF03B05DF804FB4C2E002080
:1004A00000B585B001900198FFF7B8FE0346DBB2B6
:1004B0000C33DBB29B008DF80F309DF80F301846DF
:1004C000FFF7EDFB0346184605B05DF804FB00B5E9
:1004D00085B001900198FFF7A1FE0346DBB2183307
:1004E000DBB29B008DF80F309DF80F301846FFF7F8
:1004F000D6FB0346184605B05DF804FB00B585B091
:1005000001900B468DF803309DF80330002B14BF8B
:1005100001230023DBB28DF80F30084A019B1344FE
:10052000403393F900301A469DF80F3019461046B3
:10053000FFF790FC00BF05B05DF804FB4C2E0020D7
:1005400000B595B000231393002303934FF48073F9
:10055000ADF84630012310930023129321E0BDF83B
:1005600046301846FFF7A8FB0346002B0ED0109824
:10057000FFF7ECFB0346002B08D0BDF846301846C9
:10058000FFF7AFFB139A109B13431393109B5B0071
:100590001093BDF846300433ADF84630129B01335A
:1005A0001293129B072BDAD94FF4BE70FFF784FB2E
:1005B0000346002B0DD04FF4BE70FFF792FB139B48
:1005C00043F00043139303AB1A4601210020FFF7C9
:1005D0004FFD139BDBB2002B29D001231093002386
:1005E000129321E0109A139B1340002B16D01298FF
:1005F000FFF7B8FB0D901298FFF7C4FB03468DF888
:1006000033301298FFF718FE0B900B9B002B05D090
:100610009DF833200B9B11460D989847109B5B006B
:100620001093129B01331293129B072BDAD9139B61
:10063000002B80F2EE8000238DF83B3000230293E4
:1006400000230F930AE00F9B9B0014AA13444FF062
:10065000FF3243F84C2C0F9B01330F930F9B002B61
:10066000F1D000238DF83B300023129378E06B4AE1
:10067000129B1344603393F900308DF82B309DF8B2
:100680002B3023F0C0030993644A129B1344603358
:1006900093F90030B3F1FF3F5FD001AB19460998E1
:1006A000FFF70DFD0346002B57D09DF82B309B091B
:1006B0008DF823300998FFF7B1FD03461846FFF780
:1006C000BBFD0790079B002B03D19DF82330032B24
:1006D00043D19DF82330032B04D102AB194609986E
:1006E000FFF705FD0998FFF791FC03468DF81B30D5
:1006F00003AB19460998FFF7E2FC0590059B002B18
:1007000003D09DF81B30022B06D0059B002B24D173
:100710009DF81B30032B20D19DF82330032B13D1E0
:100720009DF81B30022B01D1032300E002238DF83A
:1007300013309DF8133019460998FFF711FC9DF806
:100740003B3001338DF83B30079B002B05D09DF8E3
:100750002320079B114609989847129B0133129357
:10076000129B072B83D99DF83B30002B4CD00123E3
:100770008DF83A306B461A4601210020FFF778FCCD
:1007800000230F9314E00F9B9B0014AA134453F80B
:10079000502C0F9B9B0014A90B4453F8443C9A42E5
:1007A00003D000238DF83A3005E00F9B01330F93FF
:1007B0000F9B002BE7D09DF83A30002B03D000238D
:1007C0008DF83B3020E000230F931AE00F9B9B0035
:1007D00014AA134453F8502C0F9B9B0014A90B44EC
:1007E00043F8442C0F9B9B0014AA134453F8482C45
:1007F0000F9B9B0014A90B4443F84C2C0F9B013317
:100800000F930F9B002BE1D09DF83B30002B7FF422
:1008100028AF00BF15B05DF804FB00BF4C2E0020D0
:1008200082B001900B468DF803309DF80330019A99
:10083000134401221A6000BF02B0704784B00190D7
:100840000B46ADF80230BDF80230019A1344002285
:100850001A60BDF80230019A13441B680393039B8E
:1008600000BF04B0704782B001900B46ADF8023073
:10087000BDF80230019A13441B68002B14BF0123FA
:100880000023DBB2184602B0704782B0019000919D
:10089000019B009AC3F8042300BF02B0704782B0E6
:1008A0000190019B0522C3F8002500BF02B07047EC
:1008B00082B00190019B0022C3F8002500BF02B066
:1008C000704784B00190019BD3F8C4340393019B1B
:1008D000039AC3F8C424039B184604B0704782B03F
:1008E0000190019BD3F81835DBB2184602B070476F
:1008F00082B001900B468DF803309DF80320019BD8
:10090000C3F81C2500BF02B0704782B0019000916F
:10091000019B009AC3F8002200BF02B0704784B068
:10092000019003230393019B03F00103002B02D0EA
:100930004FF402430393019B03F00203002B02D008
:1009400048F201230393019B03F00403002B02D020
:1009500048F202230393039B184604B0704700B586
:1009600085B003900291009313468DF80730009BE9
:100970001B789DF807209A4210D9009B1B781A46D5
:10098000029B13441B7819460398FFF7B1FF009BA5
:100990001B780133DAB2009B1A700DE09DF8183015
:1009A000002B05D01C210398FFF73AFF002304E039
:1009B00014210398FFF734FF0123184605B05DF8B2
:1009C00004FB10B584B003900291009313468DF898
:1009D0000730009B1B789DF807209A4228D9009B7E
:1009E0001B781A46029B9C180398FFF778FF034672
:1009F0002370009B1B780133DAB2009B1A70009BB6
:100A00001B781A469DF80730013B9A4204D1022117
:100A10000398FFF77AFF05E0009B1B789DF80720FD
:100A20009A4204D020210398FFF7FAFE00E000BFAD
:100A300004B010BD00B589B00590049103920293F3
:100A4000049B1B78002B05D1039B1B789DF8282065
:100A50009A4201D1012300E000238DF81F309DF858
:100A60001F3003F001038DF81F30049B1B78002B0F
:100A70000FD04FF492710598FFF7E0FE4FF48E719E
:100A80000598FFF7DBFE4FF484710598FFF7D6FE5B
:100A900071E04FF492710598FFF7E5FE0346002BD5
:100AA0000CD04FF492710598FFF7C8FE14210598F9
:100AB000FFF7B6FE049B01221A705CE04FF48E71C2
:100AC0000598FFF7D0FE0346002B2BD04FF48E7114
:100AD0000598FFF7B3FE4FF492710598FFF7C3FE38
:100AE0000346002B0CD04FF492710598FFF7A6FE39
:100AF00014210598FFF794FE049B01221A703AE036
:100B00009DF828209DF82C300093039B02990598AE
:100B1000FFF725FF034683F00103DBB2002B2AD049
:100B200000233CE04FF484710598FFF79CFE0346D8
:100B3000002B20D04FF484710598FFF77FFE4FF40F
:100B400092710598FFF78FFE0346002B0CD04FF4EF
:100B500092710598FFF772FE14210598FFF760FE69
:100B6000049B01221A7006E09DF82820039B02993D
:100B70000598FFF726FF9DF81F30002B0ED04FF48D
:100B800082710598FFF76FFE0346002B06D04FF4E5
:100B900082710598FFF752FE002300E001231846FA
:100BA00009B05DF804FB00B58BB005900491039289
:100BB0008DF80B300023099342F2107307934FF422
:100BC00082710498FFF73AFE4FF492710498FFF790
:100BD00035FE4FF48E710498FFF730FE4FF48471A8
:100BE0000498FFF72BFE00210498FFF78EFE059B6B
:100BF000002283F82620059B002283F82320202151
:100C00000498FFF70DFE08210498FFF709FE059BE5
:100C100003F126019DF80B209DF8303000930B4620
:100C200003990498FFF79BFE059B1B68002B0DD0D2
:100C3000059B40F286229A60059B9B6819460498A2
:100C4000FFF723FE33E0079B013B0793079B002B35
:100C500012DD059B03F12301059B03F126029DF89C
:100C6000303001939DF80B300093039B0498FFF7FD
:100C7000E1FE0346002BE6D1059B93F82330002BC1
:100C80000AD00498FFF71DFE0890089B002B03D0A4
:100C90000898FFF744FE0990079B002B07DC049897
:100CA000FFF706FE0498FFF7FAFD03230993099B5B
:100CB00018460BB05DF804FB00B58BB005900491AD
:100CC00003928DF80B300023099342F210730793BF
:100CD0004FF482710498FFF7B1FD4FF492710498BC
:100CE000FFF7ACFD4FF48E710498FFF7A7FD4FF4AA
:100CF00084710498FFF7A2FD059B002283F826204B
:100D0000059B002283F823209DF80B30012B04D192
:100D100002210498FFF7F9FD03E001210498FFF791
:100D2000F4FD20210498FFF77BFD00210498FFF7D4
:100D300077FD059B1B68002B0DD0059B40F286229A
:100D40009A60059B9B6819460498FFF79EFD32E068
:100D5000079B013B0793079B002B11DD059B03F1CC
:100D60002301059B03F12602002301939DF80B301C
:100D70000093039B0498FFF75DFE0346002BE7D129
:100D8000059B93F82330002B0AD00498FFF799FDB8
:100D90000890089B002B03D00898FFF7C0FD09902E
:100DA000079B002B07DC0498FFF782FD0498FFF7F0
:100DB00076FD03230993099B18460BB05DF804FBED
:100DC00010B58AB003900291029B03F12301029BAC
:100DD00003F12600029BDC69029B93F82030029A03
:100DE00092F8212001920093234602460398FFF7D0
:100DF00021FE0346002B7DD1029B93F8233083F024
:100E00000103DBB2002B3FD0029B1B7B022B03D0E4
:100E1000029B1B7B032B37D1029BDA69029B1B6968
:100E20009A4231D1029B5A69029BDA61029BDA7BBA
:100E3000029B83F82020029B9B6903F02003002B78
:100E400014BF01230023DAB2029B83F82120029B06
:100E50001B7B032B0ED1029BDA69029B93F82010B7
:100E6000029B93F8213000930B4603990298FFF7F9
:100E70009AFE40E0029BDA69029B93F820300399C6
:100E80000298FFF719FF36E0029A06AB0C3207CA48
:100E900083E80700029B93F82330002B15D00398BA
:100EA000FFF70FFD0990099B03F00203002B03D00D
:100EB00001238DF814300BE0099B03F00403002B91
:100EC00006D002238DF8143002E000238DF8143090
:100ED000029B002283F82420029B9B6903F00403F9
:100EE000002B08D1029B1B68029A516805AA104684
:100EF000984700E000BF0AB010BD000008B50349E4
:100F00000348FFF75DFF00BF08BD00BFB82E0020FB
:100F10000030004082B001904FF08042019BC2F847
:100F2000083300BF02B0704784B00346ADF8063006
:100F3000BDF8063003F1804300221A60BDF8063088
:100F400003F180431B680393039B00BF04B0704709
:100F500082B00346ADF80630BDF8063003F1804399
:100F60001B68002B14BF01230023DBB2184602B01C
:100F7000704784B00190019B1B680393039B002B77
:100F800003D0039B1A68019B1A60039B184604B0A8
:100F90007047000000B585B003468DF807309DF816
:100FA0000730002B02D10C4B039301E00B4B039352
:100FB0000398FFF7DEFF0290029B002B06D0029BF6
:100FC0005B689DF8072010469847F1E700BF00BF17
:100FD00005B05DF804FB00BFE82E0020F02E0020D5
:100FE00008B54FF48070FFF7B3FF0346002B0CD019
:100FF0004FF48070FFF798FF0120FFF78BFF0E4B37
:1010000001225A700020FFF7C5FF4FF48270FFF7EE
:101010009FFF0346002B0CD04FF48270FFF784FF34
:101020000220FFF777FF044B01229A700120FFF79F
:10103000B1FF00BF08BD00BFE02E002000B583B0A7
:101040000190019B002B02D10020FFF7A3FF00BFFE
:1010500003B05DF804FB82B003468DF807309DF8BD
:10106000073003F1804303F5E04301221A6000BF1B
:1010700002B0704782B00346ADF80630BDF80630C6
:1010800003F1804303F5E0431B68002B14BF0123E9
:101090000023DBB2184602B0704784B00346ADF8B7
:1010A0000630BDF8063003F1804303F5E04300222B
:1010B0001A60BDF8063003F1804303F5E0431B6876
:1010C0000393039B00BF04B07047000082B00190FF
:1010D0000091054A019BC2F82C36034A009BC2F8D6
:1010E000303600BF02B070470070004000B58DB0D0
:1010F0004FF48270FFF7BEFF0346002B46D04FF43B
:101100008270FFF7CAFF8D4B93F82E3083F00103F6
:10111000DBB2002B04D1894B93F82F30002B35D054
:1011200000238DF81830854B5B680793834B1B8930
:101130009BB2ADF82030814BDB68002B03D17F4B95
:1011400000221A7419E07D4B1A8B7C4B5A837B4B1F
:10115000DB687A4A5360794B1A8B784B1A81774B4C
:101160000022DA60754B93F82E3083F00103DBB276
:10117000002B02D00020FFF76EFF704B1B6806AA01
:10118000104698476D4B002283F82F206B4B93F845
:101190002E30002B62D04FF48070FFF76BFF0346B8
:1011A000002B5BD04FF48070FFF777FF634B5A8BB7
:1011B000624B93F82D309BB29A421CD95F4B5A8BED
:1011C0005E4B93F82D309BB2D31A9AB25B4B5A8385
:1011D0005A4B5A68594B1B899BB21946574B5B8B2C
:1011E000CB1A5B001A44554B93F82D301946104624
:1011F000FFF76CFF2BE0514B5A8B504B93F82D307F
:101200009BB29A4214D14D4BDB68002B10D04B4B54
:10121000012283F82F20494B00225A83474BDA687A
:10122000464B93F82D3019461046FFF74FFF0EE05E
:10123000424B5A8B414B93F82D309BB29A4206D1C8
:101240003E4B012283F82F203C4B00225A834FF45F
:101250008270FFF722FF0420FFF7FDFE4FF4887035
:10126000FFF708FF0346002B0ED04FF48870FFF7FE
:1012700014FF324B00221A7402238DF80C302F4BCE
:101280001B6803AA104698474FF48A70FFF7F2FED6
:101290000346002B07D04FF48A70FFF7FEFE274B62
:1012A00000221A7445E0254B5B690B933EE00B9BD3
:1012B000B3FA83F3DBB20A934FF000420A9B22FA9F
:1012C00003F3DB430B9A13400B930A9B9BB2463309
:1012D0009BB29B00ADF82630BDF826301846FFF7CC
:1012E000C9FE0346002B21D0BDF826301846FFF773
:1012F000D4FE01238DF80030BDF82630A3F58C73A1
:10130000DB08DBB28DF80430BDF82630A3F58C7312
:1013100003F00403002B0CBF01230023DBB28DF884
:101320000530064B1B686A46104698470B9B002BFE
:10133000BDD100BF0DB05DF804FB00BFF42E00204E
:1013400082B00190104B0222C3F8042500BF0E4B5F
:10135000D3F80034002BFAD00B4A019BC2F80835B1
:1013600000BF094BD3F80034002BFAD0064B002203
:10137000C3F8042500BF044BD3F80034002BFAD087
:1013800000BF02B0704700BF00E0014082B0084BD0
:101390001B78002B05D1064B01221A700023019304
:1013A00001E085230193019B184602B0704700BFFE
:1013B000242F002082B003468DF807309DF80730B7
:1013C000044A012101FA03F3C2F8043500BF02B058
:1013D000704700BF00F0014082B003468DF807302F
:1013E0009DF80730044A012101FA03F3C2F80835D9
:1013F00000BF02B0704700BF00F0014084B0034658
:10140000029101928DF80F3008499DF80F30A233F8
:10141000029A41F83320054A9DF80F30A233DB00D1
:101420001344019A5A6000BF04B0704700F00140B5
:1014300082B003468DF807309DF80730012202FA8A
:1014400003F3184602B0704700B583B003468DF829
:1014500007309DF807301846FFF7EAFF0346C3F34D
:101460001003002B14BF01230023DBB2184603B086
:101470005DF804FB82B00190019B5B0C5B04002BC8
:101480000CBF01230023DBB2184602B0704700B541
:1014900083B003468DF807309DF807301846FFF7F4
:1014A000C7FF03461846FFF7E5FF0346184603B09B
:1014B0005DF804FB00B583B003468DF807309DF856
:1014C00007301846FFF7B4FF0246064B1B6813406F
:1014D000002B14BF01230023DBB2184603B05DF8D4
:1014E00004FB00BF282F002000B583B003468DF811
:1014F00007309DF807301846FFF79AFF0246044B65
:101500001B681343024A136000BF03B05DF804FB7D
:10151000282F002000B583B003468DF807309DF8D2
:1015200007301846FFF784FF0346DA43044B1B6875
:101530001340034A136000BF03B05DF804FB00BF13
:10154000282F002010B586B00190002305930023BA
:101550000393042305932F4B039300238DF813303B
:1015600046E000238DF80B300DF10B03184601F017
:10157000D1FD9DF813301846FFF75AFF0246039B32
:101580001340002B15D09DF813301846FFF792FF3B
:10159000034683F00103DBB2002B0AD09DF8133021
:1015A0001846FFF7A1FF019B9DF813201A70002336
:1015B00005939DF80B30184601F0B6FD059B002BF6
:1015C00007D19DF813301A461349032003F0FBFCA2
:1015D00011E09DF813301846FFF72AFF0346DB435E
:1015E000039A134003939DF8133001338DF81330A1
:1015F000039B002BB5D1094C059804F095F80346E0
:1016000022460749032003F0F2FC059B184606B06A
:1016100010BD00BFFFFF01006C7402006075020086
:101620009074020010B584B003468DF80730002393
:1016300003939DF807301846FFF706FF034683F033
:101640000103DBB2002B02D00723039316E09DF8C1
:1016500007301846FFF7C0FE00238DF80B300DF160
:101660000B03184601F056FD9DF807301846FFF7AA
:1016700051FF9DF80B30184601F056FD064C0398BB
:1016800004F052F8034622460449032003F0AFFC5D
:10169000039B184604B010BD7875020090740200D8
:1016A00010B588B00346049103928DF81730049B5F
:1016B000002B02D0039B002B01D10E2338E0002326
:1016C00007939DF817301846FFF7BEFE034683F0D8
:1016D0000103DBB2002B02D0072307931DE09DF826
:1016E00017301846FFF7E6FE034683F00103DBB22E
:1016F000002B02D0082307930FE09DF81730039AC0
:1017000004991846FFF77AFE9DF81720039B009373
:10171000049B0949032003F081FC084C079804F05E
:1017200003F8034622460649032003F060FC079BAA
:10173000184608B010BD00BFB874020090750200D2
:101740009074020010B584B003468DF80730002372
:1017500003939DF807301846FFF799FE034683F080
:101760000103DBB2002B02D0072303931AE09DF89C
:1017700007301846FFF768FE0346002B0DD09DF892
:1017800007301846FFF796FE034683F00103DBB2ED
:10179000002B02D00823039304E09DF8073018467D
:1017A000FFF708FE064C039803F0BEFF03462246EF
:1017B0000449032003F01BFC039B184604B010BD32
:1017C000A87502009074020010B584B003468DF82D
:1017D0000730002303939DF807301846FFF757FEA4
:1017E000034683F00103DBB2002B02D007230393EF
:1017F0001CE09DF807301846FFF726FE0346002B35
:101800000DD09DF807301846FFF754FE034683F0CD
:101810000103DBB2002B02D00823039306E09DF8FE
:1018200007301846FFF7D8FD00230393064C0398B2
:1018300003F07AFF034622460449032003F0D7FB56
:10184000039B184604B010BDC075020090740200DE
:1018500082B003468DF807309DF90730002B0CDB72
:101860009DF8073003F01F0205499DF907305B0919
:10187000012000FA02F241F8232000BF02B07047B5
:1018800000E100E082B003468DF807309DF9073093
:10189000002B11DB9DF8073003F01F0208499DF96A
:1018A00007305B09012000FA02F2203341F82320BF
:1018B000BFF34F8FBFF36F8F00BF02B0704700BF01
:1018C00000E100E082B0034600918DF807309DF9F9
:1018D0000730002B0ADB009BDAB20C499DF9073078
:1018E0005201D2B20B4483F800230BE0009BDAB222
:1018F00007499DF8073003F00F03043B5201D2B2B1
:101900000B441A7600BF02B0704700BF00E100E050
:1019100000ED00E082B00190019B1B0B5BB218460A
:1019200002B0704700B583B003460A468DF8073011
:1019300013468DF806309DF806209DF907301146B4
:101940001846FFF7BFFF00BF03B05DF804FB00B50A
:1019500083B003468DF807309DF907301846FFF72E
:1019600077FF00BF03B05DF804FB00B583B003460A
:101970008DF807309DF907301846FFF783FF00BF49
:1019800003B05DF804FB82B001900B468DF8033084
:101990009DF80330019A134401221A6000BF02B07F
:1019A000704784B001900B46ADF80230BDF80230AC
:1019B000019A134400221A60BDF80230019A1344C0
:1019C0001B680393039B00BF04B0704782B0019073
:1019D0000B46ADF80230BDF80230019A13441B6883
:1019E000002B14BF01230023DBB2184602B070475E
:1019F00082B001900091019BD3F80022009B1A4312
:101A0000019BC3F8002200BF02B0704782B0019072
:101A10000091019BD3F80022009BDB431A40019BFD
:101A2000C3F8002200BF02B0704782B0019000915D
:101A3000019B009AC3F8042300BF02B0704782B034
:101A400001900091019B009AC3F8082300BF02B0E7
:101A5000704782B001900091019BD3F80423009B52
:101A60001340002B14BF01230023DBB2184602B041
:101A7000704782B001900B468DF80330019BD3F87C
:101A8000043523F003029DF8033003F003031A43E7
:101A9000019BC3F8042500BF02B0704782B00190DB
:101AA0000B468DF80330019BD3F8083523F0030271
:101AB0009DF8033003F003031A43019BC3F8082584
:101AC00000BF02B0704782B001900B468DF8033022
:101AD000019BD3F8103523F00F029DF8033003F07B
:101AE0000F031A43019BC3F8102500BF02B07047D3
:101AF00084B003900B4601928DF80B309DF80B20BB
:101B0000039B02F5A872019943F8221000BF04B0AC
:101B1000704782B00190019B9BB250339BB29B00F7
:101B20009BB2184602B0704782B001904FF48032E9
:101B3000019B02FA03F3184602B0704710B588B053
:101B4000039002910192039B1B791A4613465B0096
:101B500013449B003B4A13440593059B1B7A002BBF
:101B60000DD008230693384C069803F0DDFD03469C
:101B700022463649022003F03AFA069B5FE0059BB5
:101B8000019A1A60029B5A68059B5A6000238DF8DF
:101B90001F3010E0039B1C689DF81F301846FFF7AC
:101BA000B8FF034619462046FFF7FBFE9DF81F309D
:101BB00001338DF81F30039B5B799DF81F209A42FB
:101BC000E8D3039B1B681846FFF7A4FE03461A469A
:101BD000029BDB7819461046FFF7A4FE039B1B68A7
:101BE0001846FFF797FE03461846FFF7B0FE039B23
:101BF0001A68029B5B7819461046FFF73AFF039B71
:101C00001A68029B9B7819461046FFF747FF039B13
:101C10001A68029B1B7819461046FFF754FF059B74
:101C200001221A7200230693074C069803F07CFDEC
:101C3000034622460649032003F0D9F9069B1846BD
:101C400008B010BD2C2F002020770200DC750200A8
:101C50000C76020000B583B00190019B1B6818460A
:101C6000FFF758FE03461846FFF77FFE019B1B68EF
:101C70004FF0FF311846FFF7C9FE019B1B684FF07C
:101C8000FF311846FFF7DBFE019800F03FF8019B9B
:101C90001B791946094A0B465B000B449B00134411
:101CA000083300221A70019B1B791A46044903204D
:101CB00003F089F900BF03B05DF804FB2C2F00206E
:101CC0003476020000B583B00190019B1B680021AF
:101CD0001846FFF758FE019B1B791946094A0B4627
:101CE0005B000B449B001344083302221A70019BD3
:101CF0001B791A460449032003F065F900BF03B0BD
:101D00005DF804FB2C2F00205C76020000B583B048
:101D10000190019B1B6810211846FFF734FE019BC0
:101D20001B791946094A0B465B000B449B00134480
:101D3000083301221A70019B1B791A4604490320BB
:101D400003F041F900BF03B05DF804FB2C2F002025
:101D50007C76020000B583B00190019B1B680C21CA
:101D60001846FFF710FE00BF03B05DF804FB00004B
:101D700010B588B0059003921A460B468DF81330C3
:101D800013468DF812309DF813301846FFF7CCFE3D
:101D900007909DF81230002B12D0059B1C689DF80F
:101DA00013301846FFF7B5FE034619462046FFF7E5
:101DB000F8FD059B1B6807991846FFF736FE05E0FE
:101DC000059B1B6807991846FFF739FE059B1B68A2
:101DD0009DF81310039A1846FFF78AFE059B1B799E
:101DE0001A469DF813300093039B0349032003F028
:101DF00015F900BF08B010BDE076020000B587B04D
:101E0000059003921A460B468DF813301346ADF831
:101E10001030059B18689DF813304FF480729A407B
:101E20009DF81330012101FA03F313431946FFF71C
:101E3000EDFD059B1B68BDF8102011461846FFF705
:101E4000D7FD9DF820309DF81310039A0598FFF7F1
:101E50008FFF059B1B791A469DF813300093039B57
:101E60000349032003F0DAF800BF07B05DF804FB74
:101E7000E076020010B582B001900091019B1C68D1
:101E80000098FFF746FE034619462046FFF789FDF6
:101E9000019B1C680098FFF747FE03461946204641
:101EA000FFF7C3FD00BF02B010BD10B582B00190B6
:101EB0000091019B1C680098FFF736FE0346194607
:101EC0002046FFF7BCFD00BF02B010BD00B587B0D3
:101ED0000390029113468DF8073000238DF81730D8
:101EE00030E09DF817301846FFF713FE0346ADF8B3
:101EF00014309DF817301846FFF716FE0490BDF811
:101F0000143019460398FFF761FD0346002B14D0E7
:101F100004990398FFF79DFD0346002B0DD0BDF8F3
:101F2000143019460398FFF73CFD029B1B68029A88
:101F30005168BDF81420104698479DF817300133BA
:101F40008DF817309DF817209DF807309A42C8D3B6
:101F500000BF07B05DF804FB08B50422024903483E
:101F6000FFF7B4FF00BF08BD2C2F00200080004009
:101F700008B5042202490348FFF7A8FF00BF08BDC7
:101F8000382F00200090004008B504220249034881
:101F9000FFF79CFF00BF08BD442F002000A00040B9
:101FA00000B589B0039002910192029B9BB2ADF8FB
:101FB0001430019B0693039B079305AB1A4600213F
:101FC00044F20100FDF7EAFC00BF09B05DF804FB34
:101FD00086B003900291019201238DF817309DF88D
:101FE0001730204A039B13601E4A029B53601D4A10
:101FF000019B9360039B44F20102934213D0039B25
:1020000044F20202934222D1019B164AD360154B3F
:10201000DB681B881A46134B9A61124BDB685B68BE
:10202000104AD36113E0019B0E4A13610D4B1B69EB
:102030009B680C4A53610B4B1B691B881A46094B62
:102040009A61084B1B695B68064AD36100BF72B690
:1020500000BF9DF81730DBB2002BFAD162B600BF8B
:1020600006B07047502F002082B003468DF807302D
:102070009DF807309AB2064B1B889A4204D29DF80D
:1020800007300133DBB200E00023184602B070478E
:102090007C2F002000B583B00B4B1B788DF80730E8
:1020A0000A4B1B78DBB21846FFF7DEFF03461A46E1
:1020B0009DF8073093420CBF01230023DBB2184682
:1020C00003B05DF804FB00BF782F0020792F0020BB
:1020D00082B0084B1B788DF80730074B1B78DBB2BA
:1020E0009DF807209A420CBF01230023DBB218465B
:1020F00002B07047782F0020792F002000B587B0FC
:1021000003900B460192ADF80A30374B1B88BDF89F
:102110000A209A4260D84FF6FF73ADF812300023C0
:102120008DF811300DF11103184600F0F3FFFFF7A1
:10213000B1FF0346002B0ED12C4B1B78DBB2ADF860
:1021400012302A4B1B78DBB21846FFF78DFF03468F
:102150001A46264B1A709DF81130184600F0E4FF1D
:10216000BDF812304FF6FF72934232D0204B1A68FE
:10217000BDF81230DB001344019A1A60039B002B58
:102180001CD0BDF80A30002B18D01A4B1B68BDF8C4
:1021900012201549098801FB02F21344BDF80A20F8
:1021A0000399184604F0D0FB114B1A68BDF81230A1
:1021B000DB001344BDF80A209A8007E00C4B1A6834
:1021C000BDF81230DB00134400229A8000230593EF
:1021D00004E00423059301E009230593059B1846B9
:1021E00007B05DF804FB00BF7A2F0020792F002094
:1021F000702F0020742F0020002318467047000025
:1022000000B585B02FE0204B1B78DBB2ADF80E3067
:102210001E4B1B68BDF80E201D49098801FB02F208
:10222000134402931B4B1A68BDF80E30DB001344B5
:102230009B88ADF80630174B1A68BDF80E30DB00EE
:1022400013441B680093BDF80620009B11460298BA
:1022500098470D4B1B78DBB21846FFF705FF034686
:102260001A46094B1A70FFF7C7FF034683F00103B4
:10227000DBB2002B04D0FFF72BFF0346002BC2D0AC
:1022800000BF05B05DF804FB782F0020742F0020FC
:102290007A2F0020702F002082B003468DF807307F
:1022A0009DF90730002B0CDB9DF8073003F01F026F
:1022B00005499DF907305B09012000FA02F241F857
:1022C000232000BF02B0704700E100E082B0034667
:1022D0008DF807309DF90730002B11DB9DF8073092
:1022E00003F01F0208499DF907305B09012000FA3D
:1022F00002F2203341F82320BFF34F8FBFF36F8FDB
:1023000000BF02B0704700BF00E100E082B00346AA
:102310008DF807309DF90730002B0DDB9DF8073055
:1023200003F01F0206499DF907305B09012000FAFE
:1023300002F2403341F8232000BF02B0704700BFD3
:1023400000E100E082B003468DF807309DF90730C8
:10235000002B0DDB9DF8073003F01F0206499DF9A5
:1023600007305B09012000FA02F2603341F82320B4
:1023700000BF02B0704700BF00E100E084B00190F0
:10238000244B0393019B002B40D0234B1A680399E5
:10239000019B00BF00BF00BF00BF00BF00BF00BF68
:1023A00000BF8A422FD000BF00BF00BF00BF00BFE8
:1023B00000BF00BF00BF00BF00BF00BF00BF00BF25
:1023C00000BF00BF00BF00BF00BF00BF00BF00BF15
:1023D00000BF00BF00BF00BF00BF00BF00BF00BF05
:1023E00000BF00BF00BF00BF00BF00BF00BF00BFF5
:1023F00000BF00BF00BF00BF00BF00BF00BF00BFE5
:1024000000BF00BF00BF013BC3D1019300BF04B0B8
:10241000704700BF0024F400F02D002008B50D4BDC
:102420004FF48032C3F844230A4B4FF48032C3F890
:1024300004231120FFF786FF1120FFF72DFF054B26
:1024400001221A602F20FFF799FF034B01221A7017
:1024500000BF08BD001001409E30002008B51120CB
:10246000FFF734FF0E4B4FF48032C3F848230C4B78
:102470004FF48032C3F80823094B01225A602F2001
:10248000FFF77CFF064B01229A60064B00221A6080
:102490002F20FFF773FF044B00221A7000BF08BD06
:1024A00000100140903000209E300020024BD3F8F5
:1024B00004351846704700BF0010014082B00190FB
:1024C0000091019A009BD31A23F07F43184602B073
:1024D0007047000082B00190034A019BC2F840356A
:1024E00000BF02B0704700BF0010014086B00190ED
:1024F000284B1B68002B03D1264A019B136045E043
:10250000019B1A68234B1B681B689A4210D8214B09
:102510001B681968019B1A681E4B1B688A1A1A608F
:102520001C4B1A68019BDA611A4A019B13602DE06B
:10253000019B1B680393174B1B680593154B1B6886
:10254000049309E0049B1B68039AD31A0393049B2A
:102550000593049BDB690493049B002B04D0049B2C
:102560001B68039A9A42EDD8049B002B05D0049B6C
:102570001A68039BD21A049B1A60019B039A1A6083
:10258000019B049ADA61059B019ADA6100BF06B0EB
:10259000704700BF8C30002000B587B001902A4BF7
:1025A0001B680393284B1B680593059B049308E065
:1025B000049A019B9A4208D0049B0593049BDB6913
:1025C0000493049B002BF3D100E000BF049B002B7D
:1025D00001D1002333E0059A049B9A4214D11A4B8F
:1025E0001B68DB69184A1360174B1B68002B0BD163
:1025F000164B01229A60164B00221A60154B0122DD
:102600001A702F20FFF7BAFE049B1B680293049BED
:10261000DA69059BDA61059BDB690493049B002B57
:1026200005D0049B1A68029B1A44049B1A60064B4F
:102630001B68039A9A4214BF01230023DBB2184699
:1026400007B05DF804FB00BF8C3000200010014093
:10265000903000209F30002008B51120FFF756FE73
:1026600000BF08BD08B51420FFF750FE00BF08BD2D
:1026700000B585B001900B46ADF80230BDF80230D0
:10268000082B0CBF01230023DBB20393039B002B19
:1026900005D1094A4FF4B7710020FFF781FC019B77
:1026A0000293029B1B68029A52681046984700BF2B
:1026B00005B05DF804FB00BF3077020000B587B0BD
:1026C0000190019B5B690293019B9B69039302ABA1
:1026D0000A4A08211846FFF711FD0590059B04934F
:1026E000049B002B05D0064A4FF4C1710498FFF7F4
:1026F00057FC00BF07B05DF804FB00BF7126020065
:102700003077020000B585B02B4B1B68002B4ED0F4
:1027100000230193FFF7CAFE0246284B1B681946A7
:102720001046FFF7CBFE0290234B1B6803931DE07E
:10273000039B1B68029A9A421CD3039B1B68029A54
:10274000D31A0293039B1B68019A13440193039BC2
:102750000093039BDB690393009B1B7C002B05D03C
:10276000009B00221A740098FFF7A8FF039B002B20
:10277000DED100E000BF124B1A78124B1B789A4250
:102780000CD1104B1B780133DAB20E4B1A700D4B83
:102790001B78022B02D10B4B00221A70094B1B78BD
:1027A0001946094A019B42F82130FFF75BFF00BF41
:1027B00005B05DF804FB00BF8C3000209030002095
:1027C0009C3000209D3000209430002082B0019089
:1027D000184B1A78184B1B789A4223D0154B1B784C
:1027E0000133DAB2134B1A70124B1B78022B02D151
:1027F000104B00221A700F4B1B781A460F4B53F8E0
:102800002220019B1A60019B1A680D4B1B68134420
:102810000B4A13600A4B1B6823F07F43084A13607E
:10282000012303E0019B00221A600023184602B036
:10283000704700BF9C3000209D3000209430002065
:102840009030002088B003900291019200230793FA
:1028500038E0204B1B680693069B1B68039A9A423C
:1028600006D2069B1A68039BD21A069B1A602DE0BB
:10287000069B1B68039AD31A0393069B1B68079A4F
:1028800013440793069B00221A60124B1B680593A2
:10289000069BDB690F4A1360069BDB68002B11D097
:1028A000029A079B134423F07F42069B5A60069BC3
:1028B000DA68069B9A60019B1A68069BDA61019BA5
:1028C000059A1A60034B1B68002BC2D100BF08B0E9
:1028D000704700BF8C30002000B589B00190002304
:1028E0008DF81F30664B1B680593AAE0019B002BF7
:1028F00005D0019B0693069BDB69019361E0614B68
:102900001B781A4613465B001344DB005D4A1344F0
:10291000043304935B4B1B780133DAB2594B1A70C2
:10292000584B1A78574B9B789A4202D1554B00224C
:102930001A70049B5B680693049B1B78022B04D0DF
:10294000032B1BD0012B1FD01DE0049B5B68184696
:10295000FFF722FE0346002B02D001238DF81F3023
:10296000069B00221A746CE0454B1B680393039B83
:1029700000221A74039BDB69414A1360404B1B68B9
:10298000002BF1D15DE05CE000BF069B1B7C002BBF
:1029900000D056E0049B9A68069B5A60049BDA6854
:1029A000069B9A60049B1A69069BDA60049B5A692D
:1029B000069B9A61344B1B78002B02D0069B0022A9
:1029C0005A60069B5A68314B1B68D31A23F07F4329
:1029D0002F4A93420ED8069B5A682C4B1B68194607
:1029E0001046FFF76BFD0246069B9B681A44069B48
:1029F0001A6017E0254B1A68069B5B68194610465B
:102A0000FFF75CFD0290069B9B68029A9A4206D2F1
:102A1000069B9A68029BD21A069B1A6002E0069BEC
:102A200000221A60069B00225A60069B00229A60D0
:102A3000069B01221A74069B0022DA610698FFF7B2
:102A400055FD019B002B7FF451AF0E4B1A780D4BB7
:102A50005B789A427FF44AAF9DF81F30002B04D177
:102A6000074B1B68059A9A4201D0012300E000231E
:102A700003F00103DBB2184609B05DF804FB00BFA8
:102A80008C300020802F00209F30002090300020CC
:102A9000FEFF7F0010B588B00190274B1B68002B0C
:102AA00044D0254B1B681B680793FFF7FFFC06907B
:102AB000224B1B68059305990698FFF7FFFC034618
:102AC000033304931E4B1B7883F00103DBB2002B0E
:102AD00001D0FFF7A3FC049A079B934238BF13462B
:102AE000059A13440593059B23F07F4305930598AE
:102AF000FFF7F0FCFFF7DAFC039006990398FFF765
:102B0000DDFC0346DC1C06990598FFF7D7FC03465D
:102B10009C420DD9FFF7CAFC03461846FFF7DAFCC2
:102B20002F20FFF72BFCFFF797FD01E0FFF796FC46
:102B300000BF08B010BD00BF8C30002090300020D6
:102B40009E30002000B587B00023019300238DF84C
:102B50001730194B1B680493184B1B6803936B4683
:102B60001846FFF733FE03468DF80B309DF80B3007
:102B7000002B08D0009B01AA04991846FFF762FEBB
:102B800001238DF81730019B1846FFF7A5FE034679
:102B9000002B02D001238DF817309DF81730002B41
:102BA00002D00398FFF776FF054B00221A7000BF92
:102BB00007B05DF804FB00BF903000208C3000208F
:102BC0009F30002008B50E4B0022C3F840210C4B6B
:102BD0000022C3F844210A4B0022C3F84821084BC5
:102BE0000022C3F84C21064B0022C3F80021044BFD
:102BF0000022C3F80421FFF785FD00BF08BD00BF18
:102C00000010014008B5FFF79DFF00BF08BD29DF98
:102C1000704700BF184628DF704700BF184600B550
:102C200087B001900B468DF8033002AB10220021D3
:102C3000184603F0B2FE019B1B7A012B02D0022B37
:102C40000BD01AE000238DF80830019B1B69049318
:102C5000019B9B8AADF814300FE001238DF80830FA
:102C6000019B9A89019BDB89D31A9BB2ADF8103086
:102C7000019B9B89ADF8123000BF019B5B680393F9
:102C8000019B1B689B689DF8031002AA1046984799
:102C900000BF07B05DF804FB82B00190019B002BE0
:102CA00009D0019B064A934205D3019B054A9342F2
:102CB00001D2012300E00023184602B0704700BF94
:102CC000142E0020242E002000B585B00190019B19
:102CD0009B8A1A46019BDB8AD31AB3F5806F07DA09
:102CE000019B9A8A019BDB8AD31AADF80E3003E070
:102CF0004FF48063ADF80E30019B1A69019BDB8AAB
:102D00009B00D018019BDA68019BDB8A9B0013446F
:102D1000BDF80E201946FFF77AFF0346184605B0A6
:102D20005DF804FB00B583B00190019B9B891846B8
:102D3000FFF771FF0346184603B05DF804FB00007F
:102D400000B583B01F4BD3F8C02013465B0013447B
:102D5000DB001C4A134400931A4BD3F8C430002BF9
:102D60002CD0009B1B7A012B02D0022B05D009E04E
:102D70000098FFF7A9FF019007E00098FFF7D2FF46
:102D8000019002E00923019300BF019B112B0ED19A
:102D90000D4B1B7823F00203DAB20B4B1A700A4B6F
:102DA0001B7843F00403DAB2074B1A7006E0019B6C
:102DB000002B03D009210098FFF731FF00BF03B0BB
:102DC0005DF804FBA4300020A030002008B50B4BB8
:102DD0001B7803F00203002B0ED1084B1B7803F085
:102DE0000403002B08D1054B1B7843F00203DAB231
:102DF000024B1A70FFF7A4FF00BF08BDA0300020EF
:102E000000B585B00190214BD3F8C430082B01D117
:102E1000002336E01D4BD3F8C0201C4BD3F8C43040
:102E20001344072B07D8194BD3F8C020174BD3F8FE
:102E3000C430134407E0154BD3F8C020134BD3F82C
:102E4000C4301344083B0393104BD3F8C430013310
:102E50000E4AC2F8C430039A13465B001344DB00E9
:102E60000A4A134418220021184603F096FD039ADB
:102E700013465B001344DB00044A1A44019B1A60AA
:102E80000123184605B05DF804FB00BFA430002004
:102E900000B587B0039002910192ADF80230314B3A
:102EA0001B7803F00103002B01D1012356E00398A6
:102EB000FFF7F2FE034683F00103DBB2002B01D0E3
:102EC00002234BE0019B002B02D0029B002B01D17F
:102ED000032343E0019B03F00303002B04D1029B77
:102EE00003F00303002B01D0062337E0039B1B688C
:102EF000029A9A4208D3039B5A68BDF802309B009D
:102F000002990B449A4201D2052327E0BDF8023012
:102F1000002B01D1042321E005AB1846FFF770FF19
:102F2000034683F00103DBB2002B01D0072315E039
:102F3000059B089A5A60059B039A1A60059B01221B
:102F40001A72059B019ADA60059B029A1A61059B29
:102F5000BDF802209A82FFF739FF0023184607B018
:102F60005DF804FBA030002000B587B0039002910B
:102F700000931346ADF806302C4B1B7803F0010389
:102F8000002B01D101234DE00398FFF785FE034696
:102F900083F00103DBB2002B01D0022342E0029B4D
:102FA000002B01D103233DE0029BC3F30B03002B55
:102FB00001D0062336E0039B1B68029A9A4208D38D
:102FC000BDF806301B03029A1A44039B5B689A42C1
:102FD00001D9052326E0BDF80630002B01D10423DA
:102FE00020E005AB1846FFF70BFF034683F0010313
:102FF000DBB2002B01D0072314E0059B009A5A6036
:10300000059B039A1A60059B02221A72029B1A0BF7
:10301000059B92B29A81059BBDF806201A82FFF7A4
:10302000D5FE0023184607B05DF804FBA030002051
:1030300082B0EFF310830093009B019372B6019B63
:10304000184602B0704762B600BF704700B585B041
:103050000190FFF7EDFF0390164B9B68002B1BD1EF
:10306000144B01229A60144BD3F88020134B134069
:10307000104A1360104B114AC3F880200E4BD3F84E
:1030800084300C4A53600C4B4FF0FF32C3F884205D
:10309000019B00221A7002E0019B01221A70039B1F
:1030A000002B01D1FFF7CFFF0023184605B05DF8D4
:1030B00004FB00BF6C31002000E100E0FC06FFBD16
:1030C00000B585B003468DF80730104B9B68002B88
:1030D00016D09DF80730002B12D1FFF7A9FF0390FF
:1030E0000B4A0A4B1B681360094A084B5B68536024
:1030F000064B00229A60039B002B01D1FFF7A3FF30
:103100000023184605B05DF804FB00BF6C310020B9
:1031100000E100E000B583B001900198FFF796FF51
:1031200000BF03B05DF804FB00B583B003468DF823
:1031300007309DF807301846FFF7C2FF00BF03B005
:103140005DF804FB82B00190019B03F00303002BA8
:103150000CBF01230023DBB2184602B07047000009
:1031600082B003468DF80730054B1A789DF807307A
:103170001343DAB2024B1A7000BF02B0704700BFAF
:103180007831002082B003468DF807309DF9073072
:10319000DB435AB2054B1B785BB213405BB2DAB229
:1031A000024B1A7000BF02B0704700BF7831002098
:1031B00082B003468DF80730064B1A789DF8073029
:1031C0001340DBB2002B14BF01230023DBB21846EF
:1031D00002B070477831002000B585B0019000231F
:1031E00003930EE00A4A039B52F82330002B05D0CC
:1031F000074A039B52F8233001989847039B0133F9
:103200000393039B072BEDD900BF05B05DF804FBCA
:103210007C31002082B001900091019B1B78013B22
:10322000052B5BD801A252F823F000BF4532020003
:103230004D3202006D3202009F320200BF320200A6
:10324000D5320200009B00221A7048E0009B012248
:103250001A70019B1A89009B9A81019B9A88009B96
:10326000DA81019BDA68009B9A6038E0009B0222B9
:103270001A70019B1A89009B9A81019B9A88009B76
:10328000DA81019BDA68009B9A60019B1B7C062B0C
:103290000CBF01230023DAB2009B1A741FE0009BCD
:1032A00003221A70019BDA88009B9A81019B1A897C
:1032B000009BDA81019BDA68009B9A600FE0009B1B
:1032C00004221A70019BDA88009B9A81009B0022DD
:1032D000DA8104E0009B05221A7000E000BF00BF05
:1032E00002B0704782B00190019B9B884FF6FF723D
:1032F000934205D0019B1B88002B01D0012300E0E5
:10330000002303F00103DBB2184602B0704700004F
:1033100000B583B00190019B002B11D00C4B1B68B2
:10332000019A9A420CD30A4B5B68019A9A4207D8D9
:103330000198FFF707FF0346002B01D0012300E0AF
:10334000002303F00103DBB2184603B05DF804FB71
:10335000142E002084B0019000910A2303930023CF
:10336000ADF80A3021E0BDF80A30144A1B011344BD
:1033700004331B68009A9A4212D9BDF80A300F4AEA
:103380001B01134404331B6803F58053009A9A42CF
:1033900006D200230393019BBDF80A201A8008E09F
:1033A000BDF80A300133ADF80A30BDF80A30042BFD
:1033B000D9D9039B184604B0704700BF943200204F
:1033C00082B001900B46ADF80230019B1A89BDF81E
:1033D000023013449BB203339AB2019B1A81019BC2
:1033E0005A89BDF80230D31A9BB2033B9AB2019BB3
:1033F0005A8100BF02B0704700B583B0064B196810
:10340000002300930223054A0548FFF741FD0346C8
:10341000184603B05DF804FBE43200209C770200FC
:10342000142E002000B585B00390002300930223E2
:10343000044A03990448FFF72BFD0346184605B0DC
:103440005DF804FBA4770200142E002000B585B0BF
:1034500003460091ADF80630009B1B680393039B65
:10346000002B09D0039B0293029B5B8803339B00D4
:10347000039A134403931DE0BDF80630184A1B015C
:10348000134404331B680833039313E0039B029334
:103490000298FFF727FF0346002B04D0009B039AF6
:1034A0001A60012318E0029B5B8803339B00039A98
:1034B00013440393BDF80630094A1B011344043337
:1034C0001B6803F58053039A9A4204D2039B1B683E
:1034D000B3F1FF3FDAD10023184605B05DF804FBD5
:1034E0009432002000B585B001900091019B5B688B
:1034F0001846FFF70DFF0346002B19D0019B1A89D0
:10350000244B1B899A4213D1019B1A68019B5B686B
:103510009B689A420CD1019B5B6819460098FFF7A3
:1035200019FF0346002B0CBF01230023DBB22CE064
:10353000009B00221A8023E00023029310E0029BEC
:103540000393039B9A68019B1B689A4208D1029AD5
:10355000019B5A600F4B1A89019B1A81012314E0C9
:10356000009B1B8802AA11461846FFF76FFF03460F
:10357000002BE4D1009B1B8801339AB2009B1A8078
:10358000009B1B88042BD7D90023184605B05DF893
:1035900004FB00BFEC32002000B587B0039002911D
:1035A000019200930220FFF703FE034683F001031C
:1035B000DBB2002B01D002234FE0019B002B02D095
:1035C000009B002B44D1052347E0009B9B88254AA4
:1035D0001B0113441B78002B33D124E0009B1B6894
:1035E0000593039B002B06D0059B9A88039B1B88A1
:1035F0009A4200D017E0029B002B06D0059B1A8848
:10360000029B1B889A4200D00DE0059B9A68019BA3
:103610001A60009B1A68019B5A60134B1A89019B20
:103620001A81002319E0009B9B88009A11461846D6
:10363000FFF70CFF0346002BD0D1009B00221A603D
:1036400000E000BF009B9B8801339AB2009B9A80E8
:10365000009B9B88042BB8D90A23184607B05DF855
:1036600004FB00BF94320020EC32002008B51A4B56
:10367000D3F8A8201346DB009B1A9B00164A13447C
:103680001C220021184603F088F9134BD3F8AC3004
:10369000002B16D0104BD3F8A830591C0F4BA3FBAE
:1036A00001239A0813465B0013445B00CA1A0A4BB5
:1036B000C3F8A820084BD3F8AC30013B064AC2F847
:1036C000AC30054BD3F8AC30002B14BF01230023E2
:1036D000DBB2184608BD00BF9C310020ABAAAAAAE5
:1036E00082B001900C4B5B6C002B12D00A4B1B6C10
:1036F000DB00094A1A44019B1A60074B1B6C01331B
:1037000003F00703044A1364034B5B6C013B024A5A
:10371000536400BF02B070474C32002082B0019069
:10372000019B1B78022B03D0019B1B78032B0DD12F
:10373000084B1B6C019A927D1344064A1364054B97
:103740005B6C019A927D9B1A024A536400BF02B0DF
:10375000704700BF4C32002000B587B00390029143
:10376000039B1A1D00230093012302990848FFF7C9
:103770008FFB03460593039B02221A74059B002BC3
:1037800001D1002300E00E23184607B05DF804FBCA
:10379000142E002000B587B003900291029B03F124
:1037A0000801039B03F10C020023009301230C4842
:1037B000FFF76EFB03460593039B9B7D002B01D017
:1037C000032200E00122039B1A74059B002B01D108
:1037D000002300E00E23184607B05DF804FB00BF8D
:1037E000142E002000B587B003900291029B191D92
:1037F000039B03F108020023009301230B48FFF70A
:1038000047FB03460593039B1B78032B01D105223D
:1038100000E00622039B1A74059B002B01D10023B4
:1038200000E00E23184607B05DF804FB142E0020BC
:1038300000B587B003900B46ADF80A300023009323
:1038400001230D4A03990D48FFF722FB03468DF82B
:1038500017309DF81730002B01D00E2308E0BDF87B
:103860000A30074A1B0113440E3301221A70002349
:10387000184607B05DF804FB98770200142E00206C
:103880009432002000B589B0019002AB00221A608A
:103890005A609A60019BDB6802930DF1160202AB3D
:1038A00011461846FFF71EFE0346002B12D0039B5D
:1038B0000693069B9A88019BDA80069B1A88019BD7
:1038C0001A81039BBDF8162011461846FFF7B0FF7A
:1038D000079001E00A230793079B184609B05DF89B
:1038E00004FB000000B587B00190019B981D02AA5F
:1038F0000D4B0021FFF750FE0590059B002B08D1D2
:10390000039A094B9B8819461046FFF791FF0590D3
:1039100004E008220021044803F03FF8059B184604
:1039200007B05DF804FB00BFFC32002000B587B093
:10393000039002910023049304AB1846FFF7D0FED6
:10394000039B9B8A9B00029AD118049B1A68049BD4
:1039500098880023009303461148FFF799FA03461D
:103960000593039B9A8A049B9B8813449AB2039BFA
:103970009A82039B9B7D013BDAB2039B9A75039B62
:103980009B7D002B02D1039B01221A74059B002B07
:1039900001D1002300E00E23184607B05DF804FBB8
:1039A000142E002082B0164B1B8901339AB2144B9F
:1039B0001A81134B00225A80114B0022DA73002324
:1039C000ADF8063015E0BDF806300E4A1B01134471
:1039D0001A78BDF80630002A0CBF01220022D1B2AD
:1039E000074A13440A469A72BDF806300133ADF80F
:1039F0000630BDF80630042BE5D900BF02B0704791
:103A0000EC3200209432002084B0019000238DF825
:103A10000F300023ADF80C302BE0BDF80C30194A04
:103A200013449B7A002B1FD0BDF80C30154A134469
:103A300000229A72BDF80C30134A1B0113440C3358
:103A40001B88002B10D1BDF80C300F4A1B0113440A
:103A50000E331B78002B07D0019BBDF80C201A8079
:103A600001238DF80F3008E0BDF80C300133ADF8BC
:103A70000C30BDF80C30042BCFD99DF80F30184610
:103A800004B07047EC3200209432002008B5084B97
:103A900005221A70074B02229A80064B19680023F0
:103AA00001220548FFF760FA0346184608BD00BF2B
:103AB000EC320020E4320020142E002000B583B048
:103AC000134B5B88ADF80230BDF80230114A1B0180
:103AD00013440C331B88002B11D1BDF802300D4A62
:103AE0001B01134404331968002301220A48FFF71D
:103AF0003BFA03460193064B04221A7002E0FFF7DB
:103B0000C5FF0190019B184603B05DF804FB00BFA0
:103B1000EC32002094320020142E002000B587B033
:103B2000104B5B680593104B1A680F4B9B889B00EA
:103B300013440493059B5B880333ADF80E30094BA7
:103B400003221A70074B5A68BDF80E100023009329
:103B50000B4604990548FFF79BF90346184607B042
:103B60005DF804FBEC320020E4320020142E00202B
:103B700000B583B00A4B5B880A491846FFF766FC1C
:103B80000346002B03D0FFF7C9FF019002E0FFF7C7
:103B900095FF0190019B184603B05DF804FB00BF40
:103BA000EC320020F032002008B5084B06221A70D3
:103BB000064B5B88064A1B01134404331B681846F6
:103BC000FFF730FC0346184608BD00BFEC3200206A
:103BD0009432002008B5054B07221A70034B0022CF
:103BE0005A60FFF709FC0346184608BDEC32002076
:103BF00008B50D48FFF708FF034683F00103DBB269
:103C0000002B0BD0094B00221A70084B00225A805F
:103C1000064B00225A6041F61D5302E0FFF7A8FF51
:103C20000346184608BD00BFEE320020EC320020EB
:103C300082B0094B5B680193019B5B880333ADF84D
:103C40000230064B9A88BDF8023013449AB2034BF7
:103C50009A8000BF02B07047EC320020E4320020AE
:103C600082B0124B1B680193114B5B88114A1B01F8
:103C7000134404331B680D4A13600D4B5B880D4AD7
:103C80001B0113440433019A1A60094B5B881846E0
:103C9000064B9988074A0301134408330A461A80E1
:103CA000024B02229A8000BF02B07047E43200202B
:103CB000EC3200209432002008B51A4B1B78072BF9
:103CC0002CD801A252F823F0E93C02001D3D02006D
:103CD0001D3D0200F53C0200013D02000D3D0200C9
:103CE0000D3D0200153D0200FFF75CFE0D4B012269
:103CF0001A7014E0FFF79CFF0A4B02221A700EE0C4
:103D0000FFF7AEFF074B06221A7008E0054B0722AB
:103D10001A7004E0034B01221A7000E000BF00BFDC
:103D200008BD00BFEC32002000B587B001900091C3
:103D30000F230593019B002B04D00120FFF722FAEB
:103D40000123A6E0009B1B79032B00F2968001A2C1
:103D500052F823F0653D0200733D0200EF3D020082
:103D60000F3E0200FFF748FB0590009B01221A71ED
:103D700086E000238DF813300023ADF8103022E0E8
:103D8000BDF81030454A1B0113441B78022B15D196
:103D9000BDF81030414A1B01134404331B68184618
:103DA000FFF740FB0590BDF810303C4A1B0113445F
:103DB00000221A7001238DF8133008E0BDF810308E
:103DC0000133ADF81030BDF81030042BD8D99DF870
:103DD000133083F00103DBB2002B50D00220FFF739
:103DE000BFF90120FFF7CEF941F61D5351E02C4BEE
:103DF0001968002301222B48FFF7B6F80346059304
:103E0000274B02229A80009B00221A7138E0244B33
:103E10001B681846FFF706FB0590234B5B88ADF83F
:103E20000E301F4B1B680293BDF80E301B4A1B015E
:103E3000134404331B681A4A1360BDF80E30174A46
:103E40001B0113440433029A1A60BDF80E30144A61
:103E50009188124A1B01134408330A461A80104BFA
:103E600002229A80BDF80E300C4A1B011344002236
:103E70001A70009B00221A7102E000BF00E000BF30
:103E8000059B002B04D00120FFF77CF90E2300E0F6
:103E90000023184607B05DF804FB00BF94320020F1
:103EA000E4320020142E0020EC32002000B587B050
:103EB00001900091009B5B8A1B013C4A13440493D0
:103EC000019B002B07D0009BDB8819460498FFF765
:103ED00077FA012365E0049B5A68049B1B899B00C9
:103EE00013440393009B1B7C062B4DD801A252F870
:103EF00023F000BF373F02005B3F0200433F020058
:103F00004F3F0200113F0200673F0200813F020065
:103F1000274B00225A60009B9B69254A1360254964
:103F20002348FFF7DFFA034683F00103DBB2002BDF
:103F300001D00A2335E003990098FFF70DFC0590A6
:103F400025E003990098FFF725FC05901FE00399F1
:103F50000098FFF7EBFC059019E003990098FFF734
:103F600041FC059013E0124B5A68124B1B8819460E
:103F70001046FFF75DFC0590009B06221A7406E0D0
:103F800041F61D53059302E00F23059300BF059BE7
:103F9000002B05D0009BDB8819460498FFF710FA28
:103FA000059B184607B05DF804FB00BF9432002063
:103FB000043300201033002000B585B0019000913B
:103FC000019B002B01D0012323E0009B1B79012BD7
:103FD0000BD0022B14D0002B16D10098FFF752FC07
:103FE0000390009B02221A7112E00098FFF77AFCFE
:103FF0000390039B0A2B0AD141F61D53039306E05D
:1040000041F61D53039303E00F23039300E000BF29
:10401000039B184605B05DF804FB000000B585B0B1
:104020000190019B002B01D001233BE01F4BDB7B68
:10403000002B03D01D4B0022DA7301E0FFF73CFE9A
:104040001A4B1B78013B062B28D801A252F823F00B
:104050006D400200754002007D4002008540020074
:104060009D4002008D40020095400200FFF7C0FD18
:10407000039016E0FFF77CFD039012E0FFF74EFD82
:1040800003900EE0FFF71AFD03900AE0FFF78CFDA6
:10409000039006E0FFF79EFD039002E00F230393D9
:1040A00000BF039B184605B05DF804FBEC3200200E
:1040B00000B58BB003468DF80730354BD3F8A820F8
:1040C0001346DB009B1A9B00314A13440893089B5C
:1040D0001B78013B052B2ED801A252F823F000BF1C
:1040E000F9400200094102000941020019410200A1
:1040F00019410200294102009DF80730089918462D
:10410000FFF712FE099019E09DF80730089918464C
:10411000FFF7CCFE099011E09DF80730089918468A
:10412000FFF74AFF099009E09DF807301846FFF7AE
:1041300075FF099002E00F23099300BF099B002B34
:1041400021D0099B41F61D52934202D100230493D2
:1041500004E0099B04930898FFF7E0FA03AB1946C3
:104160000898FFF757F803AB1846FFF735F8FFF745
:104170007DFA0346002B03D00020FFF799FF02E0F1
:104180000420FEF7FFFF00BF0BB05DF804FB00BF8B
:104190009C31002000B583B001900B468DF80330B0
:1041A0009DF803301846FFF783FF00BF03B05DF8AA
:1041B00004FB82B001900B46ADF80230BDF802302E
:1041C000019A1344184602B0704782B00190019BD7
:1041D000D3F81035DBB2184602B0704782B00190B8
:1041E0000B468DF803309DF80320019B02F5A87261
:1041F00053F82230184602B0704782B00190019BFC
:104200009BB250339BB29B009BB2184602B07047E2
:1042100070B487B001900B468DF803309DF80330E1
:104220000593019B19464FF000024FF000034FF039
:104230000004140144EA11740B01059AC2F1200034
:10424000A2F1200123FA02F504FA00F0054324FA52
:1042500001F10D4324FA02F6CDE90256029B1846FD
:1042600007B070BC704710B582B001900091019BFF
:104270001C680098FFF7C1FF034619462046FFF768
:1042800098FF0346184602B010BD00B583B00190F8
:104290000B468DF80330019B1B689DF803201146E7
:1042A0001846FFF79BFF0346184603B05DF804FB72
:1042B00000B583B001900091019B1B681846FFF781
:1042C00084FF034619460098FFF7A2FF03461846ED
:1042D00003B05DF804FB82B001904FF0A043184694
:1042E00002B0704700B585B0019001AB1846FFF7EA
:1042F000F2FF0390019B012202FA03F3194603988F
:1043000000F018F800BF05B05DF804FB00B585B0FB
:10431000019001AB1846FFF7DEFF0390019B0122DD
:1043200002FA03F31946039800F00EF800BF05B037
:104330005DF804FB82B001900091019B009AC3F8E4
:10434000082500BF02B0704782B001900091019B28
:10435000009AC3F80C2500BF02B0704782B00190EC
:104360000B468DF8033000BF02B0704700B585B032
:104370000190019B5B681B791A461A4B9B5C8DF878
:104380000E3001238DF80F309DF80E30FF2B20D01A
:104390009DF80E30FE2B1FD0019B5B689DF80E2010
:1043A00011461846FFF771FF0246019B5B681B79B7
:1043B00019460D4B53F821309A420DD1019B5B6891
:1043C0001B791A46074BFF21995400238DF80F30B3
:1043D00002E000238DF80F309DF80F30184605B02D
:1043E0005DF804FB143300201C33002000B583B0BB
:1043F0000190019B5B6802211846FDF73BFD00BF61
:1044000003B05DF804FB00B583B00190019B5B68CD
:1044100002211846FDF749FD00BF03B05DF804FB1B
:1044200000B587B003460091ADF80630009B0493B9
:1044300001238DF8173000238DF816303AE09DF8EF
:1044400016302649049A52000A4413441B78DBB202
:10445000002B2AD09DF816302049049A52000A44B5
:104460001A441278D2B2013AD0B21C49049A5200CE
:104470000A44134402461A709DF816301749049AEC
:1044800052000A4413441B78DBB2002B0AD1144AB1
:10449000049B52F823301B680393039BDB69049849
:1044A000984702E000238DF817309DF8163001334D
:1044B0008DF816309DF81630012BC0D99DF81730B5
:1044C000002B06D0064A049B52F823301846FFF70B
:1044D0009AFF00BF07B05DF804FB00BF3033002037
:1044E0003C33002000B585B00190019B1B6802930E
:1044F000029B93F820301846FDF794F800238DF8BE
:104500000F306CE000238DF80E3031E09DF80F2065
:104510009DF80E10029813465B0013449B00034461
:104520000B4408331B78FF2B1DD09DF80F209DF8FE
:104530000E10029813465B0013449B0003440B4487
:1045400008331B781846FDF76DF89DF80F209DF88D
:104550000E10029813465B0013449B0003440B4467
:104560000833FF221A709DF80E3001338DF80E309B
:104570009DF80E30012BC9D99DF80F2002991346E2
:104580005B0013449B000B441B68B3F1FF3F16D044
:104590009DF80F20029913465B0013449B000B44C7
:1045A0001B681846FBF748FF9DF80F200299134639
:1045B0005B0013449B000B444FF0FF321A609DF8E0
:1045C0000F20029913465B0013449B000B440B33EE
:1045D00000221A709DF80F3001338DF80F309DF8CE
:1045E0000F30012B8ED9019B5B681846FDF732FB1B
:1045F00000BF05B05DF804FB30B587B001900B46F5
:104600008DF803301346ADF80030019B1B6805930D
:104610009DF8032013465B0013449B00059A134446
:1046200004939DF803308DF80F30059B93F82030EC
:104630001846FDF7C9F8BDF80030002B11D1049BD6
:104640005B7A1846FDF7C0F8049B1B7A1846FDF705
:1046500079F8019B5B681B791A46484BFF219954F6
:1046600085E0BDF80020059B9B699A4215D3059B08
:104670009B69ADF80030049B1B7A1846FDF7A4F83F
:10468000049B5B7A1846FDF75DF8019B5B681B791C
:104690001A463A4BFF21995469E0049B5A68059BDE
:1046A0009B699A4249D0049B5B68002B45D0BDF8BA
:1046B0000020049B5B689A423FD2019B5868049B90
:1046C0005A6800230321FDF753FB059B93F8204014
:1046D000019B5B6803211846FFF7C5FD0546049B57
:1046E0009B7A002B06D0049B1B681846FBF7EFFE55
:1046F000034605E0049B1B681846FBF7D1FE034602
:104700001A4629462046FCF7CBFF059B93F820303C
:104710001846FDF717F8019B5B681B791946174A85
:104720009DF803305354019B5B681B791946BDF813
:104730000030134A42F8213006E0019B5B681B7988
:104740001A460E4BFF219954019B5868BDF8002072
:104750009DF80F100023FDF70BFB049B1B7A1846F6
:10476000FCF7F0FF049B5B7A1846FCF7EBFFBDF803
:104770000020049B5A6000BF07B030BD14330020F6
:104780001C33002000B585B001900B468DF8033036
:104790001346ADF80030019B1B6803939DF803207E
:1047A00013465B0013449B00039A13440293039B3C
:1047B00093F82130022B01D008233EE0BDF8002001
:1047C000029B5B689A420CD1039BDB69002B06D0ED
:1047D000039BDB69019A52681279104698470023BF
:1047E0002BE00198FFF7C2FD0346002B01D01123F7
:1047F00023E0019B5B681B791A46124BFE219954FA
:10480000BDF800209DF8033019460198FFF7F4FE2B
:10481000019B1B68DB69002B0ED0019B5B681B7939
:104820001A469DF80330084952000A4413440222F4
:104830001A700198FFF7DAFD0023184605B05DF8FD
:1048400004FB00BF143300203033002010B58CB0BF
:10485000039001921A460B468DF80B3013468DF8E3
:104860000A30039B1B680A939DF80B2013465B00DC
:1048700013449B000A9A134409930A9B93F821302E
:10488000002B01D00823B4E0099B00225A60099B49
:104890009DF80A209A7203238DF81430039B19683F
:1048A0009DF80B2013465B0013449B000B440A3316
:1048B0001B78002B0CBF01230023DBB28DF81530D1
:1048C00001238DF8163005AB19460198FBF76EFDF4
:1048D0000890089B002B01D004238AE09DF80B2050
:1048E0000A9913465B0013449B000B44019A1A601B
:1048F0009DF80A30002B03D00198FFF707FD02E076
:104900000198FFF7EFFC00238DF82F3011E09DF8A0
:104910002F300833099A13441846FCF713FE034658
:10492000002B01D0042364E09DF82F3001338DF873
:104930002F309DF82F30012BE9D9099B1B7A18469F
:10494000FCF742FF099B5B7A1846FCF73DFF9DF898
:104950000A30002B06D0099B1B681846FBF7B7FDF1
:10496000034605E0099B1B681846FBF799FD0346C3
:1049700007939DF80A30002B06D0099B1B68184648
:10498000FBF78EFD034605E0099B1B681846FBF705
:104990009EFD03460693099B1C7A039B5B689DF86A
:1049A0000B2011461846FFF75EFC0346079A19468E
:1049B0002046FCF775FE099B5C7A039B5B6802212D
:1049C0001846FFF750FC0346069A19462046FCF7A6
:1049D00067FE099B0122DA72039B5B681B791A460A
:1049E0009DF80B30044952000A44134400221A7007
:1049F000002318460CB010BD3033002084B0019065
:104A0000002303930923029305E0019B5B080193B4
:104A1000039B01330393019BB3F5805F03D3039A98
:104A2000029B9A42F1D3074B1B78002B04D0039BC7
:104A3000002B01D101230393039BDBB2184604B082
:104A4000704700BF1233002000B58FB0059004916D
:104A50000392049B002B01D10B2310E1059B1B68E3
:104A60000C930C9B93F82130002B01D0082306E116
:104A7000FCF78CFC0B900B9B002B04D00B9B852B25
:104A800001D00423FBE0FBF785FC034683F0010320
:104A9000DBB2002B07D0FBF735FC0B900B9B002BF8
:104AA00001D00323EBE0784B1B6803F0F003302BBD
:104AB00003D1764B00221A7002E0744B01221A7067
:104AC0000C9BFF2283F8202000238DF8373030E044
