:020000021000EC
:10F000000000012033F10100D9F00100ADC204007D
:10F01000DDF00100DFF00100E1F001000000000080
:10F02000000000000000000000000000E3F001000C
:10F03000E5F0010000000000E7F00100E9F0010048
:10F040006DC10200EDF00100EFF00100B9BF020058
:10F05000F3F00100F5F00100B1AE0200C5C20200FC
:10F06000FBF00100FDF00100FFF0010001F10100E3
:10F0700003F1010005F1010007F1010009F10100B0
:10F080000BF10100B1D602008518030011F1010057
:10F09000F1D6020015F10100B9FC020019F10100DE
:10F0A0001BF101001DF101001FF1010021F1010020
:10F0B00023F1010025F10100000000000000000024
:10F0C00027F1010029F101002BF101002DF10100D0
:08F0D0002FF1010031F10100F4
:10F0D800FEE7FEE7FEE7FEE7FEE7FEE7FEE7FEE700
:10F0E800FEE7FEE7FEE7FEE7FEE7FEE7FEE7FEE7F0
:10F0F800FEE7FEE7FEE7FEE7FEE7FEE7FEE7FEE7E0
:10F10800FEE7FEE7FEE7FEE7FEE7FEE7FEE7FEE7CF
:10F11800FEE7FEE7FEE7FEE7FEE7FEE7FEE7FEE7BF
:10F12800FEE7FEE7FEE7FEE7FEE70348854600F058
:10F13800C5F800F003B87047000001203749384887
:10F148000A1A02D0072291438D46364936480A1AD0
:10F1580006D00722914381F30988022282F314889A
:10F1680032483349334A00F048F833483349344A7F
:10F1780000F043F833483449344A00F03EF8344844
:10F188003449354A00F039F834483549354A00F0F1
:10F1980034F835483549364A00F02FF835483649AD
:10F1A800364A00F02AF836483649374A00F025F83A
:10F1B80036483749002200F02BF8364836490022F5
:10F1C80000F026F835483649091A082903DB0022D9
:10F1D8000260043001601F481F49884205D0026858
:10F1E800043003B4904703BCF7E700208646EC469A
:10F1F800002000212B4A9047FEE7884207D0521A88
:10F2080005D0037801300B700131013AF9D170470C
:10F21800884202D002700130FAE7704700000120EE
:10F2280000FC0020000001200000012070180500EB
:10F23800182B0020002C0020B0F20100B0F20100D1
:10F2480010E7040070180500182B0020182B002068
:10F2580010E7040010E7040010E7040010E70400BA
:10F2680010E7040010E7040010E7040010E70400AA
:10F278007018050058190500002C0020002C0020EB
:10F2880058190500002C0020102C0020102C0020FC
:10F2980058730020587300205873002058730020BA
:08F2A80058770020191502003F
:10F2B000024B034A1A6000BF704700BF182B0020A2
:10F2C0000090D00308B500F00DF90346002B06D0DE
:10F2D000744B1B681B0A744A03F01F03136000F091
:10F2E0002DF90346002B02D0704B714A1A6000F0D2
:10F2F00041F90346002B06D06E4B1B685B0B6E4A30
:10F3000003F00703136000F061F90346002B05D0FA
:10F310006A4BDB68694A23F08073D36000F072F9AE
:10F320000346002B0ED04FF080430022C3F80C217F
:10F330004FF080430022C3F810214FF08043002299
:10F34000C3F8382500F08AF90346002B02D05C4B45
:10F3500003221A6000F09EF90346002B0BD0594B94
:10F3600005221A60584B01221A60584B00221A607D
:10F37000574B3F221A6000F0A9F90346002B76D0C4
:10F380004FF08053534AD3F80434C2F820354FF07D
:10F390008053504AD3F80834C2F824354FF08053D4
:10F3A0004C4AD3F80C34C2F828354FF08053494A00
:10F3B000D3F81034C2F82C354FF08053454AD3F8B7
:10F3C0001434C2F830354FF08053424AD3F8183421
:10F3D000C2F834354FF080533E4AD3F81C34C2F89B
:10F3E00040354FF080533B4AD3F82034C2F84435BF
:10F3F0004FF08053374AD3F82434C2F848354FF0E1
:10F400008053344AD3F82834C2F84C354FF0805337
:10F41000304AD3F82C34C2F850354FF080532D4A7F
:10F42000D3F83034C2F854354FF08053294AD3F81A
:10F430003434C2F860354FF08053264AD3F838345C
:10F44000C2F864354FF08053224AD3F83C34C2F8F6
:10F4500068354FF080531F4AD3F84034C2F86C35FA
:10F460004FF080531B4AD3F84434C2F8703500F093
:10F4700049F90346002B05D0174B1B68174A03F0C8
:10F480004F031360164BD3F88830154A43F47003CA
:10F49000C2F88830BFF34F8FBFF36F8FFFF708FFBD
:10F4A00000BF08BD240300104035014074C0074070
:10F4B0000DF0ADBA440200103C050040F0ED00E054
:10F4C000A0050040105600408856004018560040E5
:10F4D0001456004000C0004058020010E40E0040E6
:10F4E00000ED00E0124B1B68DBB2062B1DD1114B67
:10F4F0001B6803F00F03002B17D10F4B1B6803F0A1
:10F50000F003302B01D1012310E00B4B1B6803F0FB
:10F51000F003402B01D1012308E0074B1B6803F0E7
:10F52000F003502B01D1012300E00023184670475F
:10F53000E00F00F0E40F00F0E80F00F00A4B1B684A
:10F54000DBB2062B0DD1094B1B6803F00F03002B18
:10F5500007D1074B1B6803F0F003302B01D10123C7
:10F5600000E0002318467047E00F00F0E40F00F0C1
:10F57000E80F00F0124B1B68DBB2062B1DD1114BBC
:10F580001B6803F00F03002B17D10F4B1B6803F010
:10F59000F003302B01D1012310E00B4B1B6803F06B
:10F5A000F003402B01D1012308E0074B1B6803F057
:10F5B000F003502B01D1012300E0002318467047CF
:10F5C000E00F00F0E40F00F0E80F00F00A4B1B68BA
:10F5D000DBB2062B0DD1094B1B6803F00F03002B88
:10F5E00007D1074B1B6803F0F003302B01D1012337
:10F5F00000E0002318467047E00F00F0E40F00F031
:10F60000E80F00F0124B1B68DBB2062B1DD1114B2B
:10F610001B6803F00F03002B17D10F4B1B6803F07F
:10F62000F003302B01D1012310E00B4B1B6803F0DA
:10F63000F003402B01D1012308E0074B1B6803F0C6
:10F64000F003502B01D1012300E00023184670473E
:10F65000E00F00F0E40F00F0E80F00F00A4B1B6829
:10F66000DBB2062B0DD1094B1B6803F00F03002BF7
:10F6700007D1074B1B6803F0F003302B01D10123A6
:10F6800000E0002318467047E00F00F0E40F00F0A0
:10F69000E80F00F00A4B1B68DBB2062B0DD1094BBB
:10F6A0001B6803F00F03002B07D1074B1B6803F007
:10F6B000F003302B01D1012300E0002318467047EE
:10F6C000E00F00F0E40F00F0E80F00F00A4B1B68B9
:10F6D000DBB2062B0DD1094B1B6803F00F03002B87
:10F6E00007D1074B1B6803F0F003502B01D1012316
:10F6F00000E0002318467047E00F00F0E40F00F030
:10F70000E80F00F0124B1B68DBB2062B1DD1114B2A
:10F710001B6803F00F03002B17D10F4B1B6803F07E
:10F72000F003302B01D1012310E00B4B1B6803F0D9
:10F73000F003402B01D1012308E0074B1B6803F0C5
:10F74000F003502B01D1012300E00023184670473D
:10F75000E00F00F0E40F00F0E80F00F07047704792
:10F7600082B003468DF807309DF90730002B0DDB82
:10F770009DF8073003F01F0206499DF907305B0929
:10F78000012000FA02F2603341F8232000BF02B0EA
:10F79000704700BF00E100E0BFF34F8F054BDB680F
:10F7A00003F4E0620349044B1343CB60BFF34F8F74
:10F7B00000BFFDE700ED00E00400FA053EDF704702
:10F7C00000BF184682B001904FF0A043184602B027
:10F7D000704700B585B00190084611461A460346A9
:10F7E0008DF803300B468DF8023013468DF801304A
:10F7F00001AB1846FFF7E6FF03909DF803209DF844
:10F8000002305B001A439DF801309B001A439DF8BB
:10F8100018301B0242EA03019DF81C301B04019AB8
:10F820001943039B02F5E07243F8221000BF05B0B4
:10F830005DF804FB00B585B003900B468DF80B30E6
:10F840009DF80B2000230193002300931346002210
:10F8500000210398FFF7BDFF00BF05B05DF804FB72
:10F8600000B585B0019001AB1846FFF7ABFF0390E0
:10F87000039800F00AF80246019B22FA03F303F012
:10F880000103184605B05DF804FB82B00190019BAE
:10F89000D3F81035184602B07047000084B00190CC
:10F8A000244B0393019B002B40D0234B1A680399F0
:10F8B000019B00BF00BF00BF00BF00BF00BF00BF73
:10F8C00000BF8A422FD000BF00BF00BF00BF00BFF3
:10F8D00000BF00BF00BF00BF00BF00BF00BF00BF30
:10F8E00000BF00BF00BF00BF00BF00BF00BF00BF20
:10F8F00000BF00BF00BF00BF00BF00BF00BF00BF10
:10F9000000BF00BF00BF00BF00BF00BF00BF00BFFF
:10F9100000BF00BF00BF00BF00BF00BF00BF00BFEF
:10F9200000BF00BF00BF013BC3D1019300BF04B0C3
:10F93000704700BF0024F400182B002000B583B0EE
:10F940000190019B4FF47A7202FB03F31846FFF714
:10F95000A5FF00BF03B05DF804FB82B04FF0102399
:10F960005B690193019BB3F1FF3F04D14FF08053DA
:10F970005B691B0300E0019B184602B07047000062
:10F98000024BD3F804351846704700BF00B0004062
:10F9900000B585B00190019B0D4A9B1A9B080D4A4A
:10F9A000A2FB03230393039B092B0BD97B460293F2
:10F9B000094B1B68002B04D0074B1B680298984723
:10F9C00000E000DE039B184605B05DF804FB00BFB5
:10F9D000682C002025499224104F002000B58BB0E0
:10F9E0000790B0EE407AF0EE607A0B468DED057A26
:10F9F000CDED067AADF81230BDF812301A466E49D8
:10FA0000032010F03CFADDED057AF5EEC07AF1EE58
:10FA100010FA0AD5DDED057ABFEE007AF4EEC77A6A
:10FA2000F1EE10FA01DD654A00E0654ADDED057A88
:10FA3000FDEEE77A17EE901ADDED057AF5EEC07A65
:10FA4000F1EE10FA12DD9DED057ADDED057AFDEEA1
:10FA5000E77AF8EEE77A77EE677A9FED5A7A67EE03
:10FA6000877AFDEEE77A17EE903A11E0DDED057A40
:10FA7000FDEEE77AB8EEE77ADDED057A77EE677AA4
:10FA80009FED507A67EE877AFDEEE77A17EE903AAF
:10FA900000930B464C49032010F01CFADDED067A6A
:10FAA000F5EEC07AF1EE10FA0AD5DDED067ABFEE7A
:10FAB000007AF4EEC77AF1EE10FA01DD3F4A00E079
:10FAC0003F4ADDED067AFDEEE77A17EE901ADDED9E
:10FAD000067AF5EEC07AF1EE10FA12DD9DED067AA7
:10FAE000DDED067AFDEEE77AF8EEE77A77EE677AF3
:10FAF0009FED347A67EE877AFDEEE77A17EE903A5B
:10FB000011E0DDED067AFDEEE77AB8EEE77ADDED9D
:10FB1000067A77EE677A9FED2B7A67EE877AFDEEAD
:10FB2000E77A17EE903A00930B462849032010F02D
:10FB3000D1F90798FFF72CFF0990DDED067AFDEE6D
:10FB4000E77ACDED037A9DF80C305BB2DBB28DF82D
:10FB500020309DED067ADDED067AFCEEE77ACDEDFC
:10FB6000037A9DF80C30DBB207EE903AF8EEE77AB4
:10FB700077EE677A9FED137A67EE877AFCEEE77A85
:10FB8000CDED037A9DF80C30DBB28DF82130DDED40
:10FB9000057AFCEEE77ACDED037A9DF80C30DBB206
:10FBA0008DF8223008AA03230999062004F03CFBB3
:10FBB00000BF0BB05DF804FB3CE7040074E70400F1
:10FBC00078E704000000C8427CE704009CE70400DA
:10FBD00000B58DB001900198FFF7DAFE0B9000237D
:10FBE0008DF8283000238DF8293000238DF82A3035
:10FBF00003AB00221A605A609A60DA601A615A6197
:10FC00009A6123230493FF238DF814304FF4FA6391
:10FC100008934FF4FA73099333238DF814300023BB
:10FC2000069302238DF80C3003AB1946012005F032
:10FC300001FE0AAA03230B990A2004F0F5FA00BF7B
:10FC40000DB05DF804FB000000B591B073490320CE
:10FC500010F004F907F08EFD07F03CFC034607EEB8
:10FC6000903AF8EEE77ACDED0F7A07F0E5FC8DEDEE
:10FC70000E0ADDED0F7AF5EEC07AF1EE10FA0AD534
:10FC8000DDED0F7ABFEE007AF4EEC77AF1EE10FAEE
:10FC900001DD634A00E0634ADDED0F7AFDEEE77AAD
:10FCA00017EE901ADDED0F7AF5EEC07AF1EE10FA4C
:10FCB00012DDDDED0F7AFDEEE77AF8EEE77A9DEDE5
:10FCC0000F7A77EE677A9FED587A67EE877AFDEEC6
:10FCD000E77A17EE903A11E0DDED0F7AFDEEE77A64
:10FCE000B8EEE77ADDED0F7A77EE677A9FED4E7A20
:10FCF00067EE877AFDEEE77A17EE903A00930B46AF
:10FD00004A49032010F0E6F8DDED0E7AF5EEC07AF0
:10FD1000F1EE10FA0AD5DDED0E7ABFEE007AF4EEC0
:10FD2000C77AF1EE10FA01DD3D4A00E03D4ADDED13
:10FD30000E7AFDEEE77A17EE901ADDED0E7AF5EE0B
:10FD4000C07AF1EE10FA12DDDDED0E7AFDEEE77A03
:10FD5000F8EEE77A9DED0E7A77EE677A9FED327ACC
:10FD600067EE877AFDEEE77A17EE903A11E0DDED67
:10FD70000E7AFDEEE77AB8EEE77ADDED0E7A77EEF1
:10FD8000677A9FED297A67EE877AFDEEE77A17EEBC
:10FD9000903A00930B462649032010F09BF8DDEDC6
:10FDA0000E7AFDEEE77ACDED037A9DF80C305BB26A
:10FDB000DBB28DF81430DDED0E7AFCEEE77ACDED96
:10FDC000037A9DF80C30DBB207EE903AF8EEE77A52
:10FDD0009DED0E7A77EE677A9FED137A67EE877A5C
:10FDE000FCEEE77ACDED037A9DF80C30DBB28DF8AE
:10FDF0001530DDED0F7AFCEEE77ACDED037A9DF854
:10FE00000C30DBB28DF8163005AA03231021062032
:10FE100004F00AFA00BF11B05DF804FBC0E704006B
:10FE200074E7040078E704000000C8427CE704009F
:10FE30009CE7040000B583B003468DF807309DF8B9
:10FE40000730012B03D10449032010F007F800BF4D
:10FE500003B05DF804FB00BFF8E7040030B589B0DB
:10FE600000230793114B6C461D460FCD0FC42B6822
:10FE700023606B46184607F0D3F90690069B002BCB
:10FE800005D00B4A4FF4817106980CF0BBFC07F0CB
:10FE9000B7FA0590059B002B05D0054A40F20311E7
:10FEA00005980CF0AFFC00BF09B030BD70E804004D
:10FEB0001CE8040000B593B00023ADF846300123E0
:10FEC000099309AB1946554826F05EF80F900F9B31
:10FED000002B05D0524A40F211110F980CF092FC01
:10FEE000012309934D4B1B8809AA4E49184626F059
:10FEF00091F90E900E9B002B05D0494A40F2131148
:10FF00000E980CF07FFC0C23099309AA02AB114652
:10FF1000184625F001FE0D900D9B002B05D0404AA0
:10FF20004FF48C710D980CF06DFC00238DF845306A
:10FF30000023109368E0109B5B0012AA134433F86F
:10FF4000403C6A461146184625F086FD0C900C9BF5
:10FF5000002B05D0324A40F21D110C980CF052FCD7
:10FF60009DF80030012B2FD1BDF80200BDF84630BE
:10FF70005B002D4A1344194626F0C0F80346002BB7
:10FF800022D1BDF84630284A32F813304FF6FF72BE
:10FF9000934219D0BDF846305B00244A1A446B46A0
:10FFA0001146184625F014FE0B900B9B002B05D034
:10FFB0001B4A40F227110B980CF024FCBDF8463088
:10FFC0000133ADF846301CE09DF80030032B18D10A
:10FFD0009DF845305B00164A1A446B461146184698
:10FFE00025F0F6FD0A900A9B002B05D00C4A4FF431
:10FFF00096710A980CF006FC9DF8453001338DF897
:020000022000DC
:100000004530109B01331093099B109A9A4292D36A
:10001000BDF84630184613B05DF804FB382C0020BC
:100020001CE804003A2C00203C2C0020502C00201E
:10003000642C002010B584B0544B1B6803F480433B
:10004000002B2FD0524B1B68032B2BDD2F21514847
:100050002DF0F3FE0346002B06D02F214D482DF046
:10006000ECFE03465C1C0EE05C214A482DF0E5FEE8
:100070000346002B06D05C2146482DF0DEFE0346E9
:100080005C1C00E0434CFFF77BFC0246424B1B88A4
:100090000193424B009313464FF49F722146042074
:1000A00015F058F93C4B1B8819463D4A0B46DB00BE
:1000B0005B1A9B0013441A88374B1B881946394B2F
:1000C00033F811301946104622F06CFA0390039B66
:1000D000002B05D02F4A4FF4A17103980CF092FB2E
:1000E00022F05CF8002302932B4B1B88194602AACE
:1000F0000423012004F098F8274B1B8801339AB29F
:10010000254B1A80244B1B88092B08D8264B1B88AB
:1001100003F580739BB2184603F0EAFD32E01B4BF7
:100120001B6803F48043002B2CD0194B1B68032B56
:1001300028DD2F2117482DF080FE0346002B06D026
:100140002F2114482DF079FE03465C1C0EE05C2143
:1001500010482DF072FE0346002B06D05C210D489E
:100160002DF06BFE03465C1C00E00A4CFFF708FC18
:1001700002460E4B0093134640F24F1221460420D4
:1001800015F0E8F800BF04B010BD00BF2C2B002014
:10019000302B00201CE80400CA2D002084E8040055
:1001A000682C0020502C0020C82D0020ACE8040052
:1001B00000B585B00023ADF80E300023029322E095
:1001C0004FF6FF73ADF806301349029A1346DB0071
:1001D0009B1A9B000B441B880DF106021146184622
:1001E00022F034FA0346002B10D1BDF806304FF64A
:1001F000FF7293420AD0BDF80E300133ADF80E30D5
:10020000029B01330293029B092BD9D9BDF80E3012
:10021000184605B05DF804FB682C0020F0B58FB0DF
:100220000B9009A880E80600ADF822300B98FFF784
:10023000AFFB0D9009AB0C932C4B1B6803F4804370
:10024000002B49D02A4B1B68032B45DD2F21294861
:100250002DF0F3FD0346002B06D02F2125482DF06D
:10026000ECFD03465C1C0EE05C2122482DF0E5FD10
:100270000346002B06D05C211E482DF0DEFD034610
:100280005C1C00E01B4CFFF77BFB07460C9B1B78BC
:100290001A460C9B01331B7819460C9B02331B78C2
:1002A00018460C9B03331B781D460C9B04331B78AC
:1002B0001E46BDF8223007930696059504900391DB
:1002C00002920D9B01930C4B00933B464FF4B77287
:1002D0002146042015F03EF809AA05230D990720B0
:1002E00003F0A2FF00BF0FB0F0BD00BF2C2B002019
:1002F000302B00201CE80400C8E8040010B598B0BA
:10030000A14B1B6803F48043002B2CD09F4B1B6830
:10031000032B28DD2F219E482DF08FFD0346002B57
:1003200006D02F219A482DF088FD03465C1C0EE074
:100330005C2197482DF081FD0346002B06D05C21FF
:1003400093482DF07AFD03465C1C00E0904CFFF7CB
:1003500017FB02468F4B009313464FF4BA722146A7
:10036000042014F0F7FF25F0CDF921F0C3FF8A4BEC
:100370004FF6FF721A80894B4FF6FF721A800023E6
:1003800017930EE0864A179B4FF6FF7122F8131061
:10039000844A179B4FF6FF7122F81310179B013305
:1003A0001793179B092BEDD97F4B4FF6FF721A80DD
:1003B0007D4B4FF6FF725A807C4826F07FFE1490EA
:1003C000149B002B05D0724A4FF4C27114980CF0A4
:1003D00019FA774A0021774827F03CF91390139BCC
:1003E000002B05D06A4A40F2851113980CF00AFAE6
:1003F0000023169337E07049169A1346DB009B1AC8
:100400009B000B4404336D4A1A606B49169A1346DD
:10041000DB009B1A9B000B440833694A1A6066494B
:10042000169A1346DB009B1A9B000B440C33654A5B
:100430001A60169A1346DB009B1A9B005E4A13440F
:10044000169A92B2114618462CF080FC1290129B1C
:10045000002B05D04E4A40F28D1112980CF0D2F9C3
:10046000169B01331693169B0B2BC4D925F0C8F8A5
:100470000346002B06D0FFF71DFD03461A46524BDC
:100480001A804EE0514B1B68029302AB184625F0D0
:100490004FF91190119B002B05D03D4A4FF4CC71C0
:1004A00011980CF0AFF940494CF6FE2025F0B6F952
:1004B0001090109B002B05D0354A40F299111098EE
:1004C0000CF0A0F942494CF6FF2025F0A7F90F9057
:1004D0000F9B002B05D02E4A4FF4CD710F980CF0D6
:1004E00091F92D4A3B49002025F0D7FB0E900E9B39
:1004F000002B05D0264A40F29B110E980CF082F991
:10050000254B1988254B344A002025F029FE0D90F3
:100510000D9B002B05D01E4A4FF4CE710D980CF0A8
:1005200071F921F0E5FD0346002B06D0FFF740FEF0
:1005300003461A46294B1A80FCE01E4B1A88174BBB
:100540001B881946104622F0FDF80C900C9B002BDE
:1005500005D00F4A4FF4D3710C980CF053F9154B9A
:100560001A880E4B1B881946104622F045F90B904D
:100570000B9B002B05D0064A40F2A7110B980CF0FC
:1005800041F9002315935EE02C2B0020302B002036
:100590001CE8040020E90400382C00203A2C00203C
:1005A0003C2C0020502C0020642C0020153D020023
:1005B0008D070200B82D0020682C00201D020200CB
:1005C000DDF90100D1FB0100C82D002044E9040041
:1005D000662C002018E7040028E70400CA2D00203C
:1005E0006449159A1346DB009B1A9B000B441A883A
:1005F000614B1B881946104622F0A4F80A900A9B0A
:10060000002B05D05D4A4FF4D6710A980CF0FAF829
:100610005849159A1346DB009B1A9B000B441A8815
:10062000554B1B881946104622F0E6F80990099BA5
:10063000002B05D0514A40F2AD1109980CF0E2F8B8
:10064000159B01331593159B092BC9D9494BB3F859
:100650001821494B1B881946104622F073F8089060
:10066000089B002B05D0454A4FF4D87108980CF030
:10067000C9F8404BB3F818213F4B1B881946104668
:1006800022F0BAF80790079B002B05D03B4A40F2B6
:10069000B11107980CF0B6F8364BB3F81821384B67
:1006A0001B881946104621F07DFF0690069B002B03
:1006B00005D0324A4FF4D97106980CF0A3F82D4BAF
:1006C000B3F834212C4B1B881946104622F03AF817
:1006D0000590059B002B05D0284A4FF4DA71059848
:1006E0000CF090F8234BB3F83421234B1B881946A8
:1006F000104622F081F80490049B002B05D01F4A7D
:1007000040F2B51104980CF07DF81A4BB3F834217F
:100710001B4B5B881946104621F044FF0390039B56
:10072000002B05D0154A4FF4DB7103980CF06AF8E2
:1007300021F034FD03F0D6FC124B1A88124B1B88B3
:100740009A4208D20F4B1B8803F580739BB2184660
:1007500003F0B0FA0BE00C4B1B88092B07D80A4BAF
:100760001B8803F580739BB2184603F0C1FA00BFE3
:1007700018B010BD682C00203A2C00201CE80400A2
:10078000642C0020CA2D0020C82D002010B586B092
:1007900005900491049B1B78002B40D1234B1B68D0
:1007A00003F48043002B3CD0214B1B68032B38DD26
:1007B0002F2120482DF041FB0346002B06D02F218E
:1007C0001C482DF03AFB03465C1C0EE05C211948E6
:1007D0002DF033FB0346002B06D05C2115482DF08D
:1007E0002CFB03465C1C00E0124CFFF7C9F8049B8D
:1007F0005B685B881A46049B1B7B1946049B5B68FD
:1008000093F914300393029101920B4B009303462A
:1008100040F2CD122146042014F09CFD01E000BFFF
:1008200000E000BF00BF06B010BD00BF2C2B0020B1
:10083000302B00201CE8040048E9040010B586B005
:100840000D230393374B1B6803F48043002B2FD0F9
:10085000354B1B68032B2BDD2F2134482DF0EDFA8F
:100860000346002B06D02F2130482DF0E6FA034630
:100870005C1C0EE05C212D482DF0DFFA0346002BB6
:1008800006D05C2129482DF0D8FA03465C1C00E014
:10089000264CFFF775F80246254B1B880193254B24
:1008A000009313464FF4EE722146042014F052FDDB
:1008B0001F4B1B88194603AA0423012003F0B4FC34
:1008C0001B4B1B881A461C4B33F81230184624F079
:1008D000F9FF0590059B002B05D0144A40F2DF116B
:1008E00005980BF08FFF124B1B881A46134B33F8F9
:1008F0001230184625F0C4FB0490049B002B05D051
:100900000A4A4FF4F07104980BF07CFF0C4B1B88E3
:1009100003F580739BB2184603F0EAF900BF06B0F6
:1009200010BD00BF2C2B0020302B00201CE8040041
:10093000CA2D002080E90400502C00203C2C00200F
:10094000C82D002010B58AB00390584B1B88092B86
:100950000BD97B460993564B1B68002B04D0544B94
:100960001B680998984700E000DE524B1B6803F4AF
:100970008043002B2FD0504B1B68032B2BDD2F21E6
:100980004E482DF05AFA0346002B06D02F214B4833
:100990002DF053FA03465C1C0EE05C2147482DF015
:1009A0004CFA0346002B06D05C2144482DF045FA52
:1009B00003465C1C00E0414CFEF7E2FF0246039B4D
:1009C0005B8A01933E4B009313464FF4F572214628
:1009D000042014F0BFFC039B588A3A4B1B885B0031
:1009E000394A1344194624F019FF0890089B002B3C
:1009F00005D0324A40F2ED1108980BF003FF039B3B
:100A0000588A324B1988039B9C682E4B1B885B00CD
:100A10002F4A1344224625F0D5FA0790079B002B56
:100A200005D0264A4FF4F77107980BF0EBFE254BE3
:100A30001B881A46264B33F81230184626F006FC5F
:100A40000690069B002B05D01C4A40F2F111069837
:100A50000BF0D8FE1B4B1B881A461D4B33F8122097
:100A6000184B1B881946184B33F81130194610469D
:100A700026F06CFB0590059B002B05D00F4A40F239
:100A8000F31105980BF0BEFE0E4B1B8801339AB292
:100A90000C4B1A80054B1B8803F580739BB21846DC
:100AA00003F008F900BF0AB010BD00BFCA2D002036
:100AB000104F00202C2B0020302B00201CE80400BD
:100AC000A4E90400C82D0020502C0020382C002060
:100AD0003C2C002000B583B00190002001F03CFFC9
:100AE00000BF03B05DF804FB10B59EB00590049103
:100AF0001346ADF80E30049B1B781B021AB2049B00
:100B000001331B781BB213431BB2ADF87630BDF82E
:100B100076304FF6FF72934202D10A23ADF8763059
:100B2000049B02331B78013B082B00F2598301A27E
:100B300052F823F0590B0200CD0B0200450E0200C3
:100B4000990F020093100200B1110200D1110200AE
:100B5000930C0200590D0200B14B1B6803F4804353
:100B6000002B2CD0AF4B1B68032B28DD2F21AE4868
:100B70002DF063F90346002B06D02F21AA482DF053
:100B80005CF903465C1C0EE05C21A7482DF055F98A
:100B90000346002B06D05C21A3482DF04EF90346F6
:100BA0005C1C00E0A04CFEF7EBFE02469F4B00935E
:100BB000134640F20F222146042014F0CBFB049B85
:100BC00003331B78184601F075FE0EE3BDF80E30B6
:100BD000032B0BD1BDF87630954AD25CBDF8763048
:100BE00082F00102D1B2924AD15405E0BDF87630CC
:100BF000049AD1788E4AD154BDF876201346DB0092
:100C00009B1A9B008B4A9818BDF87630884AD15CB5
:100C10002CF002F903461C93814B1B6803F48043BC
:100C2000002B2ED07F4B1B68032B2ADD2F217E4803
:100C30002DF003F90346002B06D02F217A482DF022
:100C4000FCF803465C1C0EE05C2177482DF0F5F8BB
:100C50000346002B06D05C2173482DF0EEF80346C6
:100C60005C1C00E0704CFEF78BFE02461C9B01935F
:100C7000714B0093134640F219222146042014F0D0
:100C800069FBBDF876101CAA0423052003F0CCFAFA
:100C9000ABE2BDF80E30032B0BD1BDF87630644AC1
:100CA000D25CBDF8763082F00102D1B2604AD154F4
:100CB00005E0BDF87630049AD1785D4AD154BDF88C
:100CC00076201346DB009B1A9B005A4A9818BDF801
:100CD0007630574AD15C2CF0D0F803461C93504B29
:100CE0001B6803F48043002B2ED04E4B1B68032B54
:100CF0002ADD2F214C482DF0A0F80346002B06D00A
:100D00002F2149482DF099F803465C1C0EE05C2128
:100D100045482DF092F80346002B06D05C2142484E
:100D20002DF08BF803465C1C00E03F4CFEF728FEDC
:100D300002461C9B0193414B009313464FF40972EA
:100D40002146042014F006FBBDF876101CAA0423EB
:100D5000082003F069FA48E2BDF80E30032B0BD1EE
:100D6000BDF87630324AD25CBDF8763082F00102AE
:100D7000D1B22F4AD15405E0BDF87630049AD1782B
:100D80002B4AD154BDF876201346DB009B1A9B00FA
:100D9000284A9818BDF87630254AD15C2CF0A2F884
:100DA00003461C931E4B1B6803F48043002B2ED07C
:100DB0001C4B1B68032B2ADD2F211B482DF03DF80F
:100DC0000346002B06D02F2117482DF036F8034696
:100DD0005C1C0EE05C2114482DF02FF80346002B1C
:100DE00006D05C2110482DF028F803465C1C00E07A
:100DF0000D4CFEF7C5FD02461C9B0193104B009362
:100E0000134640F22E222146042014F0A3FABDF826
:100E100076101CAA0423092003F006FAE5E100BFBE
:100E20002C2B0020302B00201CE80400D4E9040007
:100E3000CC2D0020682C0020F0E9040010EA04000A
:100E40002CEA0400049BD91CBDF80E30033B1A4663
:100E50001AAB18462DF00BF8BDF876300A2B03D0EC
:100E6000BDF876300B2B4BD1BDF876201346DB0056
:100E70009B1A9B00C44A981803231AAA06CA2CF08E
:100E800066F803461C93C14B1B6803F48043002B98
:100E90002ED0BF4B1B68032B2ADD2F21BD482CF021
:100EA000CCFF0346002B06D02F21BA482CF0C5FFFB
:100EB00003465C1C0EE05C21B6482CF0BEFF0346E6
:100EC000002B06D05C21B3482CF0B7FF03465C1C16
:100ED00000E0B04CFEF754FD02461C9B0193AE4B64
:100EE0000093134640F237222146042014F032FAD0
:100EF000BDF876101CAA0423042003F095F974E1D0
:100F0000BDF876201346DB009B1A9B009E4A98187A
:100F10001AAB93E806002BF047FF03461C939B4B4C
:100F20001B6803F48043002B2ED0994B1B68032BC6
:100F30002ADD2F2197482CF080FF0346002B06D096
:100F40002F2194482CF079FF03465C1C0EE05C21B5
:100F500090482CF072FF0346002B06D05C218D4890
:100F60002CF06BFF03465C1C00E08A4CFEF708FD8A
:100F700002461C9B0193894B0093134640F23D228D
:100F80002146042014F0E6F9BDF876101CAA0423CB
:100F9000042003F049F928E14FF6FF73ADF85E3005
:100FA000BDF8762078491346DB009B1A9B000B4462
:100FB0001B880DF15E021146184621F047FBBDF873
:100FC0005E304FF6FF72934200F00C81BDF85E3048
:100FD00015AA1146184624F03FFDBDF87630704A38
:100FE00032F81300BDF876306E4A32F813301946E5
:100FF00026F0ACF803238DF84C304CF6FF23ADF807
:101000004E305923ADF84A300223ADF84830BDF8D0
:101010005600129B13AA06CA26F00EFA03461C932A
:101020005A4B1B6803F48043002B00F0DB80584BC5
:101030001B68032B40F3D6802F2156482CF0FDFE71
:101040000346002B06D02F2152482CF0F6FE034613
:101050005C1C0EE05C214F482CF0EFFE0346002B99
:1010600006D05C214B482CF0E8FE03465C1C00E0F7
:10107000484CFEF785FC02461C9B01934A4B0093AB
:1010800013464FF415722146042014F063F900BF93
:10109000A8E04FF6FF73ADF83E30BDF876203A4930
:1010A0001346DB009B1A9B000B441B880DF13E028C
:1010B0001146184621F0CAFABDF83E304FF6FF72CD
:1010C000934200F09180BDF83E300DAA11461846BB
:1010D00024F0C2FCBDF87630314A32F81300BDF876
:1010E0007630304A32F81330194626F02FF80323B1
:1010F0008DF82C304CF6FF23ADF82E305923ADF887
:101100002A300223ADF82830BDF836000A9B0BAA1E
:1011100006CA26F0C4F903461C931C4B1B6803F453
:101120008043002B60D01A4B1B68032B5CDD2F2102
:1011300018482CF082FE0346002B06D02F211548BC
:101140002CF07BFE03465C1C0EE05C2111482CF069
:1011500074FE0346002B06D05C210E482CF06DFE79
:1011600003465C1C00E00B4CFEF70AFC02461C9B8D
:1011700001930E4B0093134640F26A22214604204D
:1011800014F0E8F800BF2FE0682C00202C2B002082
:10119000302B00201CE804004CEA040074EA040030
:1011A0003C2C0020502C002090EA0400BCEA0400F3
:1011B0000F4A00210F480CF0D5FA0F4B00224FF4D4
:1011C000203118460CF0FEFA012001F0C5FB0CE0BE
:1011D000049B03331B78184601F00CFD00BF04E0AC
:1011E00000BF02E000BF00E000BF00BF1EB010BDA6
:1011F000D50A020038E70400D82D002070B58AB067
:10120000079006910592059B0993099B5B68184618
:101210000EF01EFE0546099B1B881E46099B9C6816
:10122000099B9B6818460FF0DBF9034618460EF041
:101230000FFE03460393029401960095069B079ABE
:10124000074901200EF05FFE0520FEF777FB059AA7
:10125000069907980BF0EEFA00BF0AB070BD00BF08
:10126000E8EA040000B587B0F1EE103A0193019B63
:1012700023F09F030293029BE1EE103AF1EE103A45
:1012800003932620FEF76CFAFEF798FA0590059B6B
:101290000493049B002B05D0044A40F2AF2104982C
:1012A0000BF0B0FA00BF07B05DF804FB1CE80400C7
:1012B00000B583B00190019B1B78012B09D0022B54
:1012C00010D0002B14D10C4903200EF0C7FD00BF35
:1012D0000EE00A4903200EF0C1FD0520FEF72EFBAB
:1012E000FEF75AFA064903200EF0B8FDFEF754FA4D
:1012F00000BF03B05DF804FB40EB040068EB0400A2
:1013000094EB040000B58DB00F2000F0DDF90B90D8
:101310000B9B0A930A9B002B05D0234A4FF436718E
:101320000A980BF06FFA214B079307AB18462CF085
:1013300029F80B900B9B0993099B002B05D01A4AA7
:1013400040F2DD2109980BF05DFA184B0693174B1C
:1013500005931749174802F0A1FF174B0293154B4D
:1013600003930523049302AB184601F0F1F90B90A7
:101370000B9B0893089B002B05D00B4A40F2EF21F2
:1013800008980BF03FFA0D4A6B4692E8030018608C
:10139000043319706B46002118462BF0ADFE00BFD8
:1013A0000DB05DF804FB00BF1CE8040010E704006A
:1013B000E90A0200102C0020B1120200B8EB040070
:1013C00000B587B003460A468DF8073013468DF8FE
:1013D00006309DF80630012B06D11B4B1B7883F09D
:1013E0000103DAB2184B1A7004AB00221A601A71AA
:1013F00001238DF81030FF238DF81130FF238DF875
:101400001230FF238DF8133002AB00221A601A71DC
:1014100001238DF808309DF807300B2B10D10A4BB3
:101420001B78012B06D1032304AA06CA07482BF018
:101430008EFD05E0032302AA06CA04482BF087FDAF
:1014400000BF07B05DF804FB182E0020802D00209F
:1014500000B585B009F042FC034683F00103DBB21E
:10146000002B13D009F0F2FB0390039B002B0DD04F
:1014700016480EF0EDFC0246039B009340F21D332C
:10148000134902200EF026FD039B1AE040F266622B
:10149000012110480BF022F90390039B002B0DD083
:1014A0000A480EF0D5FC0246039B009340F2293314
:1014B000074902200EF00EFD039B02E00BF080F9BD
:1014C0000346184605B05DF804FB00BF1CE80400A5
:1014D000C0EB040088EC040000B585B00C4B019310
:1014E00001AB184600F0E4FB0390039B0293029BC0
:1014F000002B05D0074A40F24E3102980BF082F9DA
:101500006420FEF71BFA00BF05B05DF804FB00BFC6
:1015100090EC04001CE8040000B589B000200EF037
:1015200047FC0690404903200EF098FC03210B2055
:10153000FEF780F9069B0593059B002B05D03B4ADF
:1015400040F25E3105980BF05DF90B20FEF788F94B
:101550000346002B25D104238DF81330FEF7FDF947
:101560000346A3F5E0430393FEF7F7F903461A4653
:101570009DF813301B03D31AA3F5E043079306E04D
:1015800007980AF0C9FF079B03F580530793039A56
:10159000079B9A42F4D2264903200EF05FFCFEF727
:1015A000FBF8244A04214FF4C04013F0BDFE224A48
:1015B0003C2108200BF0E2F90290029B0193019B71
:1015C000002B05D0194A4FF45C7101980BF01AF901
:1015D0000CF094F80690069B0093009B002B05D01E
:1015E000124A40F2723100980BF00CF9FFF774FFC9
:1015F000FFF788FEFFF72CFFFEF730FC0F4A0121B2
:101600000F480CF0AFF80F4B00224FF42031184672
:101610000CF0D8F82AF08CFEFEF770FE0BF074FA8E
:10162000FFF720FEFAE700BF04EC04001CE804000A
:1016300048EC0400ED5203001C2E002049FC010080
:1016400074EC0400F82D002000B587B003900291DF
:10165000019200930CF0DCFB03468DF81730164B1B
:101660001B789DF817209A4208D29DF817301A4629
:10167000124901200EF003FC0F2318E0009B019A91
:101680000299039809F0BCFF0490049B002B0DD035
:101690000B4B1B6801330A4A1360094B1B681A463F
:1016A000084901200EF0EBFB049B00E000231846E4
:1016B00007B05DF804FB00BF1C2B0020ACEC04005D
:1016C000EC31002004ED040082B003468DF80730B1
:1016D000054A9DF807301370044B00221A6000235E
:1016E000184602B0704700BF1C2B0020EC310020D0
:1016F00012DF704700BF18466DDF704700BF184605
:1017000084B00190244B0393019B002B40D0234BCA
:101710001A680399019B00BF00BF00BF00BF00BF54
:1017200000BF00BF00BF8A422FD000BF00BF00BF74
:1017300000BF00BF00BF00BF00BF00BF00BF00BFB1
:1017400000BF00BF00BF00BF00BF00BF00BF00BFA1
:1017500000BF00BF00BF00BF00BF00BF00BF00BF91
:1017600000BF00BF00BF00BF00BF00BF00BF00BF81
:1017700000BF00BF00BF00BF00BF00BF00BF00BF71
:1017800000BF00BF00BF00BF00BF013BC3D101933A
:1017900000BF04B0704700BF0024F400182B0020E5
:1017A00000B583B00190019B4FF47A7202FB03F302
:1017B0001846FFF7A5FF00BF03B05DF804FB82B039
:1017C00001904FF0A043184602B0704700B585B0B5
:1017D0000190084611461A4603468DF803300B4621
:1017E0008DF8023013468DF8013001AB1846FFF733
:1017F000E6FF03909DF803209DF802305B001A433A
:101800009DF801309B001A439DF818301B0242EAF4
:1018100003019DF81C301B04019A1943039B02F538
:10182000E07243F8221000BF05B05DF804FB00B57C
:1018300085B003900023019300230093002301222D
:1018400001210398FFF7C2FF00BF05B05DF804FB5C
:1018500000B585B0019001AB1846FFF7B0FF0390CB
:10186000019B012202FA03F31946039800F018F8CD
:1018700000BF05B05DF804FB00B585B0019001AB79
:101880001846FFF79CFF0390019B012202FA03F325
:101890001946039800F00EF800BF05B05DF804FB90
:1018A00082B001900091019B009AC3F8082500BF07
:1018B00002B0704782B001900091019B009AC3F87A
:1018C0000C2500BF02B0704700B58FB003900DF13A
:1018D0002F031846FFF70CFF0C900C9B002B0CD02D
:1018E00033480EF0B5FA02460C9B00933A23314977
:1018F00002200EF0EFFA0C9B55E09DF82F30002BE4
:1019000001D102234FE00AAB1846FFF7F5FE0C9019
:101910000C9B002B0CD026480EF09AFA02460C9B2A
:1019200000934323234902200EF0D4FA0C9B3AE0A3
:1019300005AB00221A605A609A60DA601A820623A8
:101940008DF8373025E09DF83730062B0AD005ABEF
:1019500018462CF00AFB024605AB134416491846FC
:101960002CF025FA05AB18462CF0FFFA024605AB21
:1019700098189DF83730013B0EAA134413F80F3C1A
:101980001A460E492CF013FA9DF83730013B8DF8BA
:1019900037309DF83730002BD5D105AB1946039869
:1019A0002CF0C1FA002318460FB05DF804FB00BF0D
:1019B00044ED040090ED0400E4ED0400E8ED0400C3
:1019C00030B589B003AB83E8060003468DF81730C5
:1019D0009DF817009DF80C109DF80D409DF80E50D5
:1019E0009DF80F309DF81020019200932B4622465F
:1019F00005F06AFF0790079B002B0CD008480EF0FB
:101A000027FA0246079B00936923064902200EF03D
:101A100061FA079B00E00023184609B030BD00BF03
:101A200044ED040090ED040030B587B003AB83E8CB
:101A3000060003468DF817309DF817301E2B33D063
:101A40009DF817009DF80C109DF80D409DF80E5064
:101A50009DF80F309DF81020019200932B462246EE
:101A6000FFF7B4FE9DF81130012B09D0022B1AD0DC
:101A7000002B0BD19DF817301846FFF7FDFE13E041
:101A80009DF817301846FFF7E3FE0DE008480EF00A
:101A9000DFF90246062300938B23064902200EF04D
:101AA00019FA062301E000BF0023184607B030BD35
:101AB00044ED040090ED040000B59FB003468DF89E
:101AC0000F3004AB6022002118462CF0F9F90123F5
:101AD0008DF8283002238DF82D3001238DF8333016
:101AE00001238DF8393001238DF83F3001238DF823
:101AF000523001238DF8543002238DF857300123E2
:101B00008DF8583001238DF85A3002238DF85D305E
:101B100001238DF8633001238DF8693001238DF89E
:101B20006F309DF80F30002B3DD00023ADF876309C
:101B300000238DF875301CE09DF8752013465B007E
:101B400013445B001EAA1344633B1B78012B0BD18B
:101B50009DF87530012202FA03F31AB2BDF976300E
:101B600013431BB2ADF876309DF8753001338DF814
:101B700075309DF875300F2BDED9BDF876301846DC
:101B800006F0E6F81C901C9B002B0CD022480EF0AF
:101B90005FF902461C9B0093AC23204902200EF003
:101BA00099F91C9B33E000238DF874302AE09DF8EE
:101BB000742013465B0013445B001EAA1344683B69
:101BC0009DF874001A68002111469A88002362F378
:101BD0000F031A46FFF7F4FE1C901C9B002B0CD041
:101BE0000D480EF035F902461C9B0093B2230B49B9
:101BF00002200EF06FF91C9B09E09DF87430013350
:101C00008DF874309DF874300F2BD0D9002318460E
:101C10001FB05DF804FB00BF44ED040090ED04002C
:101C200000B5B5B01F4A02AB1146C02218462CF0D1
:101C30001EF900238DF8CF302AE09DF8CF201346FF
:101C40005B0013445B0034AA1344C83B9DF8CF00EB
:101C50001A68002111469A88002362F30F031A467E
:101C6000FFF7E2FE3290329B002B0CD00E480EF0B4
:101C7000EFF80246329B0093C5230C4902200EF078
:101C800029F9329B09E09DF8CF3001338DF8CF3030
:101C90009DF8CF301F2BD0D90023184635B05DF802
:101CA00004FB00BFF0ED040044ED040090ED0400DF
:101CB00000B587B00390FFF7B3FF0590059B002B9D
:101CC0000CD022480EF0C4F80246059B0093E42392
:101CD0001F4902200EF0FEF8059B32E01E20FFF7A0
:101CE000A6FD1E20FFF7B4FD0520FFF759FD0121D9
:101CF000039806F07DF80590059B002B0CD0134847
:101D00000EF0A6F80246059B0093EB231049022033
:101D10000EF0E0F8059B14E00120FFF7CDFE0590E2
:101D2000059B002B0CD009480EF092F80246059B4B
:101D30000093EE23064902200EF0CCF8059B00E04C
:101D40000023184607B05DF804FB00BF44ED040013
:101D500090ED04007ADF704700BF18467CDF7047C3
:101D600000BF18467FDF704700BF18468FDF7047FF
:101D700000BF1846A9DF704700BF1846ADDF7047A7
:101D800000BF184669DF704700BF184666DF70471E
:101D900000BF184631DF704700BF18463DDF70476F
:101DA00000BF184684B00190244B0393019B002B85
:101DB00040D0234B1A680399019B00BF00BF00BFAE
:101DC00000BF00BF00BF00BF00BF8A422FD000BFCE
:101DD00000BF00BF00BF00BF00BF00BF00BF00BF0B
:101DE00000BF00BF00BF00BF00BF00BF00BF00BFFB
:101DF00000BF00BF00BF00BF00BF00BF00BF00BFEB
:101E000000BF00BF00BF00BF00BF00BF00BF00BFDA
:101E100000BF00BF00BF00BF00BF00BF00BF00BFCA
:101E200000BF00BF00BF00BF00BF00BF00BF013B3D
:101E3000C3D1019300BF04B0704700BF0024F40079
:101E4000182B002000B583B00190019B4FF47A72EB
:101E500002FB03F31846FFF7A5FF00BF03B05DF8D0
:101E600004FB000000B583B001900091009B1B783B
:101E7000012B09D0022B02D0002B0AD00EE00C4916
:101E800003200DF0EBFF0EE00A4903200DF0E6FF02
:101E900009E0094903200DF0E1FF04E007490220B1
:101EA0000DF0DCFF00BF00BF03B05DF804FB00BF16
:101EB00068EF0400A8EF0400E4EF040024F004003D
:101EC00000B587B09DF804306FF303038DF804303C
:101ED0009DF804306FF307138DF804301B482CF085
:101EE00044F803469AB201AB18491846FFF736FF8B
:101EF0000590059B0493049B002B04D0144A8A216F
:101F000004980AF07FFC02AB0822002118462BF04F
:101F1000D7FF4623ADF808309623ADF80A300023EA
:101F2000ADF80C304FF4A073ADF80E3002AB18468C
:101F3000FFF710FF0590059B002B01D0059B00E0EB
:101F40000023184607B05DF804FB00BF60F00400F2
:101F50006CF0040000B583B00190019B1B78002B4E
:101F600004D1084901200DF079FF07E0019B1B789F
:101F7000012B03D1044903200DF070FF00BF03B013
:101F80005DF804FBD0F0040020F1040000B583B03C
:101F90000190019A064901200DF071FF054AC52103
:101FA00001980AF02FFC00BF03B05DF804FB00BFEE
:101FB0006CF104006CF0040000B58BB002AB1C2285
:101FC000002118462BF07CFF6B46082200211846A2
:101FD0002BF076FF4623ADF800309623ADF80230A3
:101FE0000023ADF804304FF4A073ADF806306B4613
:101FF00002934FF4004303934FF47023049303239D
:102000008DF814300023ADF8163000238DF8183009
:10201000094B0793094B089302AB184607F0F2FDF2
:102020000990099B002B01D0099B00E00023184672
:102030000BB05DF804FB00BF551F02008D1F0200AE
:1020400000B589B003468DF807309DF80730002BA6
:1020500006D0032B20D1144903200DF0FFFE1EE013
:10206000124903200DF0FAFE02238DF80C30104BBC
:102070001B6803AA10469847032007F00FFC07903F
:10208000079B0693069B002B08D00A4A40F20311D7
:1020900006980AF0B7FB01E000BF00E000BF00BFF8
:1020A00009B05DF804FB00BFA8F10400E0F10400F2
:1020B000F03100206CF0040000B58FB00190019B5E
:1020C0001B88013B542B00F24B8101A252F823F0F4
:1020D000AF2202006123020061230200612302009B
:1020E00061230200612302006123020061230200D8
:1020F00061230200612302006123020061230200C8
:1021000061230200612302006123020025220200F4
:1021100047220200612302005F22020061230200C5
:102120006123020061230200612302006123020097
:102130006123020061230200612302006123020087
:102140006123020061230200612302006123020077
:102150001B230200572302006123020061230200B7
:102160006123020061230200612302006123020057
:102170006123020061230200612302006123020047
:102180006123020061230200612302006123020037
:102190006123020061230200612302006123020027
:1021A0006123020061230200612302006123020017
:1021B000612302000B23020061230200612302005D
:1021C00061230200612302006123020061230200F7
:1021D00061230200612302006123020061230200E7
:1021E00061230200612302006123020061230200D7
:1021F00061230200612302006123020061230200C7
:1022000061230200612302006123020061230200B6
:102210006123020087220200612302006123020081
:10222000D5220200564903200DF018FE019B9A8822
:10223000544B1A8000238DF81430534B1B6805AAA9
:102240001046984797E0019B1B7A1A464F49032096
:102250000DF015FE4B4B4FF6FF721A808BE0494B89
:102260001888002300228521FFF77CFD0D900D9B2F
:102270000C930C9B002B75D0454A4FF494710C982D
:102280000AF0C0FA6EE03F4B1888002300220021BC
:10229000FFF770FD0D900D9B0B930B9B002B63D0F4
:1022A0003B4A4FF497710B980AF0ACFA5CE0354B5F
:1022B0001B8800211846FFF769FD0D900D9B0A93BE
:1022C0000A9B002B52D0324A40F233110A980AF08E
:1022D00099FA4BE0019BDB881A462E4903200DF04A
:1022E000CEFD019B9B884FF48A711846FFF746FD8F
:1022F0000D900D9B0993099B002B39D0244A4FF474
:102300009D7109980AF07EFA32E0019B5B891A46BA
:10231000214903200DF0B3FD2DE003AB082200217D
:1023200018462BF0CDFD1D4903200DF097FD019BB4
:102330009B8803A900221846FFF718FD0D900D9BFE
:102340000893089B002B15D0114A4FF4A5710898EB
:102350000AF058FA0EE0124903200DF07FFD0AE062
:1023600000BF08E000BF06E000BF04E000BF02E0DD
:1023700000BF00E000BF00BF0FB05DF804FB00BF6E
:1023800018F204001E2B0020F031002054F204004B
:102390006CF00400A4F20400F4F2040040F3040022
:1023A00090F3040000B585B00190019807F016FE87
:1023B000019807F059FD0023039312E0124B1A68AD
:1023C000039BDB0013445B68002B07D00E4B1A689D
:1023D000039BDB0013445B6801989847039B013320
:1023E00003930A4B1B68039A9A42E7D30199084862
:1023F0000DF073F90198FFF75FFE019807F038FBC5
:1024000000BF05B05DF804FBF4310020F831002076
:102410001432002000B583B00190019807F044FB0E
:1024200000BF03B05DF804FB00B58FB06D4B1B68B7
:10243000049304A86C4B4FF4A6726C490DF0B0FBEA
:102440000D900D9B0C930C9B002B05D0684A4FF40C
:10245000C7710C980AF0D6F90023039303AB184612
:102460000DF062FC0B900B9B0A930A9B002B05D08E
:102470005F4A4FF4C9710A980AF0C4F96B460C22FE
:10248000002118462BF01CFD01238DF80030039A23
:102490006B4619464020FFF775FC0B900B9B099388
:1024A000099B002B05D0524A40F2991109980AF075
:1024B000A9F96B460C22002118462BF001FD9DF86E
:1024C000003043F001038DF80030039A6B46194643
:1024D000A020FFF757FC0B900B9B0893089B002B49
:1024E00005D0434A4FF4CF7108980AF08BF96B4638
:1024F0000C22002118462BF0E3FC01238DF800305C
:102500004FF48A73ADF80230039A6B4619462320C4
:10251000FFF738FC0B900B9B0793079B002B05D014
:10252000334A40F2A51107980AF06CF96B460C2269
:10253000002118462BF0C4FC01238DF800304FF425
:10254000A073ADF8043001238DF80230039A6B4676
:1025500019462020FFF716FC0B900B9B0693069B59
:10256000002B05D0224A40F2AD1106980AF04AF934
:1025700003AB18460DF0E8FB0B900B9B0593059BF6
:10258000002B05D01A4A4FF4D97105980AF03AF990
:1025900018480DF071FB0B900B9B002B01D00B9B8F
:1025A0001BE015480DF078FB0B900B9B002B01D026
:1025B0000B9B12E00120FFF7EDFB0B900B9B002B18
:1025C00001D00B9B09E00120FFF7E8FB0B900B9B70
:1025D000002B01D00B9B00E0002318460FB05DF8E4
:1025E00004FB00BFD8F30400A9F702002C3200203E
:1025F0006CF00400A52302001524020000B5ABB066
:102600001AAB3C22002118462BF05AFC02238DF80D
:10261000683000238DF86A3006238DF86B3003ABE9
:102620002022002118462BF04BFC01238DF80F309F
:102630004FF4BE730793002308930BAB3C22002199
:1026400018462BF03DFC0123ADF83C30114B1093A4
:1026500003AA0BA91AA8002300930F4B07F01AF83E
:102660002990299B002B0DD00C480DF0F1FB024660
:10267000299B009340F2ED13094902200DF02AFC3A
:10268000299B03E0012006F0F7FF002318462BB03A
:102690005DF804FB202B0020412002006CF00400B8
:1026A000DCF3040000B589B00190009104AB042272
:1026B000002118462BF004FC0023079318E0079B29
:1026C000DB00019A13441B68002B0ED0079BDB0034
:1026D000019A13441B681A4A1278104698470690CC
:1026E000069B002B01D0069B26E0079B0133079336
:1026F000079A009B9A42E2D302AB082200211846B7
:102700002BF0DEFB0F4B029301238DF80C300123DD
:102710008DF80D3002AB19460B480CF053FE0690B5
:10272000069B0593059B002B05D0084A40F21B2110
:1027300005980AF067F80023184609B05DF804FB15
:10274000FC310020651E0200143200206CF00400F1
:1027500000B585B00190019B1B68454A1360019B41
:102760005B68444A1360019B9B68434A1360FFF710
:102770005BFE0390039B002B06D0039A3F49012088
:102780000DF07DFB039B6EE03D4BD3F888303C4A57
:1027900043F47003C2F88830BFF34F8FBFF36F8FDD
:1027A000FFF78EFB0390039B002B06D0039A35495D
:1027B00001200DF064FB039B55E02E4B1A682E4B55
:1027C0001B6819461046FFF76DFF0390039B002B13
:1027D00006D0039A2C4901200DF051FB039B42E0E7
:1027E000FFF70CFF0390039B002B06D0039A2749A9
:1027F00001200DF044FB039B35E0FFF7DDFB039068
:10280000039B002B06D0039A214901200DF037FBD2
:10281000039B28E0032007F041F80390039B002B63
:1028200006D0039A1B4901200DF029FB039B1AE0F7
:102830001948FFF749F80390039B002B06D0039A31
:10284000164901200DF01BFB039B0CE012480DF014
:10285000FFFA03461A46124913200DF010FB0A2016
:10286000FFF7F0FA0023184605B05DF804FB00BF3F
:10287000F0310020F4310020F831002030F4040061
:1028800000ED00E06CF40400A8F40400F4F404008B
:1028900030F504006CF5040000320020ACF50400B3
:1028A000E8F50400024BD3F804351846704700BF22
:1028B00000B0004010B584B003468DF80F309DF88D
:1028C0000F30002B14BF01230023DAB21D4B1A7006
:1028D0001C4B1B78002B31D01B4B1B6803F480432F
:1028E000002B2BD0194B1B68012B27DD2F211848FB
:1028F0002BF0A3FA0346002B06D02F2114482BF00F
:102900009CFA03465C1C0EE05C2111482BF095FA02
:102910000346002B06D05C210D482BF08EFA0346AF
:102920005C1C00E00A4CFFF7BDFF0246094B009318
:1029300013466C222146022012F00CFD00BF04B0A9
:1029400010BD00BF242B00202C2B0020302B00209A
:10295000FCF5040064F60400B0B58CB004AF034687
:10296000FB715E4B1B78002B00F0B080FB7983F08D
:102970000103DBB2002B00F0A980584B00221A7033
:102980000023FB769CE0564B1B6803F48043002B2E
:1029900000F08A80534B1B68012B40F385806B4607
:1029A0001D4610237B617B695B00581C0346013B7D
:1029B0003B6101464FF000024FF000034FF000046E
:1029C000D40044EA5174CB0001464FF000024FF0AE
:1029D00000034FF00004D40044EA5174CB00C31D3F
:1029E000DB08DB00ADEB030D04AB0033FB60002321
:1029F000FB6123E0FB7E3C4A1B011A44FB69134444
:102A00001B78FB72394B1A68FB7A1B09DBB203F0A7
:102A10000F031A44FB695B001178FA68D154334BF9
:102A20001A68FB7A03F00F031A44FB695B00013359
:102A30001178FA68D154FB690133FB61FA697B694B
:102A40009A42D7D37B695B00FA680021D1542F21C9
:102A500027482BF0F2F90346002B06D02F212448FB
:102A60002BF0EBF903465C1C0EE05C2120482BF0B8
:102A7000E4F90346002B06D05C211D482BF0DDF95C
:102A800003465C1C00E01A4CFFF70CFF0246FB6893
:102A90000293184B0193184B00931346772221465B
:102AA000022012F057FCAD46F97EFB7E1B010E4A58
:102AB0001A441023002001F0B7FBFB7E0133FB76A4
:102AC0000E4B1B78FA7E9A42FFF45DAF034AFB7906
:102AD000137000BF2037BD46B0BD00BF7833002063
:102AE0002C2B0020302B00207C330020282B0020B2
:102AF000FCF5040080F6040088F604001C34002075
:102B000008B5A022002104482BF0DAF9034B00227B
:102B10001A7000BF08BD00BF7C3300201C340020A9
:102B200000B58BB001905F238DF808305F238DF8DE
:102B300009306E238DF80A306F238DF80B30722325
:102B40008DF80C3064238DF80D3069238DF80E302C
:102B500063238DF80F305F238DF810305F238DF8DD
:102B6000113073238DF8123065238DF813306D23E7
:102B70008DF8143069238DF815305F238DF81630E9
:102B80005F238DF817300023ADF818300023ADF81F
:102B90001A300023ADF81C30124B1B88ADF81E30E4
:102BA0009DF820306FF300038DF820309DF8203021
:102BB0006FF341038DF8203002AA002301990A48DF
:102BC00024F037FE0990099B002B04D0074A91217D
:102BD000099809F017FE064B02221A7000BF0BB0CD
:102BE0005DF804FB7237002040360020FCF504003D
:102BF00070370020B0B58CB004AF0346FB71854B35
:102C00001B78FA799A4234D9834B1B6803F48043CA
:102C1000002B00F0FA80814B1B68012B40F3F580FC
:102C20002F217F482BF009F90346002B06D02F21D6
:102C30007B482BF002F903465C1C0EE05C217848CF
:102C40002BF0FBF80346002B06D05C2174482BF0D8
:102C5000F4F803465C1C00E0714CFFF723FE0246CB
:102C6000704B0093134698222146022012F072FB0B
:102C7000CBE0694B1B6803F48043002B00F08A8093
:102C8000664B1B68012B40F385806B461D46102365
:102C9000BB61BB695B00581C0346013B7B6101467D
:102CA0004FF000024FF000034FF00004D40044EA5C
:102CB0005174CB0001464FF000024FF000034FF07B
:102CC0000004D40044EA5174CB00C31DDB08DB00D0
:102CD000ADEB030D04AB00333B610023FB6123E04C
:102CE000FB79514A1B011A44FB6913441B78FB739F
:102CF0004E4B1A68FB7B1B09DBB203F00F031A442F
:102D0000FB695B0011783A69D154484B1A68FB7B28
:102D100003F00F031A44FB695B00013311783A6931
:102D2000D154FB690133FB61FA69BB699A42D7D37D
:102D3000BB695B003A690021D1542F2138482BF040
:102D40007CF80346002B06D02F2135482BF075F870
:102D500003465C1C0EE05C2131482BF06EF8034604
:102D6000002B06D05C212E482BF067F803465C1C34
:102D700000E02B4CFFF796FD02463B6902932C4B7B
:102D800001932C4B009313469C222146022012F003
:102D9000E1FAAD46FB791B01234A1344184600F0C3
:102DA0004DF8FFF7ADFE1C4B1B6803F48043002B6E
:102DB0002BD01A4B1B68012B27DD2F2118482BF035
:102DC0003CF80346002B06D02F2115482BF035F890
:102DD00003465C1C0EE05C2111482BF02EF80346E4
:102DE000002B06D05C210E482BF027F803465C1C14
:102DF00000E00B4CFFF756FD02460F4B00931346C5
:102E00009F222146022012F0A5FA00BF2037BD46BE
:102E1000B0BD00BF1C3400202C2B0020302B002024
:102E2000FCF5040090F604007C330020282B0020E1
:102E3000A8F6040088F60400C8F60400B0B58CB00B
:102E400004AF78604B4B1B6803F48043002B00F009
:102E50008780494B1B68032B40F382806B461D46DD
:102E60001023BB61BB695B00581C0346013B7B61BF
:102E700001464FF000024FF000034FF00004D40071
:102E800044EA5174CB0001464FF000024FF00003BA
:102E90004FF00004D40044EA5174CB00C31DDB089A
:102EA000DB00ADEB030D04AB00333B610023FB61A2
:102EB00020E07A68FB6913441B78FB732F4B1A6878
:102EC000FB7B1B09DBB203F00F031A44FB695B00B9
:102ED00011783A69D154294B1A68FB7B03F00F0330
:102EE0001A44FB695B00013311783A69D154FB69DC
:102EF0000133FB61FA69BB699A42DAD3BB695B00B3
:102F00003A690021D1542F211D482AF096FF03462B
:102F1000002B06D02F211A482AF08FFF03465C1C95
:102F20000EE05C2116482AF088FF0346002B06D0ED
:102F30005C2113482AF081FF03465C1C00E0104C22
:102F4000FFF7B0FC02463B6902930E4B01930E4B18
:102F500000931346A5222146042012F0FBF9AD464A
:102F60007868FFF7DDFD094B02221A7000BF203799
:102F7000BD46B0BD2C2B0020302B0020282B00207C
:102F8000FCF50400D8F6040088F604007037002031
:102F900010B5A2B0A14B1B78033B072B00F2BA82FD
:102FA00001A252F823F000BFC92F0200CF2F020068
:102FB0004D300200DF3002007F3102004532020056
:102FC0004B33020057340200944B04221A70944B86
:102FD0001B6803F48043002B2BD0924B1B68032B00
:102FE00027DD2F2190482AF028FF0346002B06D02A
:102FF0002F218D482AF021FF03465C1C0EE05C2146
:1030000089482AF01AFF0346002B06D05C21864827
:103010002AF013FF03465C1C00E0834CFFF742FCE0
:103020000246824B00931346B5222146042012F03B
:1030300091F924F033F92190219B002B00F0778245
:10304000794AB621219809F0DDFB70E2744B1B68C8
:1030500003F48043002B2BD0724B1B68032B27DD1E
:103060002F2171482AF0E9FE0346002B06D02F21BC
:103070006D482AF0E2FE03465C1C0EE05C216A48C3
:103080002AF0DBFE0346002B06D05C2166482AF0BE
:10309000D4FE03465C1C00E0634CFFF703FC0246D1
:1030A000634B00931346BD222146042012F052F9CF
:1030B000604B13AC0FCB84E80F0013AB1A46002112
:1030C000002024F02FF92090209B002B00F031826B
:1030D000554ABF21209809F095FB00BF29E2504BCB
:1030E0001B6803F48043002B2BD04E4B1B68032B33
:1030F00027DD2F214C482AF0A0FE0346002B06D0E6
:103100002F2149482AF099FE03465C1C0EE05C2101
:1031100045482AF092FE0346002B06D05C21424827
:103120002AF08BFE03465C1C00E03F4CFFF7BAFB25
:103130000246414B00931346C6222146042012F05A
:1031400009F94FF6FF73ADF84A300223ADF8483065
:103150003A4B1B88ADF87E30BDF87E30129A0021C4
:10316000184624F0CFF91E901E9B002B00F0E3813F
:103170002D4ACB211E9809F045FB00BFDBE1284B0F
:103180001B6803F48043002B2BD0264B1B68032BBA
:1031900027DD2F2124482AF050FE0346002B06D0BD
:1031A0002F2121482AF049FE03465C1C0EE05C21D9
:1031B0001D482AF042FE0346002B06D05C211A4827
:1031C0002AF03BFE03465C1C00E0174CFFF76AFB4D
:1031D00002461B4B00931346D2222146042012F0D4
:1031E000B9F85923ADF846300223ADF84430134BFB
:1031F0001B88ADF87630BDF87630119A002118465C
:1032000024F080F91C901C9B002B00F09681064A4C
:10321000D7211C9809F0F6FA00BF8EE17037002024
:103220002C2B0020302B0020FCF50400F0F60400CD
:103230000CF7040004F804001CF7040072370020A7
:1032400040F704000BAB00221A605A609A60DA6003
:103250001A615A61BE4B1B88ADF82C3001238DF8E2
:1032600030300123ADF832300023ADF83830002380
:103270008DF83A300A238DF83B309DF83C3001221E
:1032800062F387038DF83C309DF83C3043F0030334
:103290008DF83C3001238DF83D3000238DF83E3011
:1032A0004FF0FF338DF841304FF0FF338DF842304F
:1032B000002343F002038DF83F3000238DF84030A7
:1032C000A44B1B6803F48043002B2ED0A24B1B6839
:1032D000032B2ADD2F21A1482AF0AFFD0346002B46
:1032E00006D02F219D482AF0A8FD03465C1C0EE065
:1032F0005C219A482AF0A1FD0346002B06D05C21F0
:1033000096482AF09AFD03465C1C00E0934CFFF7B8
:10331000C9FA0246BDF832300193914B009313462F
:10332000EB222146042012F015F80BAB184624F0CE
:103330005FF81B901B9B002B00F00181874AED2159
:103340001B9809F05FFA00BFF9E005AB00221A6094
:103350005A609A60DA601A615A617D4B1B88ADF839
:10336000143001238DF81830794B1B88FF3B9BB23A
:10337000ADF81A300023ADF8203000238DF822304C
:103380000A238DF823309DF824306FF387038DF8DE
:1033900024309DF824306FF301038DF8243001238D
:1033A0008DF8253000238DF82630002343F0590393
:1033B0008DF8293000238DF82A30002343F00203D2
:1033C0008DF8273000238DF82830624B1B6803F4FA
:1033D0008043002B2FD0604B1B68032B2BDD2F214C
:1033E0005E482AF02AFD0346002B06D02F215B48B9
:1033F0002AF023FD03465C1C0EE05C2157482AF0AE
:103400001CFD0346002B06D05C2154482AF015FD14
:1034100003465C1C00E0514CFFF744FA0246BDF83D
:103420001A3001934F4B0093134640F2011221468C
:10343000042011F08FFF05AB184623F0D9FF1A9036
:103440001A9B002B7DD0454A40F203111A9809F0CF
:10345000D9F900BF75E03F4B1B6803F48043002B94
:103460002CD03D4B1B68032B28DD2F213B482AF035
:10347000E4FC0346002B06D02F2138482AF0DDFC5F
:1034800003465C1C0EE05C2134482AF0D6FC03465F
:10349000002B06D05C2131482AF0CFFC03465C1C8F
:1034A00000E02E4CFFF7FEF902462F4B0093134627
:1034B0004FF485722146042011F04CFF244B1B88E9
:1034C000ADF8663000238DF80C300023ADF80E30D7
:1034D0000023049303238DF80C304CF6FE23ADF843
:1034E0000E305923ADF80A300223ADF80830BDF88C
:1034F0006600029B03AA06CA23F09EFF1890189B41
:10350000002B20D0154A4FF48971189809F07AF9E8
:1035100000BF18E07B461793144B1B68002B04D0A8
:10352000124B1B68179898470EE000DE0CE000BFB6
:103530000AE000BF08E000BF06E000BF04E000BFF3
:1035400002E000BF00E000BF00BF22B010BD00BF1E
:10355000723700202C2B0020302B0020FCF50400BB
:103560006CF70400ACF70400ECF70400104F0020E7
:10357000B0B592B004AF7860012387F82F30B54B17
:103580001B6803F48043002B00F08880B24B1B685B
:10359000012B40F383806B461D461023BB62BB6A40
:1035A0005B00581C0346013B7B6201464FF0000262
:1035B0004FF000034FF00004D40044EA5174CB00F4
:1035C00001464FF000024FF000034FF00004D4001A
:1035D00044EA5174CB00C31DDB08DB00ADEB030DE7
:1035E00004AB00333B6200233B6320E07A683B6B13
:1035F00013441B78FB77994B1A68FB7F1B09DBB2DE
:1036000003F00F031A443B6B5B0011783A6AD15404
:10361000924B1A68FB7F03F00F031A443B6B5B006D
:10362000013311783A6AD1543B6B01333B633A6BF7
:10363000BB6A9A42DAD3BB6A5B003A6A0021D15472
:103640002F2187482AF0F9FB0346002B06D02F21B3
:1036500083482AF0F2FB03465C1C0EE05C218048A4
:103660002AF0EBFB0346002B06D05C217C482AF0B5
:10367000E4FB03465C1C00E0794CFFF713F90246BB
:103680003B6A0293774B0193774B0093134640F2CA
:1036900023122146022011F05DFEAD46002387F87B
:1036A0002E3014E097F82E301B01704A134410227C
:1036B000796818462AF090FB0346002B02D10023BC
:1036C00087F82F3097F82E30013387F82E3097F88F
:1036D0002E30092BE6D997F82F30002B12D0644BEF
:1036E0001B78082B0ED8624B1B781B015F4A1344D2
:1036F000796818462AF017FC5D4B1B780133DAB263
:103700005B4B1A70002387F82E3097E0514B1B68F3
:1037100003F48043002B00F08C804F4B1B68012B7F
:1037200040F387806B461D461023BB61BB695B007D
:10373000581C0346013B7B6101464FF000024FF0ED
:1037400000034FF00004D40044EA5174CB0001465A
:103750004FF000024FF000034FF00004D40044EAA1
:103760005174CB00C31DDB08DB00ADEB030D04ABD4
:1037700000333B6100237B6324E097F82E303B4A03
:103780001B011A447B6B13441B78FB73334B1A6881
:10379000FB7B1B09DBB203F00F031A447B6B5B005E
:1037A00011783A69D1542D4B1A68FB7B03F00F0353
:1037B0001A447B6B5B00013311783A69D1547B6BFF
:1037C00001337B637A6BBB699A42D6D3BB695B00DA
:1037D0003A690021D1542F2121482AF02EFB0346BB
:1037E000002B06D02F211E482AF027FB03465C1C25
:1037F0000EE05C211A482AF020FB0346002B06D07D
:103800005C2117482AF019FB03465C1C00E0144CAD
:10381000FFF748F802463B690293124B0193124BA3
:103820000093134640F233122146022011F092FD1C
:10383000AD4697F82E30013387F82E300C4B1B78AD
:1038400097F82E209A42FFF461AF00BF1846383730
:10385000BD46B0BD2C2B0020302B0020282B002093
:10386000FCF5040014F8040088F604007C33002002
:103870001C34002010B58AB00390039B1B78082BE2
:1038800000F2FD8101A252F823F000BFB13802001E
:10389000173C0200613902007F3C02007F3C0200BD
:1038A000813B02007F3C02005F3A02004D3A020079
:1038B000A84B1B78012B40F0E481A74B1B78002B11
:1038C00008D0039B04331846FFF72AF9A14B0222C4
:1038D0001A70D6E1A04B1B7883F00103DBB2002BFA
:1038E00000F0CF819D4B1B78002B00F0CA819C4BD0
:1038F0001B6803F48043002B2CD09A4B1B68032BCE
:1039000028DD2F2198482AF098FA0346002B06D08C
:103910002F2195482AF091FA03465C1C0EE05C21A9
:1039200091482AF08AFA0346002B06D05C218E4883
:103930002AF083FA03465C1C00E08B4CFEF7B2FFD2
:1039400002468A4B0093134640F247122146042058
:1039500011F000FD039B04331846FFF709FE90E1C8
:103960007F4B1B6803F48043002B2CD07D4B1B68DE
:10397000032B28DD2F217C482AF05FFA0346002B19
:1039800006D02F2178482AF058FA03465C1C0EE036
:103990005C2175482AF051FA0346002B06D05C21C1
:1039A00071482AF04AFA03465C1C00E06E4CFEF7B0
:1039B00079FF02466E4B009313464FF4A7722146DF
:1039C000042011F0C7FC634B1B78022B36D1644BEB
:1039D0001B6803F48043002B2CD0624B1B68032B25
:1039E00028DD2F2160482AF028FA0346002B06D054
:1039F0002F215D482AF021FA03465C1C0EE05C2171
:103A000059482AF01AFA0346002B06D05C21564882
:103A10002AF013FA03465C1C00E0534CFEF742FF09
:103A20000246544B0093134640F2511221460420A3
:103A300011F090FC474B01221A7024E1454B1B7892
:103A4000032B40F02081FFF7A3FA1CE1414B002239
:103A50001A70039B04331846FCF774FF1AE1039BAA
:103A6000586810230022012123F01BFF0990099BB5
:103A7000002B38D03A4B1B6803F48043002B2ED028
:103A8000384B1B68002B2ADD2F2137482AF0D5F947
:103A90000346002B06D02F2133482AF0CEF90346E7
:103AA0005C1C0EE05C2130482AF0C7F90346002B6D
:103AB00006D05C212C482AF0C0F903465C1C00E0CB
:103AC000294CFEF7EFFE0246099B01932A4B009317
:103AD00013464FF4B4722146012011F03BFC1D4BFC
:103AE00001221A70D1E01E4B1B6803F48043002BA7
:103AF00000F0CB801B4B1B68032B40F3C6802F21AB
:103B000019482AF09AF90346002B06D02F211648AF
:103B10002AF093F903465C1C0EE05C2112482AF05F
:103B20008CF90346002B06D05C210F482AF085F95A
:103B300003465C1C00E00C4CFEF7B4FE02460F4B43
:103B40000093134640F26D122146042011F002FC4E
:103B50009BE000BF70370020242B0020783300202A
:103B60002C2B0020302B0020FCF5040020F8040052
:103B70002CF804004CF8040070F80400B4F80400B9
:103B8000464B04AC0FCB84E80F00039B5B6804A991
:103B90001022184623F0A9FE0890089B002B05D0A0
:103BA0003F4A40F27511089808F02CFE3D4B1B6807
:103BB00003F48043002B6AD03B4B1B68032B66DD6C
:103BC0002F2137482AF039F90346002B06D02F2140
:103BD00033482AF032F903465C1C0EE05C21304881
:103BE0002AF02BF90346002B06D05C212C482AF042
:103BF00024F903465C1C00E0294CFEF753FE024604
:103C00002A4B009313464FF4BB722146042011F057
:103C1000A1FB00BF3BE0234B1B6803F48043002B58
:103C200037D0214B1B68032B33DD2F211C482AF092
:103C300004F90346002B06D02F2119482AF0FDF87D
:103C400003465C1C0EE05C2115482AF0F6F803469A
:103C5000002B06D05C2112482AF0EFF803465C1CCA
:103C600000E00F4CFEF71EFE0246114B0093134678
:103C700040F27B122146042011F06CFB09E000BFEA
:103C800008E000BF06E000BF04E000BF02E000BFA4
:103C900000E000BF00BF0AB010BD00BF24F904005F
:103CA000FCF504002C2B0020302B0020D4F804005D
:103CB000FCF8040000B583B00346ADF806300A4AAC
:103CC000BDF806301380094B1B78022B03D1074B3C
:103CD00003221A7004E0054B03221A70FFF758F90B
:103CE00000BF03B05DF804FB72370020703700207E
:103CF00082B00346ADF80630044ABDF806301380A2
:103D0000034B01221A7000BF02B0704772370020C7
:103D100070370020B0B592B004AF03463960FB7134
:103D20001346BB80FB79002B02D1FCF787FDCAE16B
:103D30003B68002B0BD17B463B639B4B1B68002BE6
:103D400004D0994B1B68386B984700E000DE3B6855
:103D50001B88022B40F09F80944B1B78042B40F073
:103D60009A80934B1B6803F48043002B00F08D80F6
:103D7000904B1B68032B40F388806B461D46BB8825
:103D8000FB62FB6A5B00581C0346013BBB620146B9
:103D90004FF000024FF000034FF00004D40044EA5B
:103DA0005174CB0001464FF000024FF000034FF07A
:103DB0000004D40044EA5174CB00C31DDB08DB00CF
:103DC000ADEB030D04AB00337B6200237B6325E086
:103DD0003B685B681A467B6B13441B7887F823307B
:103DE000754B1A6897F823301B09DBB203F00F03F9
:103DF0001A447B6B5B0011787A6AD1546E4B1A6857
:103E000097F8233003F00F031A447B6B5B000133F8
:103E100011787A6AD1547B6B01337B637A6BFB6ACE
:103E20009A42D5D3FB6A5B007A6A0021D1542F21D4
:103E300062482AF002F80346002B06D02F215F4883
:103E400029F0FBFF03465C1C0EE05C215B4829F077
:103E5000F4FF0346002B06D05C21584829F0EDFF03
:103E600003465C1C00E0554CFEF71CFD02467B6AD5
:103E70000293534B0193534B0093134640F2A51208
:103E80002146042011F066FAAD46484B05221A700F
:103E9000FFF77EF817E13B681B8848F20302934264
:103EA0001FD1424B1B78052B1BD13B685B681B78ED
:103EB000002B10D03B685B681B78062B0BD07B4631
:103EC000FB61394B1B68002B04D0374B1B68F8692A
:103ED000984700E000DE354B06221A70FFF758F8CD
:103EE000F1E03B681B8848F23E0293421AD12F4B07
:103EF0001B78062B16D13B685B681B78002B0BD018
:103F00007B46BB61284B1B68002B04D0264B1B68EB
:103F1000B869984700E000DE244B07221A70FFF7CB
:103F200037F8D0E03B681B8848F23E0293421AD132
:103F30001E4B1B78072B16D13B685B681B78002B48
:103F40000BD07B467B61184B1B68002B04D0164BB3
:103F50001B687869984700E000DE144B08221A704D
:103F6000FFF716F8AFE03B681B8848F2190293424E
:103F70002AD10E4B1B78082B26D13B685B681B7837
:103F8000002B0BD07B463B61074B1B68002B04D0FA
:103F9000054B1B683869984700E000DE034B092297
:103FA0001A70FEF7F5FF8EE0104F002070370020EA
:103FB0002C2B0020302B0020282B0020FCF50400A7
:103FC00034F9040088F604003B681B8848F21902A3
:103FD00093421AD13D4B1B78092B16D13B685B6885
:103FE0001B78002B0BD07B46FB60394B1B68002BEA
:103FF00004D0374B1B68F868984700E000DE334B6D
:104000000A221A70FEF7C4FF5DE03B681B8848F285
:104010001F0293421AD12D4B1B780A2B16D13B68F5
:104020005B681B78002B0BD07B46BB60284B1B6862
:10403000002B04D0264B1B68B868984700E000DED0
:10404000224B00221A70FBF7F5FF3CE03B681B880F
:1040500048F21F02934236D11E4B1B6803F4804383
:10406000002B30D01C4B1B68012B2CDD2F211B4853
:1040700029F0E3FE0346002B06D02F21174829F034
:10408000DCFE03465C1C0EE05C21144829F0D5FEE2
:104090000346002B06D05C21104829F0CEFE0346D3
:1040A0005C1C00E00D4CFEF7FDFB02463B685B68C4
:1040B0001B7801930A4B0093134640F2D712214616
:1040C000022011F047F93837BD46B0BD70370020E7
:1040D000104F00202C2B0020302B0020FCF504007A
:1040E00048F9040000B58BB0274B00221A70274A0C
:1040F00003AB07CA03C31A800233120C1A70244997
:10410000244823F089FB0990099B002B05D0224A03
:104110004FF4F171099808F075FB03AA1F4B009347
:1041200013461B4A1B491E4823F0F6FA0890089BC9
:10413000002B05D0184A40F2E311089808F062FB02
:10414000184825F0BDFA03461946154823F044FBEC
:104150000790079B002B05D00F4A4FF4F271079888
:1041600008F050FB0D4823F0E1FB0690069B002B66
:1041700005D0094A40F2E511069808F043FB00BF5C
:104180000BB05DF804FB00BF7037002060F904003D
:104190006034002020340020FCF504007538020053
:1041A000403600208034002000B583B00190019992
:1041B000034806F039F900BF03B05DF804FB00BF07
:1041C0007437002000B585B003468DF8073002AB88
:1041D00004220021184629F073FE074B1B68029346
:1041E00002AB1946054806F047F9039000BF184690
:1041F00005B05DF804FB00BF903700207437002045
:1042000000B583B001900B46ADF80230BDF8023026
:104210001A460199034806F087F90346184603B089
:104220005DF804FB7437002000B58DB00291019257
:104230001A460346ADF80E3013468DF80D3005AB27
:1042400000221A605A609A60DA601A61C3F813207B
:10425000029B1B0ADBB28DF81430029BDBB28DF897
:104260001530BDF80E30DBB28DF816309DF80D20FC
:1042700005AB03330199184629F0F9FD9DF80D307F
:104280009BB203339AB205AB11461846FFF7B8FF4D
:104290000B900B9B18460DB05DF804FB00B583B086
:1042A00001900091019B002B01D10E230CE00849E5
:1042B00003200BF0D3FD074A009B1360019B064AC5
:1042C0005A60019B054A1A60184603B05DF804FB6A
:1042D0006CF9040090370020A9410200C54102009A
:1042E00082B001904FF0A043184602B0704700B56D
:1042F00085B00190084611461A4603468DF80330F2
:104300000B468DF8023013468DF8013001AB18468C
:10431000FFF7E6FF03909DF803209DF802305B0055
:104320001A439DF801309B001A439DF818301B0278
:1043300042EA03019DF81C301B04019A1943039BB8
:1043400002F5E07243F8221000BF05B05DF804FBEF
:1043500000B585B003900023019300230093002350
:10436000012201210398FFF7C2FF00BF05B05DF8ED
:1043700004FB00B585B0019001AB1846FFF7B0FF14
:104380000390019B012202FA03F31946039800F0FF
:1043900018F800BF05B05DF804FB00B585B00190CA
:1043A00001AB1846FFF79CFF0390019B012202FA24
:1043B00003F31946039800F00EF800BF05B05DF84E
:1043C00004FB82B001900091019B009AC3F808257C
:1043D00000BF02B0704782B001900091019B009A2B
:1043E000C3F80C2500BF02B07047000084B00190F4
:1043F000244B0393019B002B40D0234B1A68039955
:10440000019B00BF00BF00BF00BF00BF00BF00BFD7
:1044100000BF8A422FD000BF00BF00BF00BF00BF57
:1044200000BF00BF00BF00BF00BF00BF00BF00BF94
:1044300000BF00BF00BF00BF00BF00BF00BF00BF84
:1044400000BF00BF00BF00BF00BF00BF00BF00BF74
:1044500000BF00BF00BF00BF00BF00BF00BF00BF64
:1044600000BF00BF00BF00BF00BF00BF00BF00BF54
:1044700000BF00BF00BF013BC3D1019300BF04B028
:10448000704700BF0024F400182B002082B0019078
:10449000064B1A68019BDB0013441B78012B0CBFF1
:1044A00001230023DBB2184602B070479437002086
:1044B00082B00190064B1A68019BDB0013441B7805
:1044C000002B0CBF01230023DBB2184602B070475B
:1044D0009437002082B003468DF807309DF80730EE
:1044E000102B01D9012300E00023184602B07047C9
:1044F00000B585B003900B4601928DF80B30019BFF
:1045000000221A800398FFF7D3FF0346002B0CD03C
:10451000314B1A68039BDB0013445B781A46012376
:1045200093409AB2019B1A8050E00398FFF7AEFFC8
:104530000346002B48D09DF80B3003F00103002BFD
:1045400011D0019B1B881AB2234B1968039BDB0017
:104550000B445B78194601238B401BB213431BB2FB
:104560009AB2019B1A809DF80B3003F00203002BD6
:1045700011D0019B1B881AB2174B1968039BDB00F3
:104580000B449B78194601238B401BB213431BB28B
:104590009AB2019B1A809DF80B3003F00403002BA4
:1045A00014D0019B1B881AB20B4B1968039BDB00CC
:1045B0000B44DB78194601238B401BB213431BB21B
:1045C0009AB2019B1A8001E0012300E00023184603
:1045D00005B05DF804FB00BF9437002082B0019065
:1045E000019B074AA2FB03235A0913469B0013446D
:1045F000DB001A46019B1344184602B0704700BF07
:104600001F85EB5100B587B00346ADF80E30BDF8FD
:104610000E300021184601F0BDFF0590059B002BD0
:104620000CD014480BF014FC0246059B0093C723E2
:10463000114902200BF04EFC059B17E0BDF80E302F
:104640001946002001F0A6FF0590059B002B0CD019
:1046500008480BF0FDFB0246059B0093CA23064960
:1046600002200BF037FC059B00E00023184607B042
:104670005DF804FB84F90400D4F9040000B58BB0A4
:1046800003468DF80730444B1B788DF82730424B9A
:104690001B78002B06D19DF90730B3F1FF3F01D104
:1046A000022374E03C4B1A789DF807301344DAB2C9
:1046B000394B1A70384B1B78012B30D19DF82730BD
:1046C000002B2CD1354B1B68184601F097FD089044
:1046D000089B0793079B002B04D0314AEC210798D5
:1046E00008F090F86021402001F094FF0890089BAA
:1046F0000693069B002B04D0294AF021069808F067
:1047000081F802F029F90890089B0593059B002B7E
:104710003BD0234AF721059808F074F835E01E4B8A
:104720001B78002B32D19DF82730012B2ED11B4B4B
:104730001B68184601F062FD0890089B0493049BD7
:10474000002B04D0164AFC21049808F05BF8602185
:10475000002001F05FFF0890089B0393039B002B50
:1047600004D00F4AFF21039808F04CF802F0F4F847
:104770000890089B0293029B002B07D0084A4FF435
:104780008371029808F03EF800E000BF002318464D
:104790000BB05DF804FB00BFA9370020983700205C
:1047A00084F9040000B587B003900B468DF80B30F8
:1047B000314B1A68039BDB0013445B681B685B7A10
:1047C0008DF817309DF817302C4AD2569DF80B30D3
:1047D0002A49CB569A4240D09DF81730274AD256E4
:1047E0009DF80B302549CB569A4214DA0120FFF789
:1047F00045FF0490049B002B2FD021480BF028FB91
:104800000246049B00934FF4A4731E4902200BF050
:1048100061FB049B2CE09DF81730184AD2569DF896
:104820000B301649CB569A4215DD4FF0FF30FFF79B
:1048300025FF0490049B002B0FD011480BF008FBC0
:104840000246049B00934FF4A7730E4902200BF01D
:1048500041FB049B0CE002230AE0074B1A68039B10
:10486000DB0013445B681B689DF80B205A72002321
:10487000184607B05DF804FB9437002080F9040067
:1048800084F90400D4F904002DE9F04190B00190BE
:10489000019B0F939C4B1A680F9BDB0013445B68D2
:1048A0001B685B7A032B00F2178101A252F823F0F8
:1048B000F54A0200C148020091490200F54A02008F
:1048C000914B1A680F9BDB0013445B681B685B68A5
:1048D000002B4BD08C4B1A680F9BDB0013445B689A
:1048E0005D68894B1A680F9BDB0013445B681B688B
:1048F0005B6819464FF000024FF000034FF00004D0
:10490000D40344EA5144CB0313F5FA7744F1000889
:104910004FF47A724FF000033846414629F056F8BA
:1049200003460C4619460F9B1A46284608F04AFFD4
:104930000E900E9B0D930D9B002B05D0734A4FF4E8
:10494000B9710D9807F05EFF02210F98FFF72AFF5B
:104950000E900E9B0C930C9B002B00F0CD806B4AAD
:104960004FF4BB710C9807F04DFFC5E000210F9884
:10497000FFF718FF0E900E9B0B930B9B002B00F084
:10498000BB80624A4FF4BE710B9807F03BFFB3E067
:104990005D4B1A680F9BDB0013445B681B685B6808
:1049A000002B00F0AB80584B1A680F9BDB001344C0
:1049B0005B685F68544B1A680F9BDB0013445B68AD
:1049C0001B681B681846FFF709FE034619464FF09F
:1049D00000024FF000034FF00004D40344EA5144B6
:1049E000CB0313F5FA7544F100064FF47A724FF0D9
:1049F00000032846314628F0E9FF03460C461946D5
:104A00000F9B1A46384608F0DDFE0E900E9B0A9367
:104A10000A9B002B05D03D4A4FF4C5710A9807F058
:104A2000F1FE01210F98FFF7BDFE0E900E9B09933A
:104A3000099B002B05D0354A40F28F11099807F0E9
:104A4000E1FE334B1B68184601F0D8FB0E900E9B1D
:104A50000893089B002B05D02C4A4FF4C971089885
:104A600007F0D0FE284B1A680F9BDB0013445B68ED
:104A70001B681B7A0DF10E0219460F98FFF738FDDF
:104A80000E900E9B0793079B002B05D01F4A40F208
:104A90009511079807F0B6FEBDF80E301846FFF7DF
:104AA000B1FD0E900E9B0693069B002B05D0174A76
:104AB0004FF4CC71069807F0A5FE01F04DFF0E9063
:104AC0000E9B0593059B002B18D0104A40F29B11BA
