:020000021000EC
:10F000000000012033F10100D9F00100D9AF040064
:10F01000DDF00100DFF00100E1F001000000000080
:10F02000000000000000000000000000E3F001000C
:10F03000E5F0010000000000E7F00100E9F0010048
:10F0400099AE0200EDF00100EFF00100E5AC020026
:10F05000F3F00100F5F00100DD9B0200F1AF0200CA
:10F06000FBF00100FDF00100FFF0010001F10100E3
:10F0700003F1010005F1010007F1010009F10100B0
:10F080000BF10100DDC30200B105030011F1010025
:10F090001DC4020015F10100E5E9020019F10100AB
:10F0A0001BF101001DF101001FF1010021F1010020
:10F0B00023F1010025F10100000000000000000024
:10F0C00027F1010029F101002BF101002DF10100D0
:08F0D0002FF1010031F10100F4
:10F0D800FEE7FEE7FEE7FEE7FEE7FEE7FEE7FEE700
:10F0E800FEE7FEE7FEE7FEE7FEE7FEE7FEE7FEE7F0
:10F0F800FEE7FEE7FEE7FEE7FEE7FEE7FEE7FEE7E0
:10F10800FEE7FEE7FEE7FEE7FEE7FEE7FEE7FEE7CF
:10F11800FEE7FEE7FEE7FEE7FEE7FEE7FEE7FEE7BF
:10F12800FEE7FEE7FEE7FEE7FEE70348854600F058
:10F13800C5F800F003B87047000001203749384887
:10F148000A1A02D0072291438D46364936480A1AD0
:10F1580006D00722914381F30988022282F314889A
:10F1680032483349334A00F048F833483349344A7F
:10F1780000F043F833483449344A00F03EF8344844
:10F188003449354A00F039F834483549354A00F0F1
:10F1980034F835483549364A00F02FF835483649AD
:10F1A800364A00F02AF836483649374A00F025F83A
:10F1B80036483749002200F02BF8364836490022F5
:10F1C80000F026F835483649091A082903DB0022D9
:10F1D8000260043001601F481F49884205D0026858
:10F1E800043003B4904703BCF7E700208646EC469A
:10F1F800002000212B4A9047FEE7884207D0521A88
:10F2080005D0037801300B700131013AF9D170470C
:10F21800884202D002700130FAE7704700000120EE
:10F2280000FC00200000012000000120B8FD0400BF
:10F23800182B0020002C0020B0F20100B0F20100D1
:10F24800F4CD0400B8FD0400182B0020182B002072
:10F25800F4CD0400F4CD0400F4CD0400F4CD040092
:10F26800F4CD0400F4CD0400F4CD0400F4CD040082
:10F27800B8FD0400A0FE0400002C0020002C002093
:10F28800A0FE0400002C0020102C0020102C0020D0
:10F29800B0720020B0720020B0720020B07200205E
:08F2A800B0760020E510020021
:10F2B000024B034A1A6000BF704700BF182B0020A2
:10F2C0000090D00308B500F00DF90346002B06D0DE
:10F2D000744B1B681B0A744A03F01F03136000F091
:10F2E0002DF90346002B02D0704B714A1A6000F0D2
:10F2F00041F90346002B06D06E4B1B685B0B6E4A30
:10F3000003F00703136000F061F90346002B05D0FA
:10F310006A4BDB68694A23F08073D36000F072F9AE
:10F320000346002B0ED04FF080430022C3F80C217F
:10F330004FF080430022C3F810214FF08043002299
:10F34000C3F8382500F08AF90346002B02D05C4B45
:10F3500003221A6000F09EF90346002B0BD0594B94
:10F3600005221A60584B01221A60584B00221A607D
:10F37000574B3F221A6000F0A9F90346002B76D0C4
:10F380004FF08053534AD3F80434C2F820354FF07D
:10F390008053504AD3F80834C2F824354FF08053D4
:10F3A0004C4AD3F80C34C2F828354FF08053494A00
:10F3B000D3F81034C2F82C354FF08053454AD3F8B7
:10F3C0001434C2F830354FF08053424AD3F8183421
:10F3D000C2F834354FF080533E4AD3F81C34C2F89B
:10F3E00040354FF080533B4AD3F82034C2F84435BF
:10F3F0004FF08053374AD3F82434C2F848354FF0E1
:10F400008053344AD3F82834C2F84C354FF0805337
:10F41000304AD3F82C34C2F850354FF080532D4A7F
:10F42000D3F83034C2F854354FF08053294AD3F81A
:10F430003434C2F860354FF08053264AD3F838345C
:10F44000C2F864354FF08053224AD3F83C34C2F8F6
:10F4500068354FF080531F4AD3F84034C2F86C35FA
:10F460004FF080531B4AD3F84434C2F8703500F093
:10F4700049F90346002B05D0174B1B68174A03F0C8
:10F480004F031360164BD3F88830154A43F47003CA
:10F49000C2F88830BFF34F8FBFF36F8FFFF708FFBD
:10F4A00000BF08BD240300104035014074C0074070
:10F4B0000DF0ADBA440200103C050040F0ED00E054
:10F4C000A0050040105600408856004018560040E5
:10F4D0001456004000C0004058020010E40E0040E6
:10F4E00000ED00E0124B1B68DBB2062B1DD1114B67
:10F4F0001B6803F00F03002B17D10F4B1B6803F0A1
:10F50000F003302B01D1012310E00B4B1B6803F0FB
:10F51000F003402B01D1012308E0074B1B6803F0E7
:10F52000F003502B01D1012300E00023184670475F
:10F53000E00F00F0E40F00F0E80F00F00A4B1B684A
:10F54000DBB2062B0DD1094B1B6803F00F03002B18
:10F5500007D1074B1B6803F0F003302B01D10123C7
:10F5600000E0002318467047E00F00F0E40F00F0C1
:10F57000E80F00F0124B1B68DBB2062B1DD1114BBC
:10F580001B6803F00F03002B17D10F4B1B6803F010
:10F59000F003302B01D1012310E00B4B1B6803F06B
:10F5A000F003402B01D1012308E0074B1B6803F057
:10F5B000F003502B01D1012300E0002318467047CF
:10F5C000E00F00F0E40F00F0E80F00F00A4B1B68BA
:10F5D000DBB2062B0DD1094B1B6803F00F03002B88
:10F5E00007D1074B1B6803F0F003302B01D1012337
:10F5F00000E0002318467047E00F00F0E40F00F031
:10F60000E80F00F0124B1B68DBB2062B1DD1114B2B
:10F610001B6803F00F03002B17D10F4B1B6803F07F
:10F62000F003302B01D1012310E00B4B1B6803F0DA
:10F63000F003402B01D1012308E0074B1B6803F0C6
:10F64000F003502B01D1012300E00023184670473E
:10F65000E00F00F0E40F00F0E80F00F00A4B1B6829
:10F66000DBB2062B0DD1094B1B6803F00F03002BF7
:10F6700007D1074B1B6803F0F003302B01D10123A6
:10F6800000E0002318467047E00F00F0E40F00F0A0
:10F69000E80F00F00A4B1B68DBB2062B0DD1094BBB
:10F6A0001B6803F00F03002B07D1074B1B6803F007
:10F6B000F003302B01D1012300E0002318467047EE
:10F6C000E00F00F0E40F00F0E80F00F00A4B1B68B9
:10F6D000DBB2062B0DD1094B1B6803F00F03002B87
:10F6E00007D1074B1B6803F0F003502B01D1012316
:10F6F00000E0002318467047E00F00F0E40F00F030
:10F70000E80F00F0124B1B68DBB2062B1DD1114B2A
:10F710001B6803F00F03002B17D10F4B1B6803F07E
:10F72000F003302B01D1012310E00B4B1B6803F0D9
:10F73000F003402B01D1012308E0074B1B6803F0C5
:10F74000F003502B01D1012300E00023184670473D
:10F75000E00F00F0E40F00F0E80F00F07047704792
:10F7600082B003468DF807309DF90730002B0DDB82
:10F770009DF8073003F01F0206499DF907305B0929
:10F78000012000FA02F2603341F8232000BF02B0EA
:10F79000704700BF00E100E0BFF34F8F054BDB680F
:10F7A00003F4E0620349044B1343CB60BFF34F8F74
:10F7B00000BFFDE700ED00E00400FA053EDF704702
:10F7C00000BF184682B001904FF0A043184602B027
:10F7D000704700B585B00190084611461A460346A9
:10F7E0008DF803300B468DF8023013468DF801304A
:10F7F00001AB1846FFF7E6FF03909DF803209DF844
:10F8000002305B001A439DF801309B001A439DF8BB
:10F8100018301B0242EA03019DF81C301B04019AB8
:10F820001943039B02F5E07243F8221000BF05B0B4
:10F830005DF804FB00B585B003900B468DF80B30E6
:10F840009DF80B2000230193002300931346002210
:10F8500000210398FFF7BDFF00BF05B05DF804FB72
:10F8600000B585B0019001AB1846FFF7ABFF0390E0
:10F87000039800F00AF80246019B22FA03F303F012
:10F880000103184605B05DF804FB82B00190019BAE
:10F89000D3F81035184602B07047000084B00190CC
:10F8A000244B0393019B002B40D0234B1A680399F0
:10F8B000019B00BF00BF00BF00BF00BF00BF00BF73
:10F8C00000BF8A422FD000BF00BF00BF00BF00BFF3
:10F8D00000BF00BF00BF00BF00BF00BF00BF00BF30
:10F8E00000BF00BF00BF00BF00BF00BF00BF00BF20
:10F8F00000BF00BF00BF00BF00BF00BF00BF00BF10
:10F9000000BF00BF00BF00BF00BF00BF00BF00BFFF
:10F9100000BF00BF00BF00BF00BF00BF00BF00BFEF
:10F9200000BF00BF00BF013BC3D1019300BF04B0C3
:10F93000704700BF0024F400182B002000B583B0EE
:10F940000190019B4FF47A7202FB03F31846FFF714
:10F95000A5FF00BF03B05DF804FB82B04FF0102399
:10F960005B690193019BB3F1FF3F04D14FF08053DA
:10F970005B691B0300E0019B184602B07047000062
:10F98000024BD3F804351846704700BF00B0004062
:10F9900000B585B00190019B0D4A9B1A0D4AA2FB50
:10F9A00003231B090393039B092B0BD97B4602936B
:10F9B000094B1B68002B04D0074B1B680298984723
:10F9C00000E000DE039B184605B05DF804FB00BFB5
:10F9D000682C0020CDCCCCCC684E002000B593B074
:10F9E0000790B0EE407AF0EE607A0B468DED057A26
:10F9F000CDED067AADF81230BDF812301A467F49C7
:10FA000003200FF0D2F8DDED057AF5EEC07AF1EEC5
:10FA100010FA0AD5DDED057ABFEE007AF4EEC77A6A
:10FA2000F1EE10FA01DD764A00E0764ADDED057A66
:10FA3000FDEEE77A17EE901ADDED057AF5EEC07A65
:10FA4000F1EE10FA12DD9DED057ADDED057AFDEEA1
:10FA5000E77AF8EEE77A77EE677A9FED6B7A67EEF2
:10FA6000877AFDEEE77A17EE903A11E0DDED057A40
:10FA7000FDEEE77AB8EEE77ADDED057A77EE677AA4
:10FA80009FED617A67EE877AFDEEE77A17EE903A9E
:10FA900000930B465D4903200FF0B2F8DDED067AC6
:10FAA000F5EEC07AF1EE10FA0AD5DDED067ABFEE7A
:10FAB000007AF4EEC77AF1EE10FA01DD504A00E068
:10FAC000504ADDED067AFDEEE77A17EE901ADDED8D
:10FAD000067AF5EEC07AF1EE10FA12DD9DED067AA7
:10FAE000DDED067AFDEEE77AF8EEE77A77EE677AF3
:10FAF0009FED457A67EE877AFDEEE77A17EE903A4A
:10FB000011E0DDED067AFDEEE77AB8EEE77ADDED9D
:10FB1000067A77EE677A9FED3C7A67EE877AFDEE9C
:10FB2000E77A17EE903A00930B46394903200FF01D
:10FB300067F80798FFF72CFF1190DDED067AFDEED0
:10FB4000E77ACDED037A9DF80C305BB2DBB28DF82D
:10FB500040309DED067ADDED067AFCEEE77ACDEDDC
:10FB6000037A9DF80C30DBB207EE903AF8EEE77AB4
:10FB700077EE677A9FED247A67EE877AFCEEE77A74
:10FB8000CDED037A9DF80C30DBB28DF84130DDED20
:10FB9000057AFCEEE77ACDED037A9DF80C30DBB206
:10FBA0008DF8423009AB00221A605A609A60DA6020
:10FBB0001A615A619A6123230A93FF238DF82C302E
:10FBC0004FF4FA630E934FF4FA730F9333238DF8C7
:10FBD0002C3000230C9302238DF8243009AB1946F6
:10FBE000012005F0F9FB10AA03231199062004F067
:10FBF000EDF800BF13B05DF804FB00BF20CE040099
:10FC000058CE04005CCE04000000C84260CE040060
:10FC100080CE040000B583B003468DF807309DF810
:10FC20000730012B03D1044903200EF0ADFF00BFC4
:10FC300003B05DF804FB00BFDCCE040000B593B058
:10FC40000023ADF846300123099309AB1946534808
:10FC500025F030F80F900F9B002B04D0504AF32171
:10FC60000F980BF065FC012309934C4B1B8809AAE4
:10FC70004C49184625F064F90E900E9B002B04D0D9
:10FC8000474AF5210E980BF053FC0C23099309AA5F
:10FC900002AB1146184624F0D5FD0D900D9B002BAC
:10FCA00004D03F4AFA210D980BF042FC00238DF856
:10FCB00045300023109367E0109B5B0012AA1344A9
:10FCC00033F8403C6A461146184624F05BFD0C9020
:10FCD0000C9B002B04D0324AFF210C980BF028FC1F
:10FCE0009DF80030012B2FD1BDF80200BDF8463041
:10FCF0005B002D4A1344194625F096F80346002B65
:10FD000022D1BDF84630284A32F813304FF6FF7240
:10FD1000934219D0BDF846305B00244A1A446B4622
:10FD20001146184624F0EAFD0B900B9B002B05D0E2
:10FD30001B4A40F209110B980BF0FAFBBDF8463054
:10FD40000133ADF846301CE09DF80030032B18D18C
:10FD50009DF845305B00164A1A446B46114618461A
:10FD600024F0CCFD0A900A9B002B05D00C4A4FF4DE
:10FD700087710A980BF0DCFB9DF8453001338DF854
:10FD80004530109B01331093099B109A9A4293D3EC
:10FD9000BDF84630184613B05DF804FB382C00203F
:10FDA00000CF04003A2C00203C2C0020502C0020D6
:10FDB000642C002010B584B0544B1B6803F48043BE
:10FDC000002B2FD0524B1B68032B2BDD2F215148CA
:10FDD0002CF0A5FB0346002B06D02F214D482CF01C
:10FDE0009EFB03465C1C0EE05C214A482CF097FB0E
:10FDF0000346002B06D05C2146482CF090FB0346BE
:10FE00005C1C00E0434CFFF7BBFD0246424B1B88E5
:10FE10000193424B009313464FF490722146042005
:10FE200014F02EF93C4B1B8819463D4A0B469B00AB
:10FE30000B449B0013441A88374B1B881946394BD7
:10FE400033F811301946104621F042FA0390039B13
:10FE5000002B05D02F4A4FF4927103980BF068FBEA
:10FE600021F032F8002302932B4B1B88194602AA7B
:10FE70000423012003F0AAFF274B1B8801339AB209
:10FE8000254B1A80244B1B88092B08D8264B1B882E
:10FE900003F580739BB2184603F0FCFC32E01B4B69
:10FEA0001B6803F48043002B2CD0194B1B68032BD9
:10FEB00028DD2F2117482CF032FB0346002B06D0FB
:10FEC0002F2114482CF02BFB03465C1C0EE05C2118
:10FED00010482CF024FB0346002B06D05C210D4873
:10FEE0002CF01DFB03465C1C00E00A4CFFF748FDAC
:10FEF00002460E4B0093134640F231122146042075
:10FF000014F0BEF800BF04B010BD00BF2C2B0020C1
:10FF1000302B002000CF04006A2D002068CF0400A1
:10FF2000682C0020502C0020682D002090CF040069
:10FF300000B585B00023ADF80E300023029322E017
:10FF40004FF6FF73ADF806301349029A13469B0033
:10FF500013449B000B441B880DF106021146184602
:10FF600021F00AFA0346002B10D1BDF806304FF6F7
:10FF7000FF7293420AD0BDF80E300133ADF80E3057
:10FF8000029B01330293029B092BD9D9BDF80E3095
:10FF9000184605B05DF804FB682C0020F0B58FB062
:10FFA0000B9009A880E80600ADF822300B98FFF707
:10FFB000EFFC0D9009AB0C932C4B1B6803F48043B2
:10FFC000002B49D02A4B1B68032B45DD2F212948E4
:10FFD0002CF0A5FA0346002B06D02F2125482CF043
:10FFE0009EFA03465C1C0EE05C2122482CF097FA36
:10FFF0000346002B06D05C211E482CF090FA0346E5
:020000022000DC
:100000005C1C00E01B4CFFF7BBFC07460C9B1B78FD
:100010001A460C9B01331B7819460C9B02331B7844
:1000200018460C9B03331B781D460C9B04331B782E
:100030001E46BDF82230079306960595049003915D
:1000400002920D9B01930C4B00933B464FF4A87218
:100050002146042014F014F809AA05230D9907205D
:1000600003F0B4FE00BF0FB0F0BD00BF2C2B00208A
:10007000302B002000CF0400ACCF040010B598B0A6
:100080009C4B1B6803F48043002B2CD09A4B1B68BD
:10009000032B28DD2F2199482CF041FA0346002B31
:1000A00006D02F2195482CF03AFA03465C1C0EE04E
:1000B0005C2192482CF033FA0346002B06D05C21D9
:1000C0008E482CF02CFA03465C1C00E08B4CFFF7AA
:1000D00057FC02468A4B009313464FF4AB722146FD
:1000E000042013F0CDFF24F0A3F920F099FF854BF5
:1000F0004FF6FF721A80844B4FF6FF721A8000236E
:1001000017930EE0814A179B4FF6FF7122F81310E8
:100110007F4A179B4FF6FF7122F81310179B01338C
:100120001793179B092BEDD97A4B4FF6FF721A8064
:10013000784B4FF6FF725A80774825F055FE1490A1
:10014000149B002B05D06D4A4FF4B37114980BF03B
:10015000EFF9724A0021724826F012F91390139BAE
:10016000002B05D0654A40F2671113980BF0E0F9B7
:10017000002316932DE06B49169A13469B001344F7
:100180009B000B440433684A1A606649169A13466A
:100190009B0013449B000B440833644A1A60169A70
:1001A00013469B0013449B005E4A1344169A92B276
:1001B000114618462BF0CCFA1290129B002B05D05A
:1001C0004E4A40F26D1112980BF0B2F9169B0133B2
:1001D0001693169B0B2BCED924F0A8F80346002BC0
:1001E00006D0FFF72BFD03461A46514B1A804EE00E
:1001F000504B1B68029302AB184624F02FF9119064
:10020000119B002B05D03D4A4FF4BC7111980BF0A7
:100210008FF940494CF6FE2024F096F91090109B7F
:10022000002B05D0354A40F2791110980BF080F977
:1002300041494CF6FF2024F087F90F900F9B002BCB
:1002400005D02E4A4FF4BD710F980BF071F92D4A6D
:100250003A49002024F0B7FB0E900E9B002B05D0EE
:10026000264A40F27B110E980BF062F9254B198853
:10027000254B334A002024F009FE0D900D9B002BE6
:1002800005D01E4A4FF4BE710D980BF051F920F0C5
:10029000C5FD0346002B06D0FFF74AFE03461A466B
:1002A000284B1A80FAE01E4B1A88174B1B881946F8
:1002B000104621F0DDF80C900C9B002B05D00F4A66
:1002C0004FF4C3710C980BF033F9154B1A880E4B91
:1002D0001B881946104621F025F90B900B9B002B2B
:1002E00005D0064A40F287110B980BF021F9002344
:1002F00015935CE02C2B0020302B002000CF040055
:1003000004D00400382C00203A2C00203C2C002083
:10031000502C0020642C0020B9380200F5040200A3
:10032000582D0020682C00209DFF0100DDF9010000
:10033000682D002028D00400662C0020FCCD04008D
:100340000CCE04006A2D00206449159A13469B00C8
:1003500013449B000B441A88614B1B8819461046B6
:1003600021F086F80A900A9B002B05D05D4A4FF4D5
:10037000C6710A980BF0DCF85849159A13469B0091
:1003800013449B000B441A88554B1B881946104692
:1003900021F0C8F80990099B002B05D0514A40F282
:1003A0008D1109980BF0C4F8159B01331593159B1B
:1003B000092BC9D9494BB3F8C820494B1B881946AA
:1003C000104621F055F80890089B002B05D0454AAF
:1003D0004FF4C87108980BF0ABF8404BB3F8C82045
:1003E0003F4B1B881946104621F09CF80790079B4D
:1003F000002B05D03B4A40F2911107980BF098F87A
:10040000364BB3F8C820384B1B881946104620F0ED
:100410005FFF0690069B002B05D0324A4FF4C9714E
:1004200006980BF085F82D4BB3F8DC202C4B1B887D
:100430001946104621F01CF80590059B002B05D0AD
:10044000284A4FF4CA7105980BF072F8234BB3F8A1
:10045000DC20234B1B881946104621F063F80490DA
:10046000049B002B05D01F4A40F2951104980BF015
:100470005FF81A4BB3F8DC201B4B5B88194610461B
:1004800020F026FF0390039B002B05D0154A4FF464
:10049000CB7103980BF04CF820F016FD03F0F4FB41
:1004A000124B1A88124B1B889A4208D20F4B1B889A
:1004B00003F580739BB2184603F0CEF90BE00C4BAA
:1004C0001B88092B07D80A4B1B8803F580739BB246
:1004D000184603F0DFF900BF18B010BD682C0020EB
:1004E0003A2C002000CF0400642C00206A2D00204C
:1004F000682D002010B586B005900491049B1B78F0
:10050000002B40D1234B1B6803F48043002B3CD0CD
:10051000214B1B68032B38DD2F2120482BF0FFFFD8
:100520000346002B06D02F211C482BF0F8FF034672
:100530005C1C0EE05C2119482BF0F1FF0346002BF8
:1005400006D05C2115482BF0EAFF03465C1C00E056
:10055000124CFFF715FA049B5B685B881A46049BF4
:100560001B7B1946049B5B6893F91430039302913B
:1005700001920B4B0093034640F2AD12214604203A
:1005800013F07EFD01E000BF00E000BF00BF06B039
:1005900010BD00BF2C2B0020302B002000CF04000A
:1005A0002CD0040010B586B00D230393374B1B6885
:1005B00003F48043002B2FD0354B1B68032B2BDD1E
:1005C0002F2134482BF0ABFF0346002B06D02F2100
:1005D00030482BF0A4FF03465C1C0EE05C212D4844
:1005E0002BF09DFF0346002B06D05C2129482BF001
:1005F00096FF03465C1C00E0264CFFF7C1F902465B
:10060000254B1B880193254B009313464FF4DE7254
:100610002146042013F034FD1F4B1B88194603AA02
:100620000423012003F0D2FB1B4B1B881A461C4BF2
:1006300033F81230184623F0DBFF0590059B002BA2
:1006400005D0144A40F2BF1105980AF071FF124B11
:100650001B881A46134B33F81230184624F0A6FBB9
:100660000490049B002B05D00A4A4FF4E0710498D3
:100670000AF05EFF0C4B1B8803F580739BB2184693
:1006800003F008F900BF06B010BD00BF2C2B0020FE
:10069000302B002000CF04006A2D002064D004001D
:1006A000502C00203C2C0020682D002010B58AB072
:1006B0000390584B1B88092B0BD97B460993564B4B
:1006C0001B68002B04D0544B1B680998984700E026
:1006D00000DE524B1B6803F48043002B2FD0504B9D
:1006E0001B68032B2BDD2F214E482BF018FF0346F0
:1006F000002B06D02F214B482BF011FF03465C1C2A
:100700000EE05C2147482BF00AFF0346002B06D081
:100710005C2144482BF003FF03465C1C00E0414C85
:10072000FFF72EF90246039B5B8A01933E4B009331
:1007300013464FF4E5722146042013F0A1FC039BFD
:10074000588A3A4B1B885B00394A1344194623F0F8
:10075000FBFE0890089B002B05D0324A40F2CD11D9
:1007600008980AF0E5FE039B588A324B1988039BD0
:100770009C682E4B1B885B002F4A1344224624F0B2
:10078000B7FA0790079B002B05D0264A4FF4E77174
:1007900007980AF0CDFE254B1B881A46264B33F8E6
:1007A0001230184625F0E8FB0690069B002B05D07A
:1007B0001C4A40F2D11106980AF0BAFE1B4B1B8866
:1007C0001A461D4B33F81220184B1B881946184B3C
:1007D00033F811301946104625F04EFB0590059B65
:1007E000002B05D00F4A40F2D31105980AF0A0FE65
:1007F0000E4B1B8801339AB20C4B1A80054B1B8899
:1008000003F580739BB2184603F026F800BF0AB0C8
:1008100010BD00BF6A2D0020684E00202C2B002048
:10082000302B002000CF040088D00400682D002069
:10083000502C0020382C00203C2C002000B583B028
:100840000190002001F05AFE00BF03B05DF804FBE8
:1008500010B59EB0059004911346ADF80E30049B80
:100860001B781B021AB2049B01331B781BB2134383
:100870001BB2ADF87630BDF876304FF6FF7293427A
:1008800002D10A23ADF87630049B02331B78013B7A
:10089000062B00F27A8201A252F823F0B908020076
:1008A0002D090200F30902006D0B0200670C020023
:1008B0005B0D02007B0D0200A34B1B6803F4804319
:1008C000002B2CD0A14B1B68032B28DD2F21A04827
:1008D0002BF025FE0346002B06D02F219C482BF041
:1008E0001EFE03465C1C0EE05C2199482BF017FEAF
:1008F0000346002B06D05C2195482BF010FE0346E2
:100900005C1C00E0924CFFF73BF80246914B0093D1
:10091000134640F2EF122146042013F0B1FB049B72
:1009200003331B78184601F097FD33E2BDF80E3013
:10093000032B0BD1BDF87630874AD25CBDF87630F8
:1009400082F00102D1B2844AD15405E0BDF876307C
:10095000049AD178804AD154BDF8762013469B0082
:1009600013449B007D4A9818BDF876307A4AD15CD2
:100970002AF053FF03461C93734B1B6803F4804318
:10098000002B2ED0714B1B68032B2ADD2F217048C2
:100990002BF0C5FD0346002B06D02F216C482BF011
:1009A000BEFD03465C1C0EE05C2169482BF0B7FDE0
:1009B0000346002B06D05C2165482BF0B0FD0346B2
:1009C0005C1C00E0624CFEF7DBFF02461C9B0193BF
:1009D000634B0093134640F2F9122146042013F0B2
:1009E0004FFBBDF876101CAA0423052003F0EEF996
:1009F000D0E1049BD91CBDF80E30033B1A461AAB5C
:100A000018462BF0A6FDBDF876300A2B03D0BDF8B2
:100A100076300B2B4BD1BDF8762013469B00134448
:100A20009B004E4A981803231AAA06CA2AF026FFEA
:100A300003461C93444B1B6803F48043002B2ED0C9
:100A4000424B1B68032B2ADD2F2141482BF067FD09
:100A50000346002B06D02F213D482BF060FD0346B6
:100A60005C1C0EE05C213A482BF059FD0346002B3C
:100A700006D05C2136482BF052FD03465C1C00E09A
:100A8000334CFEF77DFF02461C9B0193354B0093D0
:100A9000134640F201222146042013F0F1FABDF87A
:100AA00076101CAA0423042003F090F972E1BDF82B
:100AB000762013469B0013449B00284A98181AABD3
:100AC00093E806002AF072FE03461C931E4B1B6837
:100AD00003F48043002B2ED01C4B1B68032B2ADD14
:100AE0002F211B482BF01BFD0346002B06D02F2186
:100AF00017482BF014FD03465C1C0EE05C211448E3
:100B00002BF00DFD0346002B06D05C2110482BF086
:100B100006FD03465C1C00E00D4CFEF731FF02466B
:100B20001C9B0193104B0093134640F20722214671
:100B3000042013F0A5FABDF876101CAA04230420A3
:100B400003F044F926E100BF2C2B0020302B0020BD
:100B500000CF0400B8D004006C2D0020682C0020C9
:100B6000D4D00400F4D004001CD104004FF6FF736D
:100B7000ADF85E30BDF87620884913469B001344DB
:100B80009B000B441B880DF15E021146184620F0B5
:100B9000F3FBBDF85E304FF6FF72934200F0F78032
:100BA000BDF85E3015AA1146184623F0EBFDBDF8DE
:100BB00076307B4A32F81300BDF87630794A32F845
:100BC0001330194625F058F903238DF84C304CF6B4
:100BD000FF23ADF84E305923ADF84A300223ADF86B
:100BE0004830BDF85600129B13AA06CA25F0BAFA7F
:100BF00003461C936C4B1B6803F48043002B00F0EE
:100C0000C6806A4B1B68032B40F3C1802F216848C4
:100C10002BF085FC0346002B06D02F2164482BF0D7
:100C20007EFC03465C1C0EE05C2161482BF077FCE7
:100C30000346002B06D05C215D482BF070FC034678
:100C40005C1C00E05A4CFEF79BFE02461C9B019385
:100C5000584B0093134640F21E222146042013F005
:100C60000FFA00BF93E04FF6FF73ADF83E30BDF8CA
:100C700076204A4913469B0013449B000B441B8873
:100C80000DF13E021146184620F076FBBDF83E30CD
:100C90004FF6FF7293427CD0BDF83E300DAA11464C
:100CA000184623F06FFDBDF876303D4A32F8130048
:100CB000BDF876303B4A32F81330194625F0DCF89F
:100CC00003238DF82C304CF6FF23ADF82E3059233A
:100CD000ADF82A300223ADF82830BDF836000A9B63
:100CE0000BAA06CA25F071FA03461C932E4B1B680B
:100CF00003F48043002B4CD02C4B1B68032B48DDA6
:100D00002F212B482BF00BFC0346002B06D02F2164
:100D100027482BF004FC03465C1C0EE05C212448B1
:100D20002BF0FDFB0346002B06D05C2120482BF066
:100D3000F6FB03465C1C00E01D4CFEF721FE02465C
:100D40001C9B01931C4B009313464FF40D722146DC
:100D5000042013F095F900BF1BE0184A0021184841
:100D60000BF096FB174B00224FF4203118460BF086
:100D7000BFFB012001F0C2FB0CE0049B03331B7896
:100D8000184601F009FD00BF04E000BF02E000BF0B
:100D900000E000BF00BF1EB010BD00BF682C0020E7
:100DA0003C2C0020502C00202C2B0020302B00202D
:100DB00000CF040038D1040064D104003D080200D3
:100DC0001CCE0400782D002070B58AB007900691E3
:100DD0000592059B0993099B5B6818460DF0CEFEB2
:100DE0000546099B1B881E46099B9C68099B9B68BE
:100DF00018460EF08BFA034618460DF0BFFE034668
:100E00000393029401960095069B079A07490120D7
:100E10000DF00FFF0520FEF791FD059A0699079842
:100E20000AF09EFB00BF0AB070BD00BF90D1040065
:100E300000B587B0F1EE103A0193019B23F09F03B8
:100E40000293029BE1EE103AF1EE103A0393262052
:100E5000FEF786FCFEF7B2FC0590059B0493049B0D
:100E6000002B05D0044A40F2792104980AF060FB77
:100E700000BF07B05DF804FB00CF040000B583B0ED
:100E80000190019B1B78012B09D0022B10D0002B65
:100E900014D10C4903200DF077FE00BF0EE00A4983
:100EA00003200DF071FE0520FEF748FDFEF774FCEF
:100EB000064903200DF068FEFEF76EFC00BF03B08C
:100EC0005DF804FBE8D1040010D204003CD2040019
:100ED00000B58DB00F2000F0C9F90B900B9B0A9361
:100EE0000A9B002B05D0234A40F2A2210A980AF05F
:100EF0001FFB214B079307AB18462AF0D9FE0B9036
:100F00000B9B0993099B002B05D01A4A40F2A7219D
:100F100009980AF00DFB184B0693174B05931749D8
:100F2000174802F08DFF174B0293154B03930523CF
:100F3000049302AB184601F0DDF90B900B9B08936C
:100F4000089B002B05D00B4A40F2B92108980AF003
:100F5000EFFA0D4A6B4692E80300186004331970EB
:100F60006B46002118462AF05DFD00BF0DB05DF80C
:100F700004FB00BF00CF0400F4CD040051080200C0
:100F8000102C00207D0E020060D2040000B587B056
:100F900003460A468DF8073013468DF806309DF853
:100FA0000630012B06D11B4B1B7883F00103DAB20C
:100FB000184B1A7004AB00221A601A7101238DF8C5
:100FC0001030FF238DF81130FF238DF81230FF23EE
:100FD0008DF8133002AB00221A601A7101238DF8CC
:100FE00008309DF807300B2B10D10A4B1B78012BD2
:100FF00006D1032304AA06CA07482AF03FFC05E0ED
:10100000032302AA06CA04482AF038FC00BF07B02E
:101010005DF804FB982D0020302D002000B585B030
:1010200008F0F2FC034683F00103DBB2002B13D07F
:1010300008F0A2FC0390039B002B0DD016480DF086
:101040009DFD0246039B009340F2E72313490220D3
:101050000DF0D6FD039B1AE040F2666201211048B4
:101060000AF0D2F90390039B002B0DD00A480DF033
:1010700085FD0246039B009340F2F32307490220BB
:101080000DF0BEFD039B02E00AF030FA034618465D
:1010900005B05DF804FB00BF00CF040068D2040077
:1010A0002CD3040000B585B00C4B019301AB18465E
:1010B00000F0D0FB0390039B0293029B002B05D012
:1010C000074A4FF4467102980AF032FA6420FEF79C
:1010D00035FC00BF05B05DF804FB00BF34D304004D
:1010E00000CF040000B589B000200DF0F7FC069099
:1010F000394903200DF048FD03210B20FEF79AFB30
:10110000069B0593059B002B05D0344A4FF44A718A
:1011100005980AF00DFA0B20FEF7A2FB0346002B00
:1011200025D104238DF81330FEF717FC0346A3F5F1
:10113000E0430393FEF711FC03461A469DF8133073
:101140001B03D31AA3F5E043079306E007980AF0C0
:1011500079F8079B03F580530793039A079B9A42FC
:10116000F4D21F4903200DF00FFDFEF715FB1D4AB9
:1011700004214FF4C04012F06DFF1B4A3C210820AF
:101180000AF092FA0290029B0193019B002B05D07A
:10119000124A40F23A3101980AF0CAF90BF044F9C8
:1011A0000690069B0093009B002B05D00B4A4FF442
:1011B0004F7100980AF0BCF9FFF774FFFFF788FE43
:1011C000FFF72CFF29F04AFFFEF758FF0AF032FB29
:1011D000FFF72EFEFAE700BFACD2040000CF0400F8
:1011E000F0D20400194003009C2D002000B587B008
:1011F00003900291019200930BF0A0FC03468DF83E
:101200001730164B1B789DF817209A4208D29DF88C
:1012100017301A46124901200DF0C7FC0F2318E0C1
:10122000009B019A0299039809F080F80490049BAE
:10123000002B0DD00B4B1B6801330A4A1360094B7E
:101240001B681A46084901200DF0AFFC049B00E022
:101250000023184607B05DF804FB00BF1C2B0020DC
:1012600050D304006C310020A8D3040082B00346A0
:101270008DF80730054A9DF807301370044B0022A3
:101280001A600023184602B0704700BF1C2B0020D4
:101290006C31002012DF704700BF18466DDF7047C9
:1012A00000BF184684B00190244B0393019B002B90
:1012B00040D0234B1A680399019B00BF00BF00BFB9
:1012C00000BF00BF00BF00BF00BF8A422FD000BFD9
:1012D00000BF00BF00BF00BF00BF00BF00BF00BF16
:1012E00000BF00BF00BF00BF00BF00BF00BF00BF06
:1012F00000BF00BF00BF00BF00BF00BF00BF00BFF6
:1013000000BF00BF00BF00BF00BF00BF00BF00BFE5
:1013100000BF00BF00BF00BF00BF00BF00BF00BFD5
:1013200000BF00BF00BF00BF00BF00BF00BF013B48
:10133000C3D1019300BF04B0704700BF0024F40084
:10134000182B002000B583B00190019B4FF47A72F6
:1013500002FB03F31846FFF7A5FF00BF03B05DF8DB
:1013600004FB82B001904FF0A043184602B07047D2
:1013700000B585B00190084611461A4603468DF81F
:1013800003300B468DF8023013468DF8013001AB67
:101390001846FFF7E6FF03909DF803209DF8023002
:1013A0005B001A439DF801309B001A439DF81830EA
:1013B0001B0242EA03019DF81C301B04019A1943E9
:1013C000039B02F5E07243F8221000BF05B05DF800
:1013D00004FB00B585B00390002301930023009324
:1013E0000023012201210398FFF7C2FF00BF05B0CF
:1013F0005DF804FB00B585B0019001AB1846FFF71E
:10140000B0FF0390019B012202FA03F319460398EF
:1014100000F018F800BF05B05DF804FB00B585B01A
:10142000019001AB1846FFF79CFF0390019B01223E
:1014300002FA03F31946039800F00EF800BF05B056
:101440005DF804FB82B001900091019B009AC3F803
:10145000082500BF02B0704782B001900091019B47
:10146000009AC3F80C2500BF02B0704700B58FB0DA
:1014700003900DF12F031846FFF70CFF0C900C9B07
:10148000002B0CD033480DF079FB02460C9B0093E7
:101490003A23314902200DF0B3FB0C9B55E09DF837
:1014A0002F30002B01D102234FE00AAB1846FFF783
:1014B000F5FE0C900C9B002B0CD026480DF05EFB2B
:1014C00002460C9B00934323234902200DF098FB16
:1014D0000C9B3AE005AB00221A605A609A60DA6011
:1014E0001A8206238DF8373025E09DF83730062B19
:1014F0000AD005AB18462BF0AAF8024605AB1344F8
:10150000164918462AF0C5FF05AB18462BF09FF880
:10151000024605AB98189DF83730013B0EAA1344DC
:1015200013F80F3C1A460E492AF0B3FF9DF83730E6
:10153000013B8DF837309DF83730002BD5D105AB06
:10154000194603982BF061F8002318460FB05DF898
:1015500004FB00BFE8D3040034D4040088D40400A2
:101560008CD4040030B589B003AB83E80600034691
:101570008DF817309DF817009DF80C109DF80D4060
:101580009DF80E509DF80F309DF8102001920093A9
:101590002B46224605F02EF80790079B002B0CD017
:1015A00008480DF0EBFA0246079B009369230649B1
:1015B00002200DF025FB079B00E00023184609B030
:1015C00030BD00BFE8D3040034D4040030B587B088
:1015D00003AB83E8060003468DF817309DF81730FB
:1015E0001E2B33D09DF817009DF80C109DF80D4070
:1015F0009DF80E509DF80F309DF810200192009339
:101600002B462246FFF7B4FE9DF81130012B09D07E
:10161000022B1AD0002B0BD19DF817301846FFF77C
:10162000FDFE13E09DF817301846FFF7E3FE0DE0CE
:1016300008480DF0A3FA0246062300938B230649BF
:1016400002200DF0DDFA062301E000BF002318465A
:1016500007B030BDE8D3040034D4040000B59FB017
:1016600003468DF80F3004AB6022002118462AF0A3
:1016700099FF01238DF8283002238DF82D300123A6
:101680008DF8333001238DF8393001238DF83F3048
:1016900001238DF8523001238DF8543002238DF848
:1016A000573001238DF8583001238DF85A3002232A
:1016B0008DF85D3001238DF8633001238DF869309A
:1016C00001238DF86F309DF80F30002B3DD00023A3
:1016D000ADF8763000238DF875301CE09DF875204C
:1016E00013465B0013445B001EAA1344633B1B7844
:1016F000012B0BD19DF87530012202FA03F31AB2C7
:10170000BDF9763013431BB2ADF876309DF87530D5
:1017100001338DF875309DF875300F2BDED9BDF88B
:101720007630184605F0AAF91C901C9B002B0CD0B3
:1017300022480DF023FA02461C9B0093AC2320495B
:1017400002200DF05DFA1C9B33E000238DF874300D
:101750002AE09DF8742013465B0013445B001EAA28
:101760001344683B9DF874001A68002111469A885A
:10177000002362F30F031A46FFF7F4FE1C901C9B34
:10178000002B0CD00D480DF0F9F902461C9B00937C
:10179000B2230B4902200DF033FA1C9B09E09DF89F
:1017A000743001338DF874309DF874300F2BD0D91C
:1017B000002318461FB05DF804FB00BFE8D3040007
:1017C00034D4040000B5B5B01F4A02AB1146C022A4
:1017D00018462AF0BEFE00238DF8CF302AE09DF88F
:1017E000CF2013465B0013445B0034AA1344C83B6C
:1017F0009DF8CF001A68002111469A88002362F3F1
:101800000F031A46FFF7E2FE3290329B002B0CD0FA
:101810000E480DF0B3F90246329B0093C5230C49E4
:1018200002200DF0EDF9329B09E09DF8CF30013335
:101830008DF8CF309DF8CF301F2BD0D9002318461C
:1018400035B05DF804FB00BF94D40400E8D3040075
:1018500034D4040000B587B00390FFF7B3FF0590C0
:10186000059B002B0CD022480DF088F90246059B01
:101870000093E4231F4902200DF0C2F9059B32E0DA
:101880001E20FFF7A6FD1E20FFF7B4FD0520FFF781
:1018900059FD0121039805F041F90590059B002BA6
:1018A0000CD013480DF06AF90246059B0093EB2318
:1018B000104902200DF0A4F9059B14E00120FFF768
:1018C000CDFE0590059B002B0CD009480DF056F974
:1018D0000246059B0093EE23064902200DF090F985
:1018E000059B00E00023184607B05DF804FB00BF2D
:1018F000E8D3040034D404007ADF704700BF1846F0
:101900007CDF704700BF18467FDF704700BF184676
:101910008FDF704700BF1846A9DF704700BF184629
:10192000ADDF704700BF184669DF704700BF18463B
:1019300066DF704700BF184631DF704700BF1846AA
:101940003DDF704700BF184684B00190244B0393DD
:10195000019B002B40D0234B1A680399019B00BFC9
:1019600000BF00BF00BF00BF00BF00BF00BF8A4272
:101970002FD000BF00BF00BF00BF00BF00BF00BF2F
:1019800000BF00BF00BF00BF00BF00BF00BF00BF5F
:1019900000BF00BF00BF00BF00BF00BF00BF00BF4F
:1019A00000BF00BF00BF00BF00BF00BF00BF00BF3F
:1019B00000BF00BF00BF00BF00BF00BF00BF00BF2F
:1019C00000BF00BF00BF00BF00BF00BF00BF00BF1F
:1019D00000BF013BC3D1019300BF04B0704700BFFB
:1019E0000024F400182B002000B583B00190019B67
:1019F0004FF47A7202FB03F31846FFF7A5FF00BF0E
:101A000003B05DF804FB000000B583B001900091C5
:101A1000009B1B78012B09D0022B02D0002B0AD08F
:101A20000EE00C4903200DF0AFF80EE00A49032048
:101A30000DF0AAF809E0094903200DF0A5F804E02B
:101A4000074902200DF0A0F800BF00BF03B05DF809
:101A500004FB00BF0CD604004CD6040088D604005A
:101A6000C8D6040000B587B09DF804306FF30303B7
:101A70008DF804309DF804306FF307138DF80430AF
:101A80001B482AF0E4FD03469AB201AB18491846F8
:101A9000FFF736FF0590059B0493049B002B04D0B1
:101AA000144A8A21049809F043FD02AB0822002160
:101AB00018462AF077FD4623ADF808309623ADF896
:101AC0000A300023ADF80C304FF4A073ADF80E309F
:101AD00002AB1846FFF710FF0590059B002B01D0C5
:101AE000059B00E00023184607B05DF804FB00BF2B
:101AF00004D7040010D7040000B583B00190019B07
:101B00001B78002B04D1084901200DF03DF807E0B7
:101B1000019B1B78012B03D1044903200DF034F8FD
:101B200000BF03B05DF804FB74D70400C4D7040001
:101B300000B583B00190019A064901200DF035F8F7
:101B4000054AC521019809F0F3FC00BF03B05DF818
:101B500004FB00BF10D8040010D7040000B58BB000
:101B600002AB1C22002118462AF01CFD6B460822FD
:101B7000002118462AF016FD4623ADF800309623C2
:101B8000ADF802300023ADF804304FF4A073ADF887
:101B900006306B4602934FF4004303934FF47023D7
:101BA000049303238DF814300023ADF8163000237E
:101BB0008DF81830094B0793094B089302AB184670
:101BC00006F0B6FE0990099B002B01D0099B00E0AE
:101BD000002318460BB05DF804FB00BFF91A0200A1
:101BE000311B020000B589B003468DF807309DF81F
:101BF0000730002B06D0032B20D1144903200CF012
:101C0000C3FF1EE0124903200CF0BEFF02238DF833
:101C10000C30104B1B6803AA10469847032006F0AF
:101C2000D3FC0790079B0693069B002B08D00A4A1B
:101C300040F20311069809F07BFC01E000BF00E0D0
:101C400000BF00BF09B05DF804FB00BF4CD8040022
:101C500084D804007031002010D7040000B58FB084
:101C60000190019B1B88013B542B00F24B8101A288
:101C700052F823F0531E0200051F0200051F020048
:101C8000051F0200051F0200051F0200051F0200BC
:101C9000051F0200051F0200051F0200051F0200AC
:101CA000051F0200051F0200051F0200051F02009C
:101CB000C91D0200EB1D0200051F0200031E0200E9
:101CC000051F0200051F0200051F0200051F02007C
:101CD000051F0200051F0200051F0200051F02006C
:101CE000051F0200051F0200051F0200051F02005C
:101CF000051F0200BF1E0200FB1E0200051F02009E
:101D0000051F0200051F0200051F0200051F02003B
:101D1000051F0200051F0200051F0200051F02002B
:101D2000051F0200051F0200051F0200051F02001B
:101D3000051F0200051F0200051F0200051F02000B
:101D4000051F0200051F0200051F0200051F0200FB
:101D5000051F0200051F0200AF1E0200051F020042
:101D6000051F0200051F0200051F0200051F0200DB
:101D7000051F0200051F0200051F0200051F0200CB
:101D8000051F0200051F0200051F0200051F0200BB
:101D9000051F0200051F0200051F0200051F0200AB
:101DA000051F0200051F0200051F0200051F02009B
:101DB000051F0200051F02002B1E0200051F020066
:101DC000051F0200791E0200564903200CF0DCFEBC
:101DD000019B9A88544B1A8000238DF81430534B82
:101DE0001B6805AA1046984797E0019B1B7A1A4684
:101DF0004F4903200CF0D9FE4B4B4FF6FF721A806F
:101E00008BE0494B1888002300228521FFF77CFDD9
:101E10000D900D9B0C930C9B002B75D0454A4FF4F5
:101E200094710C9809F084FB6EE03F4B18880023F6
:101E300000220021FFF770FD0D900D9B0B930B9B73
:101E4000002B63D03B4A4FF497710B9809F070FB5D
:101E50005CE0354B1B8800211846FFF769FD0D90AB
:101E60000D9B0A930A9B002B52D0324A40F2331149
:101E70000A9809F05DFB4BE0019BDB881A462E496E
:101E800003200CF092FE019B9B884FF48A71184648
:101E9000FFF746FD0D900D9B0993099B002B39D050
:101EA000244A4FF49D71099809F042FB32E0019BEE
:101EB0005B891A46214903200CF077FE2DE003AB25
:101EC0000822002118462AF06DFB1D4903200CF062
:101ED0005BFE019B9B8803A900221846FFF718FDB3
:101EE0000D900D9B0893089B002B15D0114A4FF4C1
:101EF000A571089809F01CFB0EE0124903200CF0B4
:101F000043FE0AE000BF08E000BF06E000BF04E0B7
:101F100000BF02E000BF00E000BF00BF0FB05DF8EF
:101F200004FB00BFBCD804001E2B00207031002031
:101F3000F8D8040010D7040048D9040098D9040048
:101F4000E4D9040034DA040000B585B001900198AA
:101F500006F0DAFE019806F01DFE0023039312E05E
:101F6000124B1A68039BDB0013445B68002B07D0FD
:101F70000E4B1A68039BDB0013445B68019898477B
:101F8000039B013303930A4B1B68039A9A42E7D3DE
:101F9000019908480CF037FA0198FFF75FFE0198A5
:101FA00006F0FCFB00BF05B05DF804FB74310020B7
:101FB000783100209431002000B583B00190019861
:101FC00006F008FC00BF03B05DF804FB00B58FB05D
:101FD0006D4B1B68049304A86C4B4FF4A6726C49BC
:101FE0000CF074FC0D900D9B0C930C9B002B05D0FA
:101FF000684A4FF4C7710C9809F09AFA00230393CA
:1020000003AB18460CF026FD0B900B9B0A930A9B22
:10201000002B05D05F4A4FF4C9710A9809F088FA7D
:102020006B460C22002118462AF0BCFA01238DF8D9
:102030000030039A6B4619464020FFF775FC0B9061
:102040000B9B0993099B002B05D0524A40F2991132
:10205000099809F06DFA6B460C22002118462AF007
:10206000A1FA9DF8003043F001038DF80030039A87
:102070006B461946A020FFF757FC0B900B9B08936B
:10208000089B002B05D0434A4FF4CF71089809F004
:102090004FFA6B460C22002118462AF083FA0123DE
:1020A0008DF800304FF48A73ADF80230039A6B4616
:1020B00019462320FFF738FC0B900B9B0793079BD7
:1020C000002B05D0334A40F2A511079809F030FAE9
:1020D0006B460C22002118462AF064FA01238DF881
:1020E00000304FF4A073ADF8043001238DF80230B6
:1020F000039A6B4619462020FFF716FC0B900B9BAA
:102100000693069B002B05D0224A40F2AD1106989B
:1021100009F00EFA03AB18460CF0ACFC0B900B9BCD
:102120000593059B002B05D01A4A4FF4D9710598E9
:1021300009F0FEF918480CF035FC0B900B9B002BB6
:1021400001D00B9B1BE015480CF03CFC0B900B9B4B
:10215000002B01D00B9B12E00120FFF7EDFB0B9051
:102160000B9B002B01D00B9B09E00120FFF7E8FB44
:102170000B900B9B002B01D00B9B00E0002318461B
:102180000FB05DF804FB00BF7CDA0400D5E4020068
:10219000AC31002010D70400491F0200B91F020013
:1021A00000B5ABB01AAB3C22002118462AF0FAF970
:1021B00002238DF8683000238DF86A3006238DF8ED
:1021C0006B3003AB2022002118462AF0EBF90123E3
:1021D0008DF80F304FF4BE730793002308930BABB9
:1021E0003C22002118462AF0DDF90123ADF83C30ED
:1021F000114B109303AA0BA91AA8002300930F4BAD
:1022000006F0DEF82990299B002B0DD00C480CF02D
:10221000B5FC0246299B009340F2ED1309490220C8
:102220000CF0EEFC299B03E0012006F0BBF8002334
:1022300018462BB05DF804FB202B0020E51B0200A4
:1022400010D7040080DA040000B589B00190009135
:1022500004AB0422002118462AF0A4F900230793B6
:1022600018E0079BDB00019A13441B68002B0ED07B
:10227000079BDB00019A13441B681A4A1278104628
:1022800098470690069B002B01D0069B26E0079BF3
:1022900001330793079A009B9A42E2D302AB0822CC
:1022A000002118462AF07EF90F4B029301238DF886
:1022B0000C3001238DF80D3002AB19460B480BF0A2
:1022C00017FF0690069B0593059B002B05D0084A37
:1022D00040F21B21059809F02BF90023184609B09C
:1022E0005DF804FB7C310020091A020094310020C3
:1022F00010D7040000B585B00190019B1B68454ACA
:102300001360019B5B68444A1360019B9B68434ACE
:102310001360FFF75BFE0390039B002B06D0039A2C
:102320003F4901200CF041FC039B6EE03D4BD3F88C
:1023300088303C4A43F47003C2F88830BFF34F8FB3
:10234000BFF36F8FFFF78EFB0390039B002B06D02C
:10235000039A354901200CF028FC039B55E02E4BD5
:102360001A682E4B1B6819461046FFF76DFF039045
:10237000039B002B06D0039A2C4901200CF015FC7E
:10238000039B42E0FFF70CFF0390039B002B06D05A
:10239000039A274901200CF008FC039B35E0FFF766
:1023A000DDFB0390039B002B06D0039A21490120FB
:1023B0000CF0FBFB039B28E0032006F005F90390DB
:1023C000039B002B06D0039A1B4901200CF0EDFB68
:1023D000039B1AE01948FFF749F80390039B002B71
:1023E00006D0039A164901200CF0DFFB039B0CE09A
:1023F00012480CF0C3FB03461A46124913200CF096
:10240000D4FB0A20FFF7F0FA0023184605B05DF868
:1024100004FB00BF703100207431002078310020AF
:10242000D4DA040000ED00E010DB04004CDB040013
:1024300098DB0400D4DB040010DC040080310020B1
:1024400050DC04008CDC0400024BD3F80435184641
:10245000704700BF00B0004010B584B003468DF84F
:102460000F309DF80F30002B14BF01230023DAB288
:102470001D4B1A701C4B1B78002B31D01B4B1B685B
:1024800003F48043002B2BD0194B1B68012B27DD55
:102490002F2118482AF043F80346002B06D02F219D
:1024A00014482AF03CF803465C1C0EE05C211148FD
:1024B0002AF035F80346002B06D05C210D482AF09F
:1024C0002EF803465C1C00E00A4CFFF7BDFF0246F5
:1024D000094B009313466C222146022011F0D0FDD7
:1024E00000BF04B010BD00BF242B00202C2B002007
:1024F000302B0020A0DC040008DD0400B0B58CB057
:1025000004AF0346FB715E4B1B78002B00F0B080DC
:10251000FB7983F00103DBB2002B00F0A980584B5C
:1025200000221A700023FB769CE0564B1B6803F4D4
:102530008043002B00F08A80534B1B68012B40F333
:1025400085806B461D4610237B617B695B00581CB0
:102550000346013B3B6101464FF000024FF0000390
:102560004FF00004D40044EA5174CB0001464FF010
:1025700000024FF000034FF00004D40044EA51740D
:10258000CB00C31DDB08DB00ADEB030D04AB003358
:10259000FB600023FB6123E0FB7E3C4A1B011A44E5
:1025A000FB6913441B78FB72394B1A68FB7A1B09D1
:1025B000DBB203F00F031A44FB695B001178FA6881
:1025C000D154334B1A68FB7A03F00F031A44FB69AA
:1025D0005B0001331178FA68D154FB690133FB6168
:1025E000FA697B699A42D7D37B695B00FA6800215C
:1025F000D1542F21274829F092FF0346002B06D003
:102600002F21244829F08BFF03465C1C0EE05C213F
:10261000204829F084FF0346002B06D05C211D488A
:1026200029F07DFF03465C1C00E01A4CFFF70CFF0D
:102630000246FB680293184B0193184B0093134614
:1026400077222146022011F01BFDAD46F97EFB7E6C
:102650001B010E4A1A441023002001F0B7FBFB7E39
:102660000133FB760E4B1B78FA7E9A42FFF45DAF86
:10267000034AFB79137000BF2037BD46B0BD00BFD1
:10268000F83200202C2B0020302B0020FC320020C0
:10269000282B0020A0DC040024DD04002CDD040035
:1026A0009C33002008B5A0220021044829F07AFFBD
:1026B000034B00221A7000BF08BD00BFFC3200208F
:1026C0009C33002000B58BB001905F238DF808305B
:1026D0005F238DF809306E238DF80A306F238DF853
:1026E0000B3072238DF80C3064238DF80D30692384
:1026F0008DF80E3063238DF80F305F238DF8103086
:102700005F238DF8113073238DF8123065238DF817
:1027100013306D238DF8143069238DF815305F2345
:102720008DF816305F238DF817300023ADF8183080
:102730000023ADF81A300023ADF81C30124B1B8873
:10274000ADF81E309DF820306FF300038DF8203077
:102750009DF820306FF341038DF8203002AA00234A
:1027600001990A4823F0FBFE0990099B002B04D035
:10277000074A9121099808F0DBFE064B02221A70E5
:1027800000BF0BB05DF804FBF2360020C03500201E
:10279000A0DC0400F0360020B0B58CB004AF0346D6
:1027A000FB71854B1B78FA799A4234D9834B1B68AD
:1027B00003F48043002B00F0FA80814B1B68012B4F
:1027C00040F3F5802F217F4829F0A9FE0346002B16
:1027D00006D02F217B4829F0A2FE03465C1C0EE0A8
:1027E0005C21784829F09BFE0346002B06D05C2133
:1027F000744829F094FE03465C1C00E0714CFFF71E
:1028000023FE0246704B0093134698222146022075
:1028100011F036FCCBE0694B1B6803F48043002BBE
:1028200000F08A80664B1B68012B40F385806B4665
:102830001D461023BB61BB695B00581C0346013B6E
:102840007B6101464FF000024FF000034FF000049F
:10285000D40044EA5174CB0001464FF000024FF01F
:1028600000034FF00004D40044EA5174CB00C31DB0
:10287000DB08DB00ADEB030D04AB00333B61002351
:10288000FB6123E0FB79514A1B011A44FB691344A5
:102890001B78FB734E4B1A68FB7B1B09DBB203F002
:1028A0000F031A44FB695B0011783A69D154484B15
:1028B0001A68FB7B03F00F031A44FB695B000133CA
:1028C00011783A69D154FB690133FB61FA69BB693C
:1028D0009A42D7D3BB695B003A690021D1542F21BA
:1028E000384829F01CFE0346002B06D02F2135481E
:1028F00029F015FE03465C1C0EE05C21314829F0EE
:102900000EFE0346002B06D05C212E4829F007FE60
:1029100003465C1C00E02B4CFFF796FD02463B692A
:1029200002932C4B01932C4B009313469C2221467F
:10293000022011F0A5FBAD46FB791B01234A13448D
:10294000184600F04DF8FFF7ADFE1C4B1B6803F472
:102950008043002B2BD01A4B1B68012B27DD2F2126
:10296000184829F0DCFD0346002B06D02F2115481E
:1029700029F0D5FD03465C1C0EE05C21114829F0CE
:10298000CEFD0346002B06D05C210E4829F0C7FD82
:1029900003465C1C00E00B4CFFF756FD02460F4B54
:1029A000009313469F222146022011F069FB00BFCD
:1029B0002037BD46B0BD00BF9C3300202C2B00202B
:1029C000302B0020A0DC040034DD0400FC320020A9
:1029D000282B00204CDD04002CDD04006CDD0400FD
:1029E000B0B58CB004AF78604B4B1B6803F48043E8
:1029F000002B00F08780494B1B68032B40F382803B
:102A00006B461D461023BB61BB695B00581C034627
:102A1000013B7B6101464FF000024FF000034FF095
:102A20000004D40044EA5174CB0001464FF0000288
:102A30004FF000034FF00004D40044EA5174CB007F
:102A4000C31DDB08DB00ADEB030D04AB00333B61C2
:102A50000023FB6120E07A68FB6913441B78FB7359
:102A60002F4B1A68FB7B1B09DBB203F00F031A44E0
:102A7000FB695B0011783A69D154294B1A68FB7BDA
:102A800003F00F031A44FB695B00013311783A69C4
:102A9000D154FB690133FB61FA69BB699A42DAD30D
:102AA000BB695B003A690021D1542F211D4829F0F0
:102AB00036FD0346002B06D02F211A4829F02FFDA2
:102AC00003465C1C0EE05C21164829F028FD0346F5
:102AD000002B06D05C21134829F021FD03465C1C25
:102AE00000E0104CFFF7B0FC02463B6902930E4B2E
:102AF00001930E4B00931346A5222146042011F0AA
:102B0000BFFAAD467868FFF7DDFD094B02221A7067
:102B100000BF2037BD46B0BD2C2B0020302B00203D
:102B2000282B0020A0DC04007CDD04002CDD040048
:102B3000F036002010B5A2B0A14B1B78033B072B49
:102B400000F2BA8201A252F823F000BF6D2B0200FE
:102B5000732B0200F12B0200832C0200232D0200B4
:102B6000E92D0200EF2E0200FB2F0200944B0422FD
:102B70001A70944B1B6803F48043002B2BD0924BAC
:102B80001B68032B27DD2F21904829F0C8FC034642
:102B9000002B06D02F218D4829F0C1FC03465C1C78
:102BA0000EE05C21894829F0BAFC0346002B06D0D0
:102BB0005C21864829F0B3FC03465C1C00E0834C92
:102BC000FFF742FC0246824B00931346B522214692
:102BD000042011F055FA23F0F7F92190219B002BE6
:102BE00000F07782794AB621219808F0A1FC70E2C2
:102BF000744B1B6803F48043002B2BD0724B1B6873
:102C0000032B27DD2F21714829F089FC0346002B77
:102C100006D02F216D4829F082FC03465C1C0EE093
:102C20005C216A4829F07BFC0346002B06D05C211E
:102C3000664829F074FC03465C1C00E0634CFFF717
:102C400003FC0246634B00931346BD222146042039
:102C500011F016FA604B13AC0FCB84E80F0013ABE6
:102C60001A460021002023F0F3F92090209B002B2E
:102C700000F03182554ABF21209808F059FC00BF6E
:102C800029E2504B1B6803F48043002B2BD04E4BA2
:102C90001B68032B27DD2F214C4829F040FC0346FD
:102CA000002B06D02F21494829F039FC03465C1C33
:102CB0000EE05C21454829F032FC0346002B06D08B
:102CC0005C21424829F02BFC03465C1C00E03F4C91
:102CD000FFF7BAFB0246414B00931346C62221463A
:102CE000042011F0CDF94FF6FF73ADF84A300223FE
:102CF000ADF848303A4B1B88ADF87E30BDF87E30D9
:102D0000129A0021184623F093FA1E901E9B002B66
:102D100000F0E3812D4ACB211E9808F009FC00BF8A
:102D2000DBE1284B1B6803F48043002B2BD0264BA0
:102D30001B68032B27DD2F21244829F0F0FB0346D5
:102D4000002B06D02F21214829F0E9FB03465C1C0B
:102D50000EE05C211D4829F0E2FB0346002B06D063
:102D60005C211A4829F0DBFB03465C1C00E0174C91
:102D7000FFF76AFB02461B4B00931346D222214603
:102D8000042011F07DF95923ADF846300223ADF847
:102D90004430134B1B88ADF87630BDF87630119A6D
:102DA0000021184623F044FA1C901C9B002B00F0D5
:102DB0009681064AD7211C9808F0BAFB00BF8EE125
:102DC000F03600202C2B0020302B0020A0DC04004B
:102DD00094DD0400B0DD0400A8DE0400C0DD0400C2
:102DE000F2360020E4DD04000BAB00221A605A60CA
:102DF0009A60DA601A615A61BE4B1B88ADF82C30BC
:102E000001238DF830300123ADF832300023ADF8C6
:102E1000383000238DF83A300A238DF83B309DF886
:102E20003C30012262F387038DF83C309DF83C3042
:102E300043F003038DF83C3001238DF83D3000232F
:102E40008DF83E304FF0FF338DF841304FF0FF33B7
:102E50008DF84230002343F002038DF83F30002309
:102E60008DF84030A44B1B6803F48043002B2ED018
:102E7000A24B1B68032B2ADD2F21A14829F04FFB11
:102E80000346002B06D02F219D4829F048FB03461E
:102E90005C1C0EE05C219A4829F041FB0346002BA4
:102EA00006D05C21964829F03AFB03465C1C00E002
:102EB000934CFFF7C9FA0246BDF832300193914BAB
:102EC00000931346EB222146042011F0D9F80BABF6
:102ED000184623F023F91B901B9B002B00F0018167
:102EE000874AED211B9808F023FB00BFF9E005ABF2
:102EF00000221A605A609A60DA601A615A617D4B4A
:102F00001B88ADF8143001238DF81830794B1B88DD
:102F1000FF3B9BB2ADF81A300023ADF82030002300
:102F20008DF822300A238DF823309DF824306FF37A
:102F300087038DF824309DF824306FF301038DF85A
:102F4000243001238DF8253000238DF8263000230E
:102F500043F059038DF8293000238DF82A300023DF
:102F600043F002038DF8273000238DF82830624BA0
:102F70001B6803F48043002B2FD0604B1B68032B8E
:102F80002BDD2F215E4829F0CAFA0346002B06D01C
:102F90002F215B4829F0C3FA03465C1C0EE05C213C
:102FA000574829F0BCFA0346002B06D05C21544850
:102FB00029F0B5FA03465C1C00E0514CFFF744FAD7
:102FC0000246BDF81A3001934F4B0093134640F26E
:102FD00001122146042011F053F805AB184623F0E6
:102FE0009DF81A901A9B002B7DD0454A40F20311A0
:102FF0001A9808F09DFA00BF75E03F4B1B6803F478
:103000008043002B2CD03D4B1B68032B28DD2F2148
:103010003B4829F084FA0346002B06D02F2138487C
:1030200029F07DFA03465C1C0EE05C21344829F04F
:1030300076FA0346002B06D05C21314829F06FFA5E
:1030400003465C1C00E02E4CFFF7FEF902462F4BB6
:10305000009313464FF485722146042011F010F8B6
:10306000244B1B88ADF8663000238DF80C3000230C
:10307000ADF80E300023049303238DF80C304CF68A
:10308000FE23ADF80E305923ADF80A300223ADF817
:103090000830BDF86600029B03AA06CA23F062F856
:1030A0001890189B002B20D0154A4FF4897118985E
:1030B00008F03EFA00BF18E07B461793144B1B68DC
:1030C000002B04D0124B1B68179898470EE000DEC7
:1030D0000CE000BF0AE000BF08E000BF06E000BF50
:1030E00004E000BF02E000BF00E000BF00BF22B06C
:1030F00010BD00BFF23600202C2B0020302B00200A
:10310000A0DC040010DE040050DE040090DE0400A9
:10311000684E0020B0B592B004AF7860012387F804
:103120002F30B54B1B6803F48043002B00F08880E0
:10313000B24B1B68012B40F383806B461D46102366
:10314000BB62BB6A5B00581C0346013B7B620146C5
:103150004FF000024FF000034FF00004D40044EAA7
:103160005174CB0001464FF000024FF000034FF0C6
:103170000004D40044EA5174CB00C31DDB08DB001B
:10318000ADEB030D04AB00333B6200233B6320E057
:103190007A683B6B13441B78FB77994B1A68FB7F6B
:1031A0001B09DBB203F00F031A443B6B5B00117881
:1031B0003A6AD154924B1A68FB7F03F00F031A440A
:1031C0003B6B5B00013311783A6AD1543B6B01339E
:1031D0003B633A6BBB6A9A42DAD3BB6A5B003A6ADA
:1031E0000021D1542F21874829F099F90346002B5B
:1031F00006D02F21834829F092F903465C1C0EE08B
:103200005C21804829F08BF90346002B06D05C2115
:103210007C4829F084F903465C1C00E0794CFFF7F8
:1032200013F902463B6A0293774B0193774B009365
:10323000134640F223122146022010F021FFAD4632
:10324000002387F82E3014E097F82E301B01704AC7
:10325000134410227968184629F030F90346002BF0
:1032600002D1002387F82F3097F82E30013387F8EA
:103270002E3097F82E30092BE6D997F82F30002BF7
:1032800012D0644B1B78082B0ED8624B1B781B01A5
:103290005F4A13447968184629F0B7F95D4B1B78EB
:1032A0000133DAB25B4B1A70002387F82E3097E0B7
:1032B000514B1B6803F48043002B00F08C804F4B74
:1032C0001B68012B40F387806B461D461023BB61B2
:1032D000BB695B00581C0346013B7B6101464FF014
:1032E00000024FF000034FF00004D40044EA517490
:1032F000CB0001464FF000024FF000034FF00004F6
:10330000D40044EA5174CB00C31DDB08DB00ADEBF5
:10331000030D04AB00333B6100237B6324E097F88B
:103320002E303B4A1B011A447B6B13441B78FB7302
:10333000334B1A68FB7B1B09DBB203F00F031A4403
:103340007B6B5B0011783A69D1542D4B1A68FB7B7B
:1033500003F00F031A447B6B5B00013311783A6969
:10336000D1547B6B01337B637A6BBB699A42D6D3B2
:10337000BB695B003A690021D1542F21214829F013
:10338000CEF80346002B06D02F211E4829F0C7F89F
:1033900003465C1C0EE05C211A4829F0C0F8034685
:1033A000002B06D05C21174829F0B9F803465C1CB5
:1033B00000E0144CFFF748F802463B690293124BB9
:1033C0000193124B0093134640F233122146022020
:1033D00010F056FEAD4697F82E30013387F82E30A8
:1033E0000C4B1B7897F82E209A42FFF461AF00BF78
:1033F00018463837BD46B0BD2C2B0020302B00209E
:10340000282B0020A0DC0400B8DE04002CDD040022
:10341000FC3200209C33002010B58AB00390039B3F
:103420001B78082B00F2FD8101A252F823F000BFA7
:1034300055340200BB370200053502002338020074
:103440002338020025370200233802000336020029
:10345000F1350200A84B1B78012B40F0E481A74B0B
:103460001B78002B08D0039B04331846FFF72AF97A
:10347000A14B02221A70D6E1A04B1B7883F0010306
:10348000DBB2002B00F0CF819D4B1B78002B00F0AE
:10349000CA819C4B1B6803F48043002B2CD09A4BB1
:1034A0001B68032B28DD2F21984829F038F80346A4
:1034B000002B06D02F21954829F031F803465C1CDB
:1034C0000EE05C21914829F02AF80346002B06D033
:1034D0005C218E4829F023F803465C1C00E08B4CED
:1034E000FEF7B2FF02468A4B0093134640F24712A2
:1034F0002146042010F0C4FD039B04331846FFF757
:1035000009FE90E17F4B1B6803F48043002B2CD015
:103510007D4B1B68032B28DD2F217C4828F0FFFF03
:103520000346002B06D02F21784828F0F8FF0346E9
:103530005C1C0EE05C21754828F0F1FF0346002B6F
:1035400006D05C21714828F0EAFF03465C1C00E0CD
:103550006E4CFEF779FF02466E4B009313464FF414
:10356000A7722146042010F08BFD634B1B78022BC1
:1035700036D1644B1B6803F48043002B2CD0624B84
:103580001B68032B28DD2F21604828F0C8FF034665
:10359000002B06D02F215D4828F0C1FF03465C1C9C
:1035A0000EE05C21594828F0BAFF0346002B06D0F4
:1035B0005C21564828F0B3FF03465C1C00E0534CE6
:1035C000FEF742FF0246544B0093134640F251125D
:1035D0002146042010F054FD474B01221A7024E1CB
:1035E000454B1B78032B40F02081FFF7A3FA1CE129
:1035F000414B00221A70039B04331846FDF756F81E
:103600001AE1039B586810230022012122F0DFFFFA
:103610000990099B002B38D03A4B1B6803F4804378
:10362000002B2ED0384B1B68002B2ADD2F2137486A
:1036300028F075FF0346002B06D02F21334828F0D1
:103640006EFF03465C1C0EE05C21304828F067FFEB
:103650000346002B06D05C212C4828F060FF03466F
:103660005C1C00E0294CFEF7EFFE0246099B01932B
:103670002A4B009313464FF4B4722146012010F0F8
:10368000FFFC1D4B01221A70D1E01E4B1B6803F496
:103690008043002B00F0CB801B4B1B68032B40F3B7
:1036A000C6802F21194828F03AFF0346002B06D088
:1036B0002F21164828F033FF03465C1C0EE05C21E6
:1036C000124828F02CFF0346002B06D05C210F483F
:1036D00028F025FF03465C1C00E00C4CFEF7B4FE0E
:1036E00002460F4B0093134640F26D122146042010
:1036F00010F0C6FC9BE000BFF0360020242B002019
:10370000F83200202C2B0020302B0020A0DC0400FD
:10371000C4DE0400D0DE0400F0DE040014DF040088
:1037200058DF0400464B04AC0FCB84E80F00039B2A
:103730005B6804A91022184622F06DFF0890089BD0
:10374000002B05D03F4A40F27511089807F0F0FEB3
:103750003D4B1B6803F48043002B6AD03B4B1B6836
:10376000032B66DD2F21374828F0D9FE0346002BB6
:1037700006D02F21334828F0D2FE03465C1C0EE011
:103780005C21304828F0CBFE0346002B06D05C219C
:103790002C4828F0C4FE03465C1C00E0294CFEF7D0
:1037A00053FE02462A4B009313464FF4BB72214648
:1037B000042010F065FC00BF3BE0234B1B6803F4C2
:1037C0008043002B37D0214B1B68032B33DD2F2187
:1037D0001C4828F0A4FE0346002B06D02F211948D0
:1037E00028F09DFE03465C1C0EE05C21154828F085
:1037F00096FE0346002B06D05C21124828F08FFE6F
:1038000003465C1C00E00F4CFEF71EFE0246114B07
:103810000093134640F27B122146042010F030FC46
:1038200009E000BF08E000BF06E000BF04E000BF01
:1038300002E000BF00E000BF00BF0AB010BD00BF43
:10384000C8DF0400A0DC04002C2B0020302B00205B
:1038500078DF0400A0DF040000B583B00346ADF8B4
:1038600006300A4ABDF806301380094B1B78022B3C
:1038700003D1074B03221A7004E0054B03221A7090
:10388000FFF758F900BF03B05DF804FBF2360020E3
:10389000F036002082B00346ADF80630044ABDF889
:1038A00006301380034B01221A7000BF02B070472C
:1038B000F2360020F0360020B0B592B004AF0346D7
:1038C0003960FB711346BB80FB79002B02D1FCF7FA
:1038D00069FECAE13B68002B0BD17B463B639B4BE7
:1038E0001B68002B04D0994B1B68386B984700E08D
:1038F00000DE3B681B88022B40F09F80944B1B78B6
:10390000042B40F09A80934B1B6803F48043002BF8
:1039100000F08D80904B1B68032B40F388806B4632
:103920001D46BB88FB62FB6A5B00581C0346013BDB
:10393000BB6201464FF000024FF000034FF000045D
:10394000D40044EA5174CB0001464FF000024FF01E
:1039500000034FF00004D40044EA5174CB00C31DAF
:10396000DB08DB00ADEB030D04AB00337B6200230F
:103970007B6325E03B685B681A467B6B13441B78CE
:1039800087F82330754B1A6897F823301B09DBB290
:1039900003F00F031A447B6B5B0011787A6AD154F1
:1039A0006E4B1A6897F8233003F00F031A447B6BB1
:1039B0005B00013311787A6AD1547B6B01337B63EE
:1039C0007A6BFB6A9A42D5D3FB6A5B007A6A002164
:1039D000D1542F21624828F0A2FD0346002B06D0C7
:1039E0002F215F4828F09BFD03465C1C0EE05C2104
:1039F0005B4828F094FD0346002B06D05C21584814
:103A000028F08DFD03465C1C00E0554CFEF71CFDC4
:103A100002467B6A0293534B0193534B0093134628
:103A200040F2A5122146042010F02AFBAD46484B77
:103A300005221A70FFF77EF817E13B681B8848F2F1
:103A4000030293421FD1424B1B78052B1BD13B68CD
:103A50005B681B78002B10D03B685B681B78062BDB
:103A60000BD07B46FB61394B1B68002B04D0374BD6
:103A70001B68F869984700E000DE354B06221A7093
:103A8000FFF758F8F1E03B681B8848F23E0293428A
:103A90001AD12F4B1B78062B16D13B685B681B781D
:103AA000002B0BD07B46BB61284B1B68002B04D03E
:103AB000264B1B68B869984700E000DE244B0722BC
:103AC0001A70FFF737F8D0E03B681B8848F23E02D7
:103AD00093421AD11E4B1B78072B16D13B685B68AB
:103AE0001B78002B0BD07B467B61184B1B68002B8F
:103AF00004D0164B1B687869984700E000DE144B31
:103B000008221A70FFF716F8AFE03B681B8848F2EE
:103B1000190293422AD10E4B1B78082B26D13B6801
:103B20005B681B78002B0BD07B463B61074B1B6807
:103B3000002B04D0054B1B683869984700E000DE75
:103B4000034B09221A70FEF7F5FF8EE0684E002045
:103B5000F03600202C2B0020302B0020282B0020BA
:103B6000A0DC0400D8DF04002CDD04003B681B88C7
:103B700048F2190293421AD13D4B1B78092B16D1FA
:103B80003B685B681B78002B0BD07B46FB60394B96
:103B90001B68002B04D0374B1B68F868984700E07F
:103BA00000DE334B0A221A70FEF7C4FF5DE03B686B
:103BB0001B8848F21F0293421AD12D4B1B780A2B07
:103BC00016D13B685B681B78002B0BD07B46BB6033
:103BD000284B1B68002B04D0264B1B68B8689847FD
:103BE00000E000DE224B00221A70FCF7E3F83CE014
:103BF0003B681B8848F21F02934236D11E4B1B685C
:103C000003F48043002B30D01C4B1B68012B2CDDB0
:103C10002F211B4828F083FC0346002B06D02F21C0
:103C2000174828F07CFC03465C1C0EE05C2114481D
:103C300028F075FC0346002B06D05C21104828F0C4
:103C40006EFC03465C1C00E00D4CFEF7FDFB0246DB
:103C50003B685B681B7801930A4B0093134640F264
:103C6000D7122146022010F00BFA3837BD46B0BDFE
:103C7000F0360020684E00202C2B0020302B002036
:103C8000A0DC0400ECDF040000B58BB0274B002261
:103C90001A70274A03AB07CA03C31A800233120CF7
:103CA0001A702449244822F04DFC0990099B002BEE
:103CB00005D0224A4FF4F171099807F039FC03AAA4
:103CC0001F4B009313461B4A1B491E4822F0BAFBA8
:103CD0000890089B002B05D0184A40F2E311089881
:103CE00007F026FC184824F081FB034619461548C6
:103CF00022F008FC0790079B002B05D00F4A4FF4D9
:103D0000F271079807F014FC0D4822F0A5FC06900C
:103D1000069B002B05D0094A40F2E511069807F0F2
:103D200007FC00BF0BB05DF804FB00BFF0360020BD
:103D300004E00400E0330020A0330020A0DC0400F5
:103D400019340200C03500200034002000B583B0D3
:103D500001900199034805F0FDF900BF03B05DF83B
:103D600004FB00BFF436002000B585B003468DF893
:103D7000073002AB04220021184628F013FC074B41
:103D80001B68029302AB1946054805F00BFA039035
:103D900000BF184605B05DF804FB00BF10370020D7
:103DA000F436002000B583B001900B46ADF8023028
:103DB000BDF802301A460199034805F04BFA034654
:103DC000184603B05DF804FBF436002000B58DB052
:103DD000029101921A460346ADF80E3013468DF853
:103DE0000D3005AB00221A605A609A60DA601A61E1
:103DF000C3F81320029B1B0ADBB28DF81430029B20
:103E0000DBB28DF81530BDF80E30DBB28DF8163010
:103E10009DF80D2005AB03330199184628F099FB56
:103E20009DF80D309BB203339AB205AB114618468C
:103E3000FFF7B8FF0B900B9B18460DB05DF804FB25
:103E400000B583B001900091019B002B01D10E239E
:103E50000CE0084903200AF097FE074A009B136014
:103E6000019B064A5A60019B054A1A60184603B036
:103E70005DF804FB10E00400103700204D3D020007
:103E8000693D020082B001904FF0A043184602B095
:103E9000704700B585B00190084611461A460346A2
:103EA0008DF803300B468DF8023013468DF8013043
:103EB00001AB1846FFF7E6FF03909DF803209DF83D
:103EC00002305B001A439DF801309B001A439DF8B5
:103ED00018301B0242EA03019DF81C301B04019AB2
:103EE0001943039B02F5E07243F8221000BF05B0AE
:103EF0005DF804FB00B585B0039000230193002317
:103F000000930023012201210398FFF7C2FF00BFA5
:103F100005B05DF804FB00B585B0019001AB184613
:103F2000FFF7B0FF0390019B012202FA03F3194649
:103F3000039800F018F800BF05B05DF804FB00B569
:103F400085B0019001AB1846FFF79CFF0390019BE1
:103F5000012202FA03F31946039800F00EF800BF9D
:103F600005B05DF804FB82B001900091019B009ABE
:103F7000C3F8082500BF02B0704782B001900091DD
:103F8000019B009AC3F80C2500BF02B070470000E7
:103F900084B00190244B0393019B002B40D0234B12
:103FA0001A680399019B00BF00BF00BF00BF00BF9C
:103FB00000BF00BF00BF8A422FD000BF00BF00BFBC
:103FC00000BF00BF00BF00BF00BF00BF00BF00BFF9
:103FD00000BF00BF00BF00BF00BF00BF00BF00BFE9
:103FE00000BF00BF00BF00BF00BF00BF00BF00BFD9
:103FF00000BF00BF00BF00BF00BF00BF00BF00BFC9
:1040000000BF00BF00BF00BF00BF00BF00BF00BFB8
:1040100000BF00BF00BF00BF00BF013BC3D1019381
:1040200000BF04B0704700BF0024F400182B00202C
:1040300082B00190064B1A68019BDB0013441B7889
:10404000012B0CBF01230023DBB2184602B07047DE
:104050001437002082B00190064B1A68019BDB00E8
:1040600013441B78002B0CBF01230023DBB218463E
:1040700002B070471437002082B003468DF8073035
:104080009DF80730102B01D9012300E000231846CA
:1040900002B0704700B585B003900B4601928DF8D1
:1040A0000B30019B00221A800398FFF7D3FF0346D1
:1040B000002B0CD0314B1A68039BDB0013445B7858
:1040C0001A46012393409AB2019B1A8050E003984C
:1040D000FFF7AEFF0346002B48D09DF80B3003F0EE
:1040E0000103002B11D0019B1B881AB2234B1968C6
:1040F000039BDB000B445B78194601238B401BB20A
:1041000013431BB29AB2019B1A809DF80B3003F047
:104110000203002B11D0019B1B881AB2174B1968A0
:10412000039BDB000B449B78194601238B401BB299
:1041300013431BB29AB2019B1A809DF80B3003F017
:104140000403002B14D0019B1B881AB20B4B196877
:10415000039BDB000B44DB78194601238B401BB229
:1041600013431BB29AB2019B1A8001E0012300E0C5
:104170000023184605B05DF804FB00BF143700208B
:1041800082B00190019B074AA2FB03235A09134600
:104190009B001344DB001A46019B1344184602B0EF
:1041A000704700BF1F85EB5100B587B00346ADF8DF
:1041B0000E30BDF80E300021184601F0BDFF05900D
:1041C000059B002B0CD014480AF0D8FC0246059B36
:1041D0000093C723114902200AF012FD059B17E046
:1041E000BDF80E301946002001F0A6FF0590059B92
:1041F000002B0CD008480AF0C1FC0246059B009336
:10420000CA23064902200AF0FBFC059B00E00023BC
:10421000184607B05DF804FB28E0040078E00400CD
:1042200000B58BB003468DF80730444B1B788DF8F2
:104230002730424B1B78002B06D19DF90730B3F194
:10424000FF3F01D1022374E03C4B1A789DF8073000
:104250001344DAB2394B1A70384B1B78012B30D12A
:104260009DF82730002B2CD1354B1B68184601F0E8
:1042700097FD0890089B0793079B002B04D0314AB9
:10428000EC21079807F054F96021402001F094FFD9
:104290000890089B0693069B002B04D0294AF02126
:1042A000069807F045F902F029F90890089B059354
:1042B000059B002B3BD0234AF721059807F038F9DE
:1042C00035E01E4B1B78002B32D19DF82730012B97
:1042D0002ED11B4B1B68184601F062FD0890089B0D
:1042E0000493049B002B04D0164AFC21049807F089
:1042F0001FF96021002001F05FFF0890089B0393E5
:10430000039B002B04D00F4AFF21039807F010F9FC
:1043100002F0F4F80890089B0293029B002B07D050
:10432000084A4FF48371029807F002F900E000BFD9
:10433000002318460BB05DF804FB00BF29370020AE
:104340001837002028E0040000B587B003900B4622
:104350008DF80B30314B1A68039BDB0013445B680C
:104360001B685B7A8DF817309DF817302C4AD256AF
:104370009DF80B302A49CB569A4240D09DF8173011
:10438000274AD2569DF80B302549CB569A4214DA6B
:104390000120FFF745FF0490049B002B2FD02148FC
:1043A0000AF0ECFB0246049B00934FF4A4731E49F1
:1043B00002200AF025FC049B2CE09DF81730184AD7
:1043C000D2569DF80B301649CB569A4215DD4FF068
:1043D000FF30FFF725FF0490049B002B0FD01148FE
:1043E0000AF0CCFB0246049B00934FF4A7730E49DE
:1043F00002200AF005FC049B0CE002230AE0074BB4
:104400001A68039BDB0013445B681B689DF80B2054
:104410005A720023184607B05DF804FB14370020D9
:1044200024E0040028E0040078E004002DE9F041D5
:1044300090B00190019B0F939C4B1A680F9BDB007F
:1044400013445B681B685B7A032B00F2178101A29F
:1044500052F823F0994602006544020035450200F7
:1044600099460200914B1A680F9BDB0013445B686E
:104470001B685B68002B4BD08C4B1A680F9BDB00D2
:1044800013445B685D68894B1A680F9BDB0013441B
:104490005B681B685B6819464FF000024FF0000331
:1044A0004FF00004D40344EA5144CB0313F5FA77E8
:1044B00044F100084FF47A724FF000033846414649
:1044C00027F0F6FD03460C4619460F9B1A46284670
:1044D00008F00EF80E900E9B0D930D9B002B05D04F
:1044E000734A4FF4B9710D9807F022F802210F9822
:1044F000FFF72AFF0E900E9B0C930C9B002B00F0F5
:10450000CD806B4A4FF4BB710C9807F011F8C5E0F1
:1045100000210F98FFF718FF0E900E9B0B930B9B3B
:10452000002B00F0BB80624A4FF4BE710B9806F07E
:10453000FFFFB3E05D4B1A680F9BDB0013445B6821
:104540001B685B68002B00F0AB80584B1A680F9B10
:10455000DB0013445B685F68544B1A680F9BDB00F9
:1045600013445B681B681B681846FFF709FE034687
:1045700019464FF000024FF000034FF00004D4033F
:1045800044EA5144CB0313F5FA7544F100064FF4A5
:104590007A724FF000032846314627F089FD034622
:1045A0000C4619460F9B1A46384607F0A1FF0E909D
:1045B0000E9B0A930A9B002B05D03D4A4FF4C57110
:1045C0000A9806F0B5FF01210F98FFF7BDFE0E9087
:1045D0000E9B0993099B002B05D0354A40F28F11A1
:1045E000099806F0A5FF334B1B68184601F0D8FB6D
:1045F0000E900E9B0893089B002B05D02C4A4FF47D
:10460000C971089806F094FF284B1A680F9BDB00CD
:1046100013445B681B681B7A0DF10E0219460F9854
:10462000FFF738FD0E900E9B0793079B002B05D0DC
:104630001F4A40F29511079806F07AFFBDF80E3038
:104640001846FFF7B1FD0E900E9B0693069B002BBC
:1046500005D0174A4FF4CC71069806F069FF01F0B7
:104660004DFF0E900E9B0593059B002B18D0104A12
:1046700040F29B11059806F05BFF11E001230E93B9
:104680000E9B0493049B002B0BD0094A40F2AD1102
:10469000049806F04DFF04E000BF02E000BF00E018
:1046A00000BF00BF10B0BDE8F08100BF143700208C
:1046B00028E004001837002084B003900291019292
:1046C0000093019B00221A70039B1B78002B1AD1C8
:1046D000039B5B78FF2B16D1039B9B78002B12D199
:1046E000039BDB78002B0ED1039B1B79002B0AD197
:1046F000039B5B79002B06D1029B00221A70019B61
:1047000001221A7050E0039B1B78002B1AD1039BE7
:104710005B78002B16D1039B9B78002B12D1039B57
:10472000DB78002B0ED1039B1B79002B0AD1039B56
:104730005B79002B06D1029B01221A70019B01229A
:104740001A7031E0039B1B78002B13D1039B9B78DD
:10475000002B0FD1039BDB78002B0BD1039B1B7924
:10476000002B07D1039B5B79002B03D1029B022214
:104770001A7019E0039B9B78002B0AD1029B03223D
:104780001A70039BDB78002B0ED1019B01221A705B
:104790000AE0029B04221A70039BDB78002B03D1F2
:1047A000019B01221A70FFE700BF04B070470000B0
:1047B00000B589B0059003921A460B468DF8133068
:1047C00013468DF812309DF81330012202FA03F3DC
:1047D000ADF81E30904B1B68184601F0E1FA0690C8
:1047E000069B002B0DD08D480AF0C8F90246069BA7
:1047F000009340F2F9138A4902200AF001FA069B5D
:1048000005E19DF81230002B30D1BDF81E3019465D
:10481000002001F043FD0690069B002B0DD07F4841
:104820000AF0ACF90246069B009340F2FF137C4964
:1048300002200AF0E5F9069BE9E0BDF81E301946B2
:10484000002001F079FC0690069B002B00F0CA8046
:1048500072480AF093F90246069B009340F2022345
:104860006F4902200AF0CCF9069BD0E09DF8123087
:10487000012B30D1BDF81E300021184601F05CFC40
:104880000690069B002B0DD064480AF077F902468B
:10489000069B00934FF40273614902200AF0B0F9BD
:1048A000069BB4E0BDF81E301946002001F0F6FC6E
:1048B0000690069B002B00F0958058480AF05EF9A0
:1048C0000246069B009340F20B23554902200AF052
:1048D00097F9069B9BE0039B002B01D10E2396E0EA
:1048E000039B1B781A04039B5B781B021A43039BF0
:1048F0009B78DB001343039AD278134319469DF843
:104900001330484A184601F009FD0690069B002B1B
:104910000DD042480AF032F90246069B009340F25D
:104920001B233F4902200AF06BF9069B6FE0BDF89C
:104930001E30184602F016F90346002B22D0039BC6
:104940001B791B021AB2039B5B791BB213431BB288
:1049500099B29DF8133041F61F72184601F044FDDC
:104960000690069B002B0DD02C480AF007F9024652
:10497000069B00934FF40973294902200AF040F97D
:10498000069B44E0BDF81E300021184601F086FC6D
:104990000690069B002B0DD020480AF0EFF8024647
:1049A000069B00934FF40A731D4902200AF028F970
:1049B000069B2CE0BDF81E301946002001F0BCFB20
:1049C0000690069B002B0DD014480AF0D7F802463B
:1049D000069B00934FF40B73114902200AF010F963
:1049E000069B14E001F08AFD0690069B002B0DD07B
:1049F0000A480AF0C3F80246069B00934FF40C7372
:104A0000074902200AF0FCF8069B00E00023184644
:104A100009B05DF804FB00BF1837002028E004004F
:104A200078E00400FFFF1F0000B587B003900291FB
:104A3000019200238DF81030FF238DF811300023F0
:104A40008DF8123000238DF8133000238DF81430C8
:104A500000238DF81530019B002B08D1029BD9B2A1
:104A6000012300220398FFF7A3FE034617E0019BF2
:104A7000FF2B08D1029BD9B2002300220398FFF735
:104A800097FE03460BE0019BDBB28DF81130029BD1
:104A9000D9B204AA02230398FFF78AFE03461846F8
:104AA00007B05DF804FB000000B587B003900291E9
:104AB000654B1A68039BDB0013445B681B6800228C
:104AC0001A72614B1A68039BDB0013445B685B68D6
