:020000021000EC
:10F000000000012033F10100D9F0010085A60400C1
:10F01000DDF00100DFF00100E1F001000000000080
:10F02000000000000000000000000000E3F001000C
:10F03000E5F0010000000000E7F00100E9F0010048
:10F04000BD660200EDF00100EFF00100D96502009D
:10F05000F3F00100F5F00100D1540200C96702008D
:10F06000FBF00100FDF00100FFF0010001F10100E3
:10F0700003F1010005F1010007F1010009F10100B0
:10F080000BF10100157902005DAD020011F10100E4
:10F090005579020015F101004992020019F10100B1
:10F0A0001BF101001DF101001FF1010021F1010020
:10F0B00023F1010025F10100000000000000000024
:10F0C00027F1010029F101002BF101002DF10100D0
:08F0D0002FF1010031F10100F4
:10F0D800FEE7FEE7FEE7FEE7FEE7FEE7FEE7FEE700
:10F0E800FEE7FEE7FEE7FEE7FEE7FEE7FEE7FEE7F0
:10F0F800FEE7FEE7FEE7FEE7FEE7FEE7FEE7FEE7E0
:10F10800FEE7FEE7FEE7FEE7FEE7FEE7FEE7FEE7CF
:10F11800FEE7FEE7FEE7FEE7FEE7FEE7FEE7FEE7BF
:10F12800FEE7FEE7FEE7FEE7FEE70348854600F058
:10F13800C5F800F003B87047000001203749384887
:10F148000A1A02D0072291438D46364936480A1AD0
:10F1580006D00722914381F30988022282F314889A
:10F1680032483349334A00F048F833483349344A7F
:10F1780000F043F833483449344A00F03EF8344844
:10F188003449354A00F039F834483549354A00F0F1
:10F1980034F835483549364A00F02FF835483649AD
:10F1A800364A00F02AF836483649374A00F025F83A
:10F1B80036483749002200F02BF8364836490022F5
:10F1C80000F026F835483649091A082903DB0022D9
:10F1D8000260043001601F481F49884205D0026858
:10F1E800043003B4904703BCF7E700208646EC469A
:10F1F800002000212B4A9047FEE7884207D0521A88
:10F2080005D0037801300B700131013AF9D170470C
:10F21800884202D002700130FAE7704700000120EE
:10F2280000FC00200000012000000120A0E50400EF
:10F23800F02D0020E42E0020B0F20100B0F2010011
:10F248001CC10400A0E50400F02D0020F02D0020D2
:10F258001CC104001CC104001CC104001CC1040022
:10F268001CC104001CC104001CC104001CC1040012
:10F27800A0E5040094E60400E42E0020E42E00201B
:10F2880094E60400E42E0020F42E0020F42E002042
:10F29800146B0020146B0020146B0020146B0020EA
:08F2A800146F00202500020094
:10F2B000024B034A1A6000BF704700BFF02D0020C8
:10F2C0000090D00308B500F00DF90346002B06D0DE
:10F2D000744B1B681B0A744A03F01F03136000F091
:10F2E0002DF90346002B02D0704B714A1A6000F0D2
:10F2F00041F90346002B06D06E4B1B685B0B6E4A30
:10F3000003F00703136000F061F90346002B05D0FA
:10F310006A4BDB68694A23F08073D36000F072F9AE
:10F320000346002B0ED04FF080430022C3F80C217F
:10F330004FF080430022C3F810214FF08043002299
:10F34000C3F8382500F08AF90346002B02D05C4B45
:10F3500003221A6000F09EF90346002B0BD0594B94
:10F3600005221A60584B01221A60584B00221A607D
:10F37000574B3F221A6000F0A9F90346002B76D0C4
:10F380004FF08053534AD3F80434C2F820354FF07D
:10F390008053504AD3F80834C2F824354FF08053D4
:10F3A0004C4AD3F80C34C2F828354FF08053494A00
:10F3B000D3F81034C2F82C354FF08053454AD3F8B7
:10F3C0001434C2F830354FF08053424AD3F8183421
:10F3D000C2F834354FF080533E4AD3F81C34C2F89B
:10F3E00040354FF080533B4AD3F82034C2F84435BF
:10F3F0004FF08053374AD3F82434C2F848354FF0E1
:10F400008053344AD3F82834C2F84C354FF0805337
:10F41000304AD3F82C34C2F850354FF080532D4A7F
:10F42000D3F83034C2F854354FF08053294AD3F81A
:10F430003434C2F860354FF08053264AD3F838345C
:10F44000C2F864354FF08053224AD3F83C34C2F8F6
:10F4500068354FF080531F4AD3F84034C2F86C35FA
:10F460004FF080531B4AD3F84434C2F8703500F093
:10F4700049F90346002B05D0174B1B68174A03F0C8
:10F480004F031360164BD3F88830154A43F47003CA
:10F49000C2F88830BFF34F8FBFF36F8FFFF708FFBD
:10F4A00000BF08BD240300104035014074C0074070
:10F4B0000DF0ADBA440200103C050040F0ED00E054
:10F4C000A0050040105600408856004018560040E5
:10F4D0001456004000C0004058020010E40E0040E6
:10F4E00000ED00E0124B1B68DBB2062B1DD1114B67
:10F4F0001B6803F00F03002B17D10F4B1B6803F0A1
:10F50000F003302B01D1012310E00B4B1B6803F0FB
:10F51000F003402B01D1012308E0074B1B6803F0E7
:10F52000F003502B01D1012300E00023184670475F
:10F53000E00F00F0E40F00F0E80F00F00A4B1B684A
:10F54000DBB2062B0DD1094B1B6803F00F03002B18
:10F5500007D1074B1B6803F0F003302B01D10123C7
:10F5600000E0002318467047E00F00F0E40F00F0C1
:10F57000E80F00F0124B1B68DBB2062B1DD1114BBC
:10F580001B6803F00F03002B17D10F4B1B6803F010
:10F59000F003302B01D1012310E00B4B1B6803F06B
:10F5A000F003402B01D1012308E0074B1B6803F057
:10F5B000F003502B01D1012300E0002318467047CF
:10F5C000E00F00F0E40F00F0E80F00F00A4B1B68BA
:10F5D000DBB2062B0DD1094B1B6803F00F03002B88
:10F5E00007D1074B1B6803F0F003302B01D1012337
:10F5F00000E0002318467047E00F00F0E40F00F031
:10F60000E80F00F0124B1B68DBB2062B1DD1114B2B
:10F610001B6803F00F03002B17D10F4B1B6803F07F
:10F62000F003302B01D1012310E00B4B1B6803F0DA
:10F63000F003402B01D1012308E0074B1B6803F0C6
:10F64000F003502B01D1012300E00023184670473E
:10F65000E00F00F0E40F00F0E80F00F00A4B1B6829
:10F66000DBB2062B0DD1094B1B6803F00F03002BF7
:10F6700007D1074B1B6803F0F003302B01D10123A6
:10F6800000E0002318467047E00F00F0E40F00F0A0
:10F69000E80F00F00A4B1B68DBB2062B0DD1094BBB
:10F6A0001B6803F00F03002B07D1074B1B6803F007
:10F6B000F003302B01D1012300E0002318467047EE
:10F6C000E00F00F0E40F00F0E80F00F00A4B1B68B9
:10F6D000DBB2062B0DD1094B1B6803F00F03002B87
:10F6E00007D1074B1B6803F0F003502B01D1012316
:10F6F00000E0002318467047E00F00F0E40F00F030
:10F70000E80F00F0124B1B68DBB2062B1DD1114B2A
:10F710001B6803F00F03002B17D10F4B1B6803F07E
:10F72000F003302B01D1012310E00B4B1B6803F0D9
:10F73000F003402B01D1012308E0074B1B6803F0C5
:10F74000F003502B01D1012300E00023184670473D
:10F75000E00F00F0E40F00F0E80F00F07047704792
:10F7600082B003468DF807309DF90730002B0DDB82
:10F770009DF8073003F01F0206499DF907305B0929
:10F78000012000FA02F2603341F8232000BF02B0EA
:10F79000704700BF00E100E0BFF34F8F054BDB680F
:10F7A00003F4E0620349044B1343CB60BFF34F8F74
:10F7B00000BFFDE700ED00E00400FA053EDF704702
:10F7C00000BF184682B001904FF0A043184602B027
:10F7D000704700B585B00190084611461A460346A9
:10F7E0008DF803300B468DF8023013468DF801304A
:10F7F00001AB1846FFF7E6FF03909DF803209DF844
:10F8000002305B001A439DF801309B001A439DF8BB
:10F8100018301B0242EA03019DF81C301B04019AB8
:10F820001943039B02F5E07243F8221000BF05B0B4
:10F830005DF804FB00B585B003900B468DF80B30E6
:10F840009DF80B2000230193002300931346002210
:10F8500000210398FFF7BDFF00BF05B05DF804FB72
:10F8600000B585B0019001AB1846FFF7ABFF0390E0
:10F87000039800F00AF80246019B22FA03F303F012
:10F880000103184605B05DF804FB82B00190019BAE
:10F89000D3F81035184602B07047000084B00190CC
:10F8A000244B0393019B002B40D0234B1A680399F0
:10F8B000019B00BF00BF00BF00BF00BF00BF00BF73
:10F8C00000BF8A422FD000BF00BF00BF00BF00BFF3
:10F8D00000BF00BF00BF00BF00BF00BF00BF00BF30
:10F8E00000BF00BF00BF00BF00BF00BF00BF00BF20
:10F8F00000BF00BF00BF00BF00BF00BF00BF00BF10
:10F9000000BF00BF00BF00BF00BF00BF00BF00BFFF
:10F9100000BF00BF00BF00BF00BF00BF00BF00BFEF
:10F9200000BF00BF00BF013BC3D1019300BF04B0C3
:10F93000704700BF0024F400F02D002000B583B014
:10F940000190019B4FF47A7202FB03F31846FFF714
:10F95000A5FF00BF03B05DF804FB82B04FF0102399
:10F960005B690193019BB3F1FF3F04D14FF08053DA
:10F970005B691B0300E0019B184602B07047000062
:10F98000024BD3F804351846704700BF00B0004062
:10F9900070B58AB0079006910592059B0993099B63
:10F9A0005B68184609F0C0FC0546099B1B881E468B
:10F9B000099B9C68099B9B6818460AF07DF80346E2
:10F9C000184609F0B1FC0346039302940196009592
:10F9D000069B079A0749012009F001FD0520FFF762
:10F9E000ADFF059A0699079807F056F800BF0AB0D0
:10F9F00070BD00BF28C1040000B587B0184A02AB33
:10FA000092E8030018600433197002AB0021184615
:10FA10002BF0AEF81349032009F08CFC04F0D0F869
:10FA200003F07EFF034607EE903AF8EEE77ACDED5D
:10FA3000057A04F027F88DED040A059B0093049BDA
:10FA400001939DED007ADDED017AB0EE470AF0EE0C
:10FA5000670A05482AF0D2FF00BF07B05DF804FB33
:10FA6000B8C104008CC10400F42E002000B585B09C
:10FA7000039001AB83E8060001AB002118462BF090
:10FA800077F8039B103301AA92E80300186004334F
:10FA9000197000BF05B05DF804FB000000B587B029
:10FAA000F1EE103A0193019B23F09F030293029B16
:10FAB000E1EE103AF1EE103A03932620FFF750FEE4
:10FAC000FFF77CFE0590059B0493049B002B04D05C
:10FAD000044AAD21049806F0C7FF00BF07B05DF8E7
:10FAE00004FB00BFC0C1040000B58DB0072000F0CA
:10FAF0005BFB0B900B9B0A930A9B002B04D01F4AC5
:10FB0000BD210A9806F0B0FF1D4B079307AB1846BE
:10FB10002BF074F90B900B9B0993099B002B04D0DD
:10FB2000164AC221099806F09FFF154B0693144B05
:10FB300005930B9B0893089B002B04D00F4ACA2106
:10FB4000089806F091FF02238DF8003002238DF80B
:10FB5000013064238DF80230002343F064038DF8F4
:10FB6000033000238DF804306B4693E80600054807
:10FB7000FFF77CFF00BF0DB05DF804FBC0C10400BF
:10FB80001CC10400F42E002000B585B00B4B01937E
:10FB900001AB184600F078FD0390039B0293029B93
:10FBA000002B04D0064AF521029806F05DFF642080
:10FBB000FFF7C4FE00BF05B05DF804FB70C304008E
:10FBC000C0C1040010B588B0039001238DF818302F
:10FBD0000F238DF819300F238DF81A300F238DF86D
:10FBE0001B3006AB93E806001F48FFF73FFF05AB4D
:10FBF00018461FF02DFF1D4B1B6803F48043002B9C
:10FC00002FD01B4B1B68032B2BDD2F2119482BF00A
:10FC10001BFE0346002B06D02F2116482BF014FEA6
:10FC200003465C1C0EE05C2112482BF00DFE0346DF
:10FC3000002B06D05C210F482BF006FE03465C1C0F
:10FC400000E00C4CFFF79CFE0246BDF81430019317
:10FC5000094B0093134640F20512214604200EF092
:10FC60004DFE00BF08B010BDF42E0020FC2D00207A
:10FC7000002E0020C0C1040014C2040082B0019014
:10FC8000019A044B1033186810601B7913710198A6
:10FC900002B07047F42E002010B586B00590049194
:10FCA00002A981E80C00214B1B6803F48043002B60
:10FCB0002CD01F4B1B68032B28DD2F211D482BF058
:10FCC000C3FD0346002B06D02F211A482BF0BCFDA4
:10FCD00003465C1C0EE05C2116482BF0B5FD034684
:10FCE000002B06D05C2113482BF0AEFD03465C1CB4
:10FCF00000E0104CFFF744FE02460F4B0093134602
:10FD00004FF48872214604200EF0F8FD02AB93E810
:10FD100006000A48FFF7AAFE059B1A4602AB1868C0
:10FD200010601B791371059806B010BDFC2D0020E2
:10FD3000002E0020C0C1040050C20400F42E002098
:10FD400010B584B003908DF808103E4B1B6803F487
:10FD50008043002B2FD03C4B1B68032B2BDD2F2126
:10FD60003A482BF071FD0346002B06D02F2137486F
:10FD70002BF06AFD03465C1C0EE05C2133482BF03F
:10FD800063FD0346002B06D05C2130482BF05CFD60
:10FD900003465C1C00E02D4CFFF7F2FD02469DF887
:10FDA000083001932A4B009313464FF48C7221467E
:10FDB00004200EF0A3FD9DF80830052B3ED801A2CB
:10FDC00052F823F0DDFD0100E7FD01003DFE0100DA
:10FDD000FFFD010017FE01002FFE01001D4B18461C
:10FDE00007F054FE2BE01B4B184607F04FFE194B53
:10FDF00000224FF40041184607F016FE1FE0154B95
:10FE0000184607F043FE134B00224FF420311846EA
:10FE100007F00AFE13E00F4B184607F037FE0D4BB4
:10FE200000224FF4A021184607F0FEFD07E0094B21
:10FE3000184607F02BFEFFF7DFFD00E000BF00BF14
:10FE400004B010BDFC2D0020002E0020C0C1040015
:10FE500064C204000C2F002010B586B003902E4B16
:10FE60001B6803F48043002B2CD02C4B1B68032B06
:10FE700028DD2F212A482BF0E7FC0346002B06D073
:10FE80002F2127482BF0E0FC03465C1C0EE05C2190
:10FE900023482BF0D9FC0346002B06D05C212048D8
:10FEA0002BF0D2FC03465C1C00E01D4CFFF768FD04
:10FEB00002461C4B009313464FF49D7221460420CA
:10FEC0000EF01CFD184B194A5A60174B184A9A60DD
:10FED000154B184ADA60002113482AF059FD0590A5
:10FEE000059B002B05D00E4A4FF49F71059806F034
:10FEF000BBFD0D4B1B8818461CF010F90490049BA9
:10FF0000002B05D0064A40F23F11049806F0ACFDE4
:10FF100000BF06B010BD00BFFC2D0020002E002049
:10FF2000C0C1040084C20400F42E00207DFC010046
:10FF300099FC010041FD010008B5114B012283F835
:10FF400025200F4B0122DA840D4B012283F8292052
:10FF50000B4B0C4A9A630A4B0B4A1A60084B0B4A2C
:10FF60005A60074B072283F83C20054B01221A7484
:10FF7000034B0722DA74024821F0CCFB00BF08BD16
:10FF80002C2F00208CC30400C5FB010059FE01008A
:10FF900000B583B003468DF807309DF80730012B7C
:10FFA00003D10449032009F0C5F900BF03B05DF88F
:10FFB00004FB00BFA4C2040030B589B0002307933E
:10FFC000144B6C461D460FCD0FC42B6823606B4647
:10FFD000184603F04BFB0690069B002B05D00E4AFB
:10FFE00040F26D11069806F03FFD03F02FFC0590DE
:10FFF000059B002B05D0084A4FF4B771059806F011
:020000022000DC
:1000000033FD064A0121064807F0DEFC00BF09B0B7
:1000100030BD00BFD4C20400C0C10400F9F9010022
:1000200024C1040000B589B0002009F02DF9069024
:10003000069B0593059B002B05D0364A40F27911AB
:10004000059806F011FD3449032009F073F90321E6
:100050000B20FFF7EFFB0B20FFF702FC0346002B02
:1000600025D104238DF81330FFF777FC0346A3F561
:10007000E0430393FFF771FC03461A469DF81330E3
:100080001B03D31AA3F5E043079306E0079806F095
:10009000C5FC079B03F580530793039A079B9A427D
:1000A000F4D21E49032009F045F9FFF775FB1C4AFD
:1000B00004214FF480400EF00BFC1A4A3C2108202A
:1000C00006F08EFD0290029B0193019B002B05D050
:1000D000104A4FF4C771019806F0C6FC07F040FCC7
:1000E0000690069B0093009B002B05D0094A4FF415
:1000F000C871009806F0B8FCFFF746FDFFF7F4FC66
:10010000FFF75AFFFFF718FF06F030FEFFF7C6FCB7
:10011000FAE700BFC0C10400E8C2040034C3040011
:1001200095E802006C2F002000B587B00390029183
:100130000192009307F08CFF03468DF81730164BA1
:100140001B789DF817209A4208D29DF817301A465E
:100150001249012009F0FFF80F2318E0009B019AD3
:100160000299039805F05CFD0490049B002B0DD0D0
:100170000B4B1B6801330A4A1360094B1B681A4674
:100180000849012009F0E7F8049B00E00023184625
:1001900007B05DF804FB00BFF42D0020ACC30400E1
:1001A0003C33002004C4040082B003468DF80730BD
:1001B000054A9DF807301370044B00221A60002393
:1001C000184602B0704700BFF42D00203C330020D9
:1001D00084B00190244B0393019B002B40D0234B10
:1001E0001A680399019B00BF00BF00BF00BF00BF9A
:1001F00000BF00BF00BF8A422FD000BF00BF00BFBA
:1002000000BF00BF00BF00BF00BF00BF00BF00BFF6
:1002100000BF00BF00BF00BF00BF00BF00BF00BFE6
:1002200000BF00BF00BF00BF00BF00BF00BF00BFD6
:1002300000BF00BF00BF00BF00BF00BF00BF00BFC6
:1002400000BF00BF00BF00BF00BF00BF00BF00BFB6
:1002500000BF00BF00BF00BF00BF013BC3D101937F
:1002600000BF04B0704700BF0024F400F02D002050
:1002700000B583B00190019B4FF47A7202FB03F347
:100280001846FFF7A5FF00BF03B05DF804FB82B07E
:1002900001904FF0A043184602B0704700B585B0FA
:1002A0000190084611461A4603468DF803300B4666
:1002B0008DF8023013468DF8013001AB1846FFF778
:1002C000E6FF03909DF803209DF802305B001A437F
:1002D0009DF801309B001A439DF818301B0242EA3A
:1002E00003019DF81C301B04019A1943039B02F57E
:1002F000E07243F8221000BF05B05DF804FB00B5C2
:1003000085B0039000230193002300930023012272
:1003100001210398FFF7C2FF00BF05B05DF804FBA1
:1003200000B585B0019001AB1846FFF7B0FF039010
:10033000019B012202FA03F31946039800F018F812
:1003400000BF05B05DF804FB00B585B0019001ABBE
:100350001846FFF79CFF0390019B012202FA03F36A
:100360001946039800F00EF800BF05B05DF804FBD5
:1003700082B001900091019B009AC3F8082500BF4C
:1003800002B0704782B001900091019B009AC3F8BF
:100390000C2500BF02B0704730B589B003AB83E8CD
:1003A000060003468DF817309DF817009DF80C10D5
:1003B0009DF80D409DF80E509DF80F309DF81020CF
:1003C000019200932B46224603F0A4FC0790079B62
:1003D000002B0CD0084808F0A7FF0246079B0093AB
:1003E00069230649022008F0E1FF079B00E0002393
:1003F000184609B030BD00BF44C4040090C40400D6
:1004000030B587B003AB83E8060003468DF817309C
:100410009DF817301E2B33D09DF817009DF80C1057
:100420009DF80D409DF80E509DF80F309DF810205E
:10043000019200932B462246FFF730FF9DF81130C2
:10044000012B09D0022B1AD0002B0BD19DF81730AD
:100450001846FFF779FF13E09DF817301846FFF7AD
:100460005FFF0DE0084808F05FFF02460623009397
:100470008B230649022008F099FF062301E000BF04
:100480000023184607B030BD44C4040090C40400E3
:1004900000B59FB003468DF80F3004AB60220021F9
:1004A00018462BF014FA01238DF8283002238DF81A
:1004B0002D3001238DF8333001238DF8393001239D
:1004C0008DF83F3001238DF8523001238DF85430E0
:1004D00002238DF8573001238DF8583001238DF811
:1004E0005A3002238DF85D3001238DF863300123EB
:1004F0008DF8693001238DF86F309DF80F30002B97
:100500003DD00023ADF8763000238DF875301CE027
:100510009DF8752013465B0013445B001EAA13442C
:10052000633B1B78012B0BD19DF87530012202FA39
:1005300003F31AB2BDF9763013431BB2ADF876302F
:100540009DF8753001338DF875309DF875300F2B9F
:10055000DED9BDF87630184603F020FE1C901C9BB7
:10056000002B0CD0224808F0DFFE02461C9B0093B3
:10057000AC232049022008F019FF1C9B33E0002324
:100580008DF874302AE09DF8742013465B00134404
:100590005B001EAA1344683B9DF874001A68002192
:1005A00011469A88002362F30F031A46FFF7F4FE00
:1005B0001C901C9B002B0CD00D4808F0B5FE024689
:1005C0001C9B0093B2230B49022008F0EFFE1C9BFA
:1005D00009E09DF8743001338DF874309DF8743063
:1005E0000F2BD0D9002318461FB05DF804FB00BFC5
:1005F00044C4040090C4040000B5B5B01F4A02AB67
:100600001146C02218462BF039F900238DF8CF305F
:100610002AE09DF8CF2013465B0013445B0034AA08
:100620001344C83B9DF8CF001A68002111469A88F0
:10063000002362F30F031A46FFF7E2FE3290329B6B
:10064000002B0CD00E4808F06FFE0246329B009340
:10065000C5230C49022008F0A9FE329B09E09DF851
:10066000CF3001338DF8CF309DF8CF301F2BD0D94C
:100670000023184635B05DF804FB00BFF0C4040049
:1006800044C4040090C4040000B587B00390FFF791
:10069000B3FF0590059B002B0CD0224808F044FEC8
:1006A0000246059B0093E4231F49022008F07EFECA
:1006B000059B32E01E20FFF722FE1E20FFF730FED2
:1006C0000520FFF7D5FD0121039803F0B7FD059044
:1006D000059B002B0CD0134808F026FE0246059B14
:1006E0000093EB231049022008F060FE059B14E004
:1006F0000120FFF7CDFE0590059B002B0CD009488B
:1007000008F012FE0246059B0093EE2306490220E4
:1007100008F04CFE059B00E00023184607B05DF88A
:1007200004FB00BF44C4040090C4040082B00190E4
:100730004FF0A043184602B0704700B585B0019055
:10074000084611461A4603468DF803300B468DF8CD
:10075000023013468DF8013001AB1846FFF7E6FF73
:1007600003909DF803209DF802305B001A439DF82A
:1007700001309B001A439DF818301B0242EA030126
:100780009DF81C301B04019A1943039B02F5E0728B
:1007900043F8221000BF05B05DF804FB00B585B03A
:1007A00003900023019300230093002301220121E1
:1007B0000398FFF7C2FF00BF05B05DF804FB00B56A
:1007C00085B0019001AB1846FFF7B0FF0390019B85
:1007D000012202FA03F31946039800F018F800BF4B
:1007E00005B05DF804FB00B585B0019001AB18467B
:1007F000FFF79CFF0390019B012202FA03F31946C5
:10080000039800F00EF800BF05B05DF804FB82B05D
:1008100001900091019B009AC3F8082500BF02B027
:10082000704782B001900091019B009AC3F80C259B
:1008300000BF02B07047000084B00190244B0393C6
:10084000019B002B40D0234B1A680399019B00BFEA
:1008500000BF00BF00BF00BF00BF00BF00BF8A4293
:100860002FD000BF00BF00BF00BF00BF00BF00BF50
:1008700000BF00BF00BF00BF00BF00BF00BF00BF80
:1008800000BF00BF00BF00BF00BF00BF00BF00BF70
:1008900000BF00BF00BF00BF00BF00BF00BF00BF60
:1008A00000BF00BF00BF00BF00BF00BF00BF00BF50
:1008B00000BF00BF00BF00BF00BF00BF00BF00BF40
:1008C00000BF013BC3D1019300BF04B0704700BF1C
:1008D0000024F400F02D002082B00190064B1A682D
:1008E000019BDB0013441B78012B0CBF0123002369
:1008F000DBB2184602B070474033002082B001904E
:10090000064B1A68019BDB0013441B78002B0CBFBD
:1009100001230023DBB2184602B0704740330020A9
:1009200082B003468DF807309DF80730102B01D9AF
:10093000012300E00023184602B0704700B585B0DF
:1009400003900B4601928DF80B30019B00221A8018
:100950000398FFF7D3FF0346002B0CD0314B1A68E6
:10096000039BDB0013445B781A46012393409AB241
:10097000019B1A8050E00398FFF7AEFF0346002B5F
:1009800048D09DF80B3003F00103002B11D0019BE0
:100990001B881AB2234B1968039BDB000B445B785E
:1009A000194601238B401BB213431BB29AB2019B21
:1009B0001A809DF80B3003F00203002B11D0019B2D
:1009C0001B881AB2174B1968039BDB000B449B78FA
:1009D000194601238B401BB213431BB29AB2019BF1
:1009E0001A809DF80B3003F00403002B14D0019BF8
:1009F0001B881AB20B4B1968039BDB000B44DB7896
:100A0000194601238B401BB213431BB29AB2019BC0
:100A10001A8001E0012300E00023184605B05DF8CC
:100A200004FB00BF4033002082B00190019B074AC5
:100A3000A2FB03235A0913469B001344DB001A460A
:100A4000019B1344184602B0704700BF1F85EB514D
:100A500000B587B00346ADF80E30BDF80E3000216A
:100A6000184601F0BDFF0590059B002B0CD01448E3
:100A700008F05AFC0246059B0093C7231149022047
:100A800008F094FC059B17E0BDF80E3019460020D5
:100A900001F0A6FF0590059B002B0CD0084808F03C
:100AA00043FC0246059B0093CA230649022008F036
:100AB0007DFC059B00E00023184607B05DF804FBB1
:100AC0006CC60400BCC6040000B58BB003468DF8AC
:100AD0000730444B1B788DF82730424B1B78002B96
:100AE00006D19DF90730B3F1FF3F01D1022374E035
:100AF0003C4B1A789DF807301344DAB2394B1A7020
:100B0000384B1B78012B30D19DF82730002B2CD18E
:100B1000354B1B68184601F097FD0890089B07931A
:100B2000079B002B04D0314AEC21079805F09CFF6D
:100B30006021402001F094FF0890089B0693069BDB
:100B4000002B04D0294AF021069805F08DFF02F011
:100B500029F90890089B0593059B002B3BD0234A5D
:100B6000F721059805F080FF35E01E4B1B78002B20
:100B700032D19DF82730012B2ED11B4B1B68184614
:100B800001F062FD0890089B0493049B002B04D0A5
:100B9000164AFC21049805F067FF6021002001F04F
:100BA0005FFF0890089B0393039B002B04D00F4A20
:100BB000FF21039805F058FF02F0F4F80890089B15
:100BC0000293029B002B07D0084A4FF483710298CE
:100BD00005F04AFF00E000BF002318460BB05DF8A7
:100BE00004FB00BF55330020443300206CC60400D2
:100BF00000B587B003900B468DF80B30314B1A6867
:100C0000039BDB0013445B681B685B7A8DF817302D
:100C10009DF817302C4AD2569DF80B302A49CB56F6
:100C20009A4240D09DF81730274AD2569DF80B3093
:100C30002549CB569A4214DA0120FFF745FF04906C
:100C4000049B002B2FD0214808F06EFB0246049B2A
:100C500000934FF4A4731E49022008F0A7FB049BE5
:100C60002CE09DF81730184AD2569DF80B301649E3
:100C7000CB569A4215DD4FF0FF30FFF725FF049069
:100C8000049B002B0FD0114808F04EFB0246049B3A
:100C900000934FF4A7730E49022008F087FB049BD2
:100CA0000CE002230AE0074B1A68039BDB001344A5
:100CB0005B681B689DF80B205A720023184607B02A
:100CC0005DF804FB4033002068C604006CC60400D5
:100CD000BCC604002DE9F04190B00190019B0F9338
:100CE0009C4B1A680F9BDB0013445B681B685B7AA4
:100CF000032B00F2178101A252F823F0410F0200EA
:100D00000D0D0200DD0D0200410F0200914B1A682B
:100D10000F9BDB0013445B681B685B68002B4BD0A8
:100D20008C4B1A680F9BDB0013445B685D68894B32
:100D30001A680F9BDB0013445B681B685B681946ED
:100D40004FF000024FF000034FF00004D40344EAD8
:100D50005144CB0313F5FA7744F100084FF47A724B
:100D60004FF00003384641462AF06CFB03460C4620
:100D700019460F9B1A46284606F056FE0E900E9B0B
:100D80000D930D9B002B05D0734A4FF4B9710D984C
:100D900005F06AFE02210F98FFF72AFF0E900E9BC6
:100DA0000C930C9B002B00F0CD806B4A4FF4BB7171
:100DB0000C9805F059FEC5E000210F98FFF718FFC9
:100DC0000E900E9B0B930B9B002B00F0BB80624A96
:100DD0004FF4BE710B9805F047FEB3E05D4B1A6807
:100DE0000F9BDB0013445B681B685B68002B00F003
:100DF000AB80584B1A680F9BDB0013445B685F683D
:100E0000544B1A680F9BDB0013445B681B681B681C
:100E10001846FFF709FE034619464FF000024FF04F
:100E200000034FF00004D40344EA5144CB0313F50C
:100E3000FA7544F100064FF47A724FF00003284629
:100E400031462AF0FFFA03460C4619460F9B1A4614
:100E5000384606F0E9FD0E900E9B0A930A9B002B84
:100E600005D03D4A4FF4C5710A9805F0FDFD0121FA
:100E70000F98FFF7BDFE0E900E9B0993099B002B68
:100E800005D0354A40F28F11099805F0EDFD334B3E
:100E90001B68184601F0D8FB0E900E9B0893089B28
:100EA000002B05D02C4A4FF4C971089805F0DCFDE1
:100EB000284B1A680F9BDB0013445B681B681B7A86
:100EC0000DF10E0219460F98FFF738FD0E900E9B9C
:100ED0000793079B002B05D01F4A40F295110798F6
:100EE00005F0C2FDBDF80E301846FFF7B1FD0E90BB
:100EF0000E9B0693069B002B05D0174A4FF4CC712E
:100F0000069805F0B1FD01F04DFF0E900E9B059384
:100F1000059B002B18D0104A40F29B11059805F054
:100F2000A3FD11E001230E930E9B0493049B002B61
:100F30000BD0094A40F2AD11049805F095FD04E08C
:100F400000BF02E000BF00E000BF00BF10B0BDE87E
:100F5000F08100BF403300206CC604004433002001
:100F600084B00390029101920093019B00221A70B9
:100F7000039B1B78002B1AD1039B5B78FF2B16D1A8
:100F8000039B9B78002B12D1039BDB78002B0ED1A7
:100F9000039B1B79002B0AD1039B5B79002B06D1A5
:100FA000029B00221A70019B01221A7050E0039BE1
:100FB0001B78002B1AD1039B5B78002B16D1039B67
:100FC0009B78002B12D1039BDB78002B0ED1039B67
:100FD0001B79002B0AD1039B5B79002B06D1029B66
:100FE00001221A70019B01221A7031E0039B1B78C9
:100FF000002B13D1039B9B78002B0FD1039BDB7835
:10100000002B0BD1039B1B79002B07D1039B5B7932
:10101000002B03D1029B02221A7019E0039B9B78DC
:10102000002B0AD1029B03221A70039BDB78002B52
:101030000ED1019B01221A700AE0029B04221A7051
:10104000039BDB78002B03D1019B01221A70FFE781
:1010500000BF04B07047000000B589B0059003924E
:101060001A460B468DF8133013468DF812309DF852
:101070001330012202FA03F3ADF81E30904B1B68C7
:10108000184601F0E1FA0690069B002B0DD08D4822
:1010900008F04AF90246069B009340F2F9138A4988
:1010A000022008F083F9069B05E19DF81230002B21
:1010B00030D1BDF81E301946002001F043FD0690E6
:1010C000069B002B0DD07F4808F02EF90246069BA8
:1010D000009340F2FF137C49022008F067F9069B59
:1010E000E9E0BDF81E301946002001F079FC0690B9
:1010F000069B002B00F0CA80724808F015F90246E2
:10110000069B009340F202236F49022008F04EF93B
:10111000069BD0E09DF81230012B30D1BDF81E3077
:101120000021184601F05CFC0690069B002B0DD0B8
:10113000644808F0F9F80246069B00934FF40273E6
:101140006149022008F032F9069BB4E0BDF81E3078
:101150001946002001F0F6FC0690069B002B00F0DB
:101160009580584808F0E0F80246069B009340F24C
:101170000B235549022008F019F9069B9BE0039BBD
:10118000002B01D10E2396E0039B1B781A04039BCE
:101190005B781B021A43039B9B78DB001343039A83
:1011A000D278134319469DF81330484A184601F087
:1011B00009FD0690069B002B0DD0424808F0B4F8BC
:1011C0000246069B009340F21B233F49022008F091
:1011D000EDF8069B6FE0BDF81E30184603F052F89C
:1011E0000346002B22D0039B1B791B021AB2039BE0
:1011F0005B791BB213431BB299B29DF8133041F6D1
:101200001F72184601F044FD0690069B002B0DD07E
:101210002C4808F089F80246069B00934FF40973A6
:101220002949022008F0C2F8069B44E0BDF81E30B0
:101230000021184601F086FC0690069B002B0DD07D
:10124000204808F071F80246069B00934FF40A7399
:101250001D49022008F0AAF8069B2CE0BDF81E30BC
:101260001946002001F0BCFB0690069B002B0DD018
:10127000144808F059F80246069B00934FF40B738C
:101280001149022008F092F8069B14E001F08AFD53
:101290000690069B002B0DD00A4808F045F8024640
:1012A000069B00934FF40C730749022008F07EF868
:1012B000069B00E00023184609B05DF804FB00BF60
:1012C000443300206CC60400BCC60400FFFF1F00AE
:1012D00000B587B003900291019200238DF8103081
:1012E000FF238DF8113000238DF8123000238DF884
:1012F000133000238DF8143000238DF81530019B36
:10130000002B08D1029BD9B2012300220398FFF7DA
:10131000A3FE034617E0019BFF2B08D1029BD9B225
:10132000002300220398FFF797FE03460BE0019B82
:10133000DBB28DF81130029BD9B204AA02230398C4
:10134000FFF78AFE0346184607B05DF804FB00006D
:1013500000B587B003900291654B1A68039BDB00D0
:1013600013445B681B6800221A72614B1A68039B66
:10137000DB0013445B685B68184606F087FB05904A
:10138000059B002B0DD05B4807F0CEFF0246059B66
:10139000009340F259235849022008F007F8059BB2
:1013A000A1E0029B1B78002B03D0029B1B78FF2B34
:1013B00025D1029B5B78002B03D0029B5B78FF2B2F
:1013C0001DD1029B9B78002B03D0029B9B78FF2BA7
:1013D00015D100210398FFF70BFC0590059B002B0E
:1013E00023D0444807F0A0FF0246059B00934FF42A
:1013F00018734149022007F0D9FF059B73E00321D0
:101400000398FFF7F5FB0590059B002B0DD039489D
:1014100007F08AFF0246059B009340F26523364998
:10142000022007F0C3FF059B5DE0314B1A68039B68
:10143000DB0013445B781946029B1B781A4603981D
:10144000FFF746FF0590059B002B0DD0294807F0BC
:101450006BFF0246059B009340F269232649022058
:1014600007F0A4FF059B3EE0214B1A68039BDB00BD
:1014700013449B781946029B5B781A460398FFF742
:1014800027FF0590059B002B0DD01A4807F04CFF55
:101490000246059B00934FF41B731749022007F087
:1014A00085FF059B1FE0124B1A68039BDB0013446A
:1014B000DB781946029B9B781A460398FFF708FFD2
:1014C0000590059B002B0DD00A4807F02DFF024622
:1014D000059B009340F26F230749022007F066FF47
:1014E000059B00E00023184607B05DF804FB00BF31
:1014F000403300206CC60400BCC6040000B58DB0AB
:1015000005900491039202930598FFF7F7F90346BB
:10151000002B1ED0504B1A68059BDB0013445978F2
:10152000029B1B78049A0598FFF796FD0A900A9B88
:10153000002B00F08C80494807F0F6FE02460A9B1B
:10154000009340F281234649022007F02FFF0A9BB7
:101550007EE00598FFF7C0F90346002B75D03E4B9F
:101560001A68059BDB0013445B7807933A4B1A68B3
:10157000059BDB0013449B780893374B1A68059B47
:10158000DB001344DB780993364A06AB1268114638
:1015900019800233120C1A7000238DF82F304FE09F
:1015A000039B1A789DF82F300CA90B4413F8183CB4
:1015B0001340DBB2002B1FD09DF82F309B000CAAEC
:1015C000134453F8143CD9B2029B1B78049A059833
:1015D000FFF742FD0A900A9B002B2CD01F4807F012
:1015E000A3FE02460A9B009340F28E231C49022070
:1015F00007F0DCFE0A9B2BE09DF82F309B000CAA25
:10160000134453F8143CD9B20123049A0598FFF708
:1016100023FD0A900A9B002B0DD0104807F084FE92
:1016200002460A9B009340F293230D49022007F0E3
:10163000BDFE0A9B0CE09DF82F3001338DF82F3052
:101640009DF82F30022BABD901E0012300E00023ED
:1016500018460DB05DF804FB403300206CC6040052
:10166000BCC6040010C704002DE9F0418AB0039005
:1016700002919D4B1A68039BDB0013445B681B6857
:10168000029A12781A72029BDB680993964B1A68C9
:10169000039BDB0013445B685B68184606F0F6F9B1
:1016A0000890089B002B0DD0904807F03DFE0246A5
:1016B000089B009340F2B3238D49022007F076FE89
:1016C000089B31E20DF11E031A4607210398FFF72C
:1016D00035F90890089B002B0DD0844807F024FEB4
:1016E0000246089B009340F2B6238149022007F08E
:1016F0005DFE089B18E2BDF81E00029B043306AA9B
:10170000194603F0D5F90890089B012B10D0089BCF
:10171000002B0DD0754807F007FE0246089B00938A
:101720004FF42F737249022007F040FE089BFBE143
:10173000029B04330DF116020DF1170106A8FFF705
:101740000FFC9DF81730042B00F2ED8101A252F836
:1017500023F000BF69170200C91702002918020010
:1017600089180200BB19020000210398FFF740FA14
:101770000890089B002B0DD05C4807F0D5FD024671
:10178000089B00934FF432735949022007F00EFE74
:10179000089BC9E1029A0DF1170306A90398FFF708
:1017A000ADFE0890089B002B00F0B4814F4807F075
:1017B000BBFD0246089B009340F2CB234C4902201C
:1017C00007F0F4FD089BAFE100210398FFF710FA42
:1017D0000890089B002B0DD0444807F0A5FD024659
:1017E000089B009340F2D1234149022007F0DEFD1F
:1017F000089B99E1029A0DF1170306A90398FFF7D8
:101800007DFE0890089B002B00F08681374807F08A
:101810008BFD0246089B00934FF435733449022038
:1018200007F0C4FD089B7FE103210398FFF7E0F96F
:101830000890089B002B0DD02C4807F075FD024640
:10184000089B009340F2DA232949022007F0AEFDFD
:10185000089B69E1029A0DF1170306A90398FFF7A7
:101860004DFE0890089B002B00F058811F4807F0A0
:101870005BFD0246089B009340F2DD231C490220D9
:1018800007F094FD089B4FE101210398FFF7B0F9A1
:101890000890089B002B0DD0144807F045FD024628
:1018A000089B009340F2E3231149022007F07EFDDC
:1018B000089B39E1029A0DF1170306A90398FFF777
:1018C0001DFE0890089B002B14D0084807F02CFD43
:1018D0000246089B009340F2E6230549022007F0E8
:1018E00065FD089B20E100BF403300206CC604006A
:1018F000BCC604009DF81630002B00F011818C4B03
:101900001A68039BDB0013445B681B6800225A6063
:10191000029B5A69029B5B68D118029B9A69844BAF
:101920001868039BDB0003445B681B680A441A6069
:101930007F4B1A68039BDB0013445B685D687C4B3C
:101940001A68039BDB0013445B681B681B6818461E
:10195000FFF76AF8034619464FF000024FF0000304
:101960004FF00004D40344EA5144CB0313F5FA7753
:1019700044F100084FF47A724FF0000338464146B4
:1019800029F060FD03460C461946039B1A4628467B
:1019900006F04AF80890089B002B00F0C1806548CB
:1019A00007F0C2FC0246089B009340F2F223624912
:1019B000022007F0FBFC089BB6E09DF81630002BD8
:1019C00018D000238DF81A3001210398FFF710F981
:1019D0000890089B002B23D0564807F0A5FC024630
:1019E000089B00934FF43F735349022007F0DEFC3D
:1019F000089B99E003210398FFF7FAF80890089BE9
:101A0000002B0DD04B4807F08FFC0246089B00933B
:101A100040F201334849022007F0C8FC089B83E0EC
:101A2000029A0DF1170306A90398FFF767FD0890C6
:101A3000089B002B0DD03F4807F076FC0246089B20
:101A4000009340F205333C49022007F0AFFC089BAD
:101A50006AE09DF81630002B64D0354B1A68039B62
:101A6000DB0013445B681B68099A5A60029B5A6941
:101A7000029B5B68D118029B9A692D4B1868039BE7
:101A8000DB0003445B681B680A441A60284B1A6831
:101A9000039BDB0013445B685F68254B1A68039B5C
:101AA000DB0013445B681B681B681846FEF7BCFF2D
:101AB000034619464FF000024FF000034FF00004B8
:101AC000D40344EA5144CB0313F5FA7544F10006FC
:101AD0004FF47A724FF000032846314629F0B2FCE9
:101AE00003460C461946039B1A46384605F09CFFF0
:101AF0000890089B002B15D00E4807F015FC0246F5
:101B0000089B009340F211330B49022007F04EFC72
:101B1000089B09E000BF06E000BF04E000BF02E050
:101B200000BF00E000BF002318460AB0BDE8F08106
:101B3000403300206CC60400BCC6040008B5074B47
:101B40001B781846FEF74FFE0120FEF775FE034B8B
:101B50001B781846FEF733FE00BF08BD5433002043
:101B600000B58DB00390204B1B68013B039A9A424D
:101B700002D8039B102B06D901221C49012007F033
:101B8000EAFB01232BE000230593FF238DF8183097
:101B90000023079300238DF82030002309930023AE
:101BA0000A9300238DF8183007238DF8103004AB0A
:101BB00019460398FFF758FD0B900B9B002B0DD097
:101BC0000B4807F0B1FB02460B9B009340F25A33DF
:101BD0000849022007F0EAFB0B9B00E000231846AF
:101BE0000DB05DF804FB00BF5033002014C70400A3
:101BF0006CC60400BCC6040000B587B00390029117
:101C00001B4B1B68013B039A9A4202D8039B102B83
:101C100006D901221749012007F09DFB012323E08B
:101C2000029B002B01D10E231EE00398FEF766FEF7
:101C30000346002B01D0032316E002990398FFF717
:101C400087FB0590059B002B0DD00B4807F06CFB24
:101C50000246059B009340F283330849022007F0B7
:101C6000A5FB059B00E00023184607B05DF804FBC8
:101C70005033002014C704006CC60400BCC6040026
:101C800000B587B0039002911C4B1B68013B039A7F
:101C90009A4202D8039B102B06D901221849012031
:101CA00007F059FB012325E0029B002B01D10E23F5
:101CB00020E0FFF743FF0398FEF720FE0346002BCA
:101CC00001D0032316E002990398FFF7CDFC05909D
:101CD000059B002B0DD00B4807F026FB0246059B09
:101CE000009340F2B2330849022007F05FFB059BE6
:101CF00000E00023184607B05DF804FB50330020D5
:101D000014C704006CC60400BCC6040000B589B04A
:101D100003900B468DF80B300023ADF81630039B73
:101D2000002B01D10E23B4E2039B1B68002B01D1D1
:101D30000E23AEE2039B1B685B68002B01D10E23D0
:101D4000A7E2039B9B68002B01D10E23A1E2039B1A
:101D50001B79102B03D8039B1B79002B12D1012375
:101D60000693069B002B0DD0A44807F0DDFA02462F
:101D7000069B009340F2C533A149022007F016FBF1
:101D8000069B86E2039B5B79072B12D901230693FE
:101D9000069B002B0DD0994807F0C6FA0246069B19
:101DA00000934FF473739649022007F0FFFA069BE5
:101DB0006FE2039B1B681B78002B17D0039B1B68EB
:101DC0001B78012B12D001230693069B002B0DD00C
:101DD0008A4807F0A9FA0246069B009340F2D333E3
:101DE0008749022007F0E2FA069B52E2039B1B6838
:101DF000844A1360039B1B791A46834B1A60039B2A
:101E00005A79824B1A70814B1B78013B804A42FA07
:101E100003F31A467F4B1A60039B9B687E4A13604C
:101E2000039B1A7B7D4B1A707A4B1B6819464FF245
:101E3000F00002F0BBFE00F0FFFB774B1B6818467A
:101E400000F002FC0690069B002B0DD06B4807F0BB
:101E50006BFA0246069B00934FF47A73684902209E
:101E600007F0A4FA069B14E29DF80B30002B13D068
:101E700000F06EFF0690069B002B0DD05F4807F028
:101E800053FA0246069B009340F2ED335C49022070
:101E900007F08CFA069BFCE15C4B1B781B01DBB264
:101EA0007021184600F01CFE0690069B002B0DD0FA
:101EB000524807F039FA0246069B009340F2F2338B
:101EC0004F49022007F072FA069BE2E1534B1B7860
:101ED000FF2B1FD00421042000F002FE0690069B79
:101EE000002B0DD0454807F01FFA0246069B0093D1
:101EF0004FF47E734249022007F058FA069BC8E16E
:101F0000464B1B781846FEF749FC444B1B78184695
:101F1000FEF755FC00230793A0E13A4B1A68079B94
:101F2000DB0013445B681B6800225A72354B1A6849
:101F3000079BDB0013445B680433394A00211846D1
:101F400005F042FD0690069B002B0DD02B4807F0B4
:101F5000EBF90246069B009340F204432849022015
:101F600007F024FA069B94E10DF116031A460721A7
:101F70000798FEF7E3FC0690069B002B0DD01F4848
:101F800007F0D2F90246069B009340F207431C4932
:101F9000022007F00BFA069B7BE1BDF816301946CC
:101FA000002000F075FB0690069B002B0DD0134817
:101FB00007F0BAF90246069B009340F20B43104922
:101FC000022007F0F3F9069B63E1BDF8163000210B
:101FD000184600F005FD0690069B002B22D007480E
:101FE00007F0A2F90246069B009340F20E43044913
:101FF000022007F0DBF9069B4BE100BF6CC6040032
:10200000BCC6040040330020503300204C33002075
:1020100080841E00483300204433002054330020C5
:10202000D50C0200BDF816301946002000F0B0FBB8
:102030000690069B002B0DD0984807F075F90246D4
:10204000069B009340F211439549022007F0AEF938
:10205000069B1EE1BDF816301946002000F0D8FBA3
:102060000690069B002B0DD08C4807F05DF90246C8
:10207000069B009340F214438949022007F096F929
:10208000069B06E1BDF816301946002000F000FC62
:102090000690069B002B0DD0804807F045F90246BC
:1020A000069B009340F217437D49022007F07EF91A
:1020B000069BEEE00798FEF721FC0346002B3AD082
:1020C000784B1A68079BDB0013445B781846FEF7D1
:1020D00027FC0690069B002B0DD0704807F024F9D2
:1020E0000246069B009340F21C436D49022007F014
:1020F0005DF9069BCDE06B4B1A68079BDB00134430
:102100005B781A46012393409BB21946002000F0E9
:10211000FFFB0690069B002B0DD0604807F004F9EA
:102120000246069B009340F21F435D49022007F0E0
:102130003DF9069BADE00798FEF7CEFB0346002B6A
:1021400000F08980574B1A68079BDB0013445B78CB
:102150001846FEF7E5FB0690069B002B0DD04F4876
:1021600007F0E2F80246069B009340F225434C49F3
:10217000022007F01BF9069B8BE04A4B1A68079B6D
:10218000DB0013449B781846FEF7CAFB0690069BBB
:10219000002B0DD0414807F0C7F80246069B00937C
:1021A0004FF485633E49022007F000F9069B70E07A
:1021B0003C4B1A68079BDB001344DB781846FEF79C
:1021C000AFFB0690069B002B0DD0344807F0ACF80F
:1021D0000246069B009340F22B433149022007F050
:1021E000E5F8069B55E02F4B1A68079BDB0013446C
:1021F0005B781A46012393409AB22A4B1968079BD1
:10220000DB000B449B78194601238B409BB21343A0
:102210009AB2244B1968079BDB000B44DB78194604
:1022200001238B409BB213439BB21946002000F060
:102230006FFB0690069B002B0DD0184807F074F832
:102240000246069B00934FF486631549022007F06F
:10225000ADF8069B1DE0079B01330793124B1B68EB
:10226000079A9A42FFF459AE00F09CFD0690069B37
:10227000002B0DD0094807F057F80246069B009343
:1022800040F235430649022007F090F8069B00E033
:102290000023184609B05DF804FB00BF6CC60400BB
:1022A000BCC60400403300205033002084B00190AD
:1022B000244B0393019B002B40D0234B1A680399B6
:1022C000019B00BF00BF00BF00BF00BF00BF00BF39
:1022D00000BF8A422FD000BF00BF00BF00BF00BFB9
:1022E00000BF00BF00BF00BF00BF00BF00BF00BFF6
:1022F00000BF00BF00BF00BF00BF00BF00BF00BFE6
:1023000000BF00BF00BF00BF00BF00BF00BF00BFD5
:1023100000BF00BF00BF00BF00BF00BF00BF00BFC5
:1023200000BF00BF00BF00BF00BF00BF00BF00BFB5
:1023300000BF00BF00BF013BC3D1019300BF04B089
:10234000704700BF0024F400F02D002000B583B0DA
:102350000190019B4FF47A7202FB03F31846FFF7DA
:10236000A5FF00BF03B05DF804FB82B003468DF803
:1023700007309DF80730032B08D89DF807301A4620
:1023800052001344DBB22933DBB227E09DF807305B
:10239000072B08D89DF807301A4692001344DBB289
:1023A0002133DBB21AE09DF807300B2B08D89DF8DB
:1023B00007301A4652001344DBB23133DBB20DE072
:1023C0009DF807300F2B08D89DF807301A46920069
:1023D0001344DBB21933DBB200E0FF23184602B02E
:1023E000704782B003468DF807309DF80730032B05
:1023F0000CD99DF80730072B08D89DF807301A46EE
:1024000092001344DBB22433DBB211E09DF80730B5
:102410000B2B0CD99DF807300F2B08D89DF80730EF
:102420001A4692001344DBB21C33DBB200E0FF23F8
:10243000184602B07047000000B587B003460A4650
:102440008DF80F3013468DF80E30154B1B68002B9E
:1024500020D0134B1B685B680593114B1B681B78DE
:102460008DF813309DF80F308DF810309DF80E3038
:102470008DF8113004AA9DF8131000230093022355
:10248000059803F0B9FF0346002B0CBF012300237E
:10249000DBB200E00023184607B05DF804FB00BF84
:1024A0005833002000B587B0034602918DF80F30F5
:1024B000154B1B68002B21D0134B1B685B680593E1
:1024C000114B1B681B788DF813300DF10F029DF82E
:1024D0001310012300930123059803F08DFF034699
:1024E000002B0BD19DF813100123029A059803F0DD
:1024F000AEFF0346002B01D1012300E00023184664
:1025000007B05DF804FB00BF5833002000B585B06C
:1025100003468DF807300B468DF8063013468DF8CC
:1025200005309DF806209DF805301343DBB2002BE3
:102530000CBF012300238DF80F309DF806209DF875
:1025400005301340DBB2002B42D19DF80F3083F0F1
:102550000103DBB2002B3BD0204B1B68002B37D094
:102560000DF10D029DF8073011461846FFF79AFF4E
:102570000346002B2CD09DF80D308DF80E309DF8C1
:102580000D209DF806301343DBB28DF80D309DF918
:102590000530DB435AB29DF80D305BB213405BB29D
:1025A000DBB28DF80D309DF80D309DF80E209A426B
:1025B0000AD09DF80D209DF8073011461846FFF708
:1025C0003BFF0346002B01D0012303E0002301E081
:1025D0009DF80F30184605B05DF804FB5833002015
:1025E00000B587B0034602918DF80F30114B1B6880
:1025F000002B1AD00F4B1B685B6805930D4B1B68B3
:102600001B788DF813309DF80F209DF813100023D0
:1026100000931346029A059803F0EEFE0346002B42
:102620000CBF01230023DBB200E00023184607B0F3
:102630005DF804FB58330020024B00221A6000BFF3
:10264000704700BF5833002000B583B001900F4B96
:102650001B68002B14D1019B5868019B99680023CB
:102660000022FDF761FD0346002B09D1019B5B6849
:10267000184603F097FB054A019B1360002300E016
:102680000123184603B05DF804FB00BF5833002057
:1026900000B583B003460A46ADF806301346ADF8E0
:1026A0000430BDF80620BDF8043013409BB2002B67
:1026B00001D0022328E0BDF806301B0A9BB2D9B234
:1026C000BDF804301B0A9BB2DBB21A460020FFF7AC
:1026D0001DFF034683F00103DBB2002B01D0012371
:1026E00012E0BDF80630DBB2BDF80420D2B21946C4
:1026F0000120FFF70BFF034683F00103DBB2002B41
:1027000001D0012300E00023184603B05DF804FB6C
:1027100000B583B003460A46ADF806301346ADF85F
:102720000430BDF80620BDF8043013409BB2002BE6
:1027300001D0022328E0BDF806301B0A9BB2D9B2B3
:10274000BDF804301B0A9BB2DBB21A460220FFF729
:10275000DDFE034683F00103DBB2002B01D0012331
:1027600012E0BDF80630DBB2BDF80420D2B2194643
:102770000320FFF7CBFE034683F00103DBB2002BFF
:1027800001D0012300E00023184603B05DF804FBEC
:1027900000B583B003460A46ADF806301346ADF8DF
:1027A0000430BDF80620BDF8043013409BB2002B66
:1027B00001D0022328E0BDF806301B0A9BB2D9B233
:1027C000BDF804301B0A9BB2DBB21A460620FFF7A5
:1027D0009DFE034683F00103DBB2002B01D00123F1
:1027E00012E0BDF80630DBB2BDF80420D2B21946C3
:1027F0000720FFF78BFE034683F00103DBB2002BBB
:1028000001D0012300E00023184603B05DF804FB6B
:1028100000B583B003460A46ADF806301346ADF85E
:102820000430BDF80620BDF8043013409BB2002BE5
:1028300001D0022328E0BDF806301B0A9BB2D9B2B2
:10284000BDF804301B0A9BB2DBB21A460820FFF722
:102850005DFE034683F00103DBB2002B01D00123B0
:1028600012E0BDF80630DBB2BDF80420D2B2194642
:102870000920FFF74BFE034683F00103DBB2002B78
:1028800001D0012300E00023184603B05DF804FBEB
:1028900000B583B003460A46ADF806301346ADF8DE
:1028A0000430BDF80620BDF8043013409BB2002B65
:1028B00001D0022328E0BDF806301B0A9BB2D9B232
:1028C000BDF804301B0A9BB2DBB21A460A20FFF7A0
:1028D0001DFE034683F00103DBB2002B01D0012370
:1028E00012E0BDF80630DBB2BDF80420D2B21946C2
:1028F0000B20FFF70BFE034683F00103DBB2002B36
:1029000001D0012300E00023184603B05DF804FB6A
:1029100000B583B003460A46ADF806301346ADF85D
:102920000430BDF80620BDF8043013409BB2002BE4
:1029300001D0022328E0BDF806301B0A9BB2D9B2B1
:10294000BDF804301B0A9BB2DBB21A460E20FFF71B
:10295000DDFD034683F00103DBB2002B01D0012330
:1029600012E0BDF80630DBB2BDF80420D2B2194641
:102970000F20FFF7CBFD034683F00103DBB2002BF2
:1029800001D0012300E00023184603B05DF804FBEA
:1029900000B583B00346ADF80630BDF806301B0A1B
:1029A0009BB2DBB219461020FFF746FD034683F0C9
:1029B0000103DBB2002B0CD1BDF80630DBB21946A7
:1029C0001120FFF739FD034683F00103DBB2002B32
:1029D00001D0012300E00023184603B05DF804FB9A
:1029E00000B583B003460A46ADF806301346ADF88D
:1029F0000430BDF80620BDF8043013409BB2002B14
:102A000001D0022328E0BDF806301B0A9BB2D9B2E0
:102A1000BDF804301B0A9BB2DBB21A461020FFF748
:102A200075FD034683F00103DBB2002B01D00123C7
:102A300012E0BDF80630DBB2BDF80420D2B2194670
:102A40001120FFF763FD034683F00103DBB2002B87
:102A500001D0012300E00023184603B05DF804FB19
:102A600000B585B003460A468DF8073013468DF849
:102A700006309DF90730DB435BB263F06F035AB257
:102A80009DF9063013405BB28DF80F309DF807209A
:102A90009DF80F301340DBB2002B01D002231BE066
:102AA0009DF807209DF806301343DBB25BB2002B84
:102AB00001DA022310E09DF80F209DF80730194637
:102AC0001E20FFF723FD034683F00103DBB2002B3A
:102AD00001D0012300E00023184605B05DF804FB97
:102AE00000B585B003460A468DF8073013468DF8C9
:102AF00006309DF90730DB435AB29DF9063013408A
:102B00005BB28DF80F309DF807209DF80F30134011
:102B1000DBB2002B01D0022310E09DF80F209DF8BE
:102B2000073019461F20FFF7F1FC034683F001032D
:102B3000DBB2002B01D0012300E00023184605B0D2
:102B40005DF804FB00B583B003460A46ADF80630D5
:102B50001346ADF80430BDF80620BDF8043013402C
:102B60009BB2002B01D0022328E0BDF806301B0ADF
:102B70009BB2D9B2BDF804301B0A9BB2DBB21A4635
:102B80002020FFF7C3FC034683F00103DBB2002BD8
:102B900001D0012312E0BDF80630DBB2BDF80420FD
:102BA000D2B219462120FFF7B1FC034683F001039E
:102BB000DBB2002B01D0012300E00023184603B054
:102BC0005DF804FB00B587B00346029101928DF8D1
:102BD0000F309DF80F301846FFF7C7FB03468DF8FE
:102BE0001730029BDB43019A13400493029A049B23
:102BF0001340002B0AD19DF81730FF2B06D0029A04
:102C0000019B134303F46003002B01D002233BE03C
:102C1000029B1B0CD9B2049B1B0CDAB29DF8173037
:102C20001846FFF773FC034683F00103DBB2002B69
:102C300001D0012328E09DF817300133D8B2029B60
:102C40001B0AD9B2049B1B0ADBB21A46FFF75EFCD3
:102C5000034683F00103DBB2002B01D0012313E014
:102C60009DF817300233DBB2029AD1B2049AD2B285
:102C70001846FFF74BFC034683F00103DBB2002B41
:102C800001D0012300E00023184607B05DF804FBE3
:102C900000B585B003468DF807300B46ADF804301B
:102CA0001346ADF802309DF807301846FFF799FB40
:102CB00003468DF80F30BDF80430DA43BDF802301A
:102CC00013400293BDF80420029B1340002B0FD148
:102CD0009DF80F30FF2B0BD0BDF80420BDF802305B
:102CE00013439BB21A464EF2E0031340002B01D06F
:102CF000022329E0BDF804301B0A9BB2D9B2029B23
:102D00001B0ADAB29DF80F301846FFF7FFFB0346A7
:102D100083F00103DBB2002B01D0012314E09DF806
:102D20000F300133DBB2BDF80420D1B2029AD2B227
:102D30001846FFF7EBFB034683F00103DBB2002BE1
:102D400001D0012300E00023184605B05DF804FB24
:102D500000B583B0124B1B68019301AB19460220EA
:102D6000FFF73EFC034683F00103DBB2002B01D0EA
:102D7000012311E001AB023319460220FFF730FCBA
:102D8000034683F00103DBB2002B01D0012303E0F3
:102D90000320FFF7DBFA0023184603B05DF804FBBD
:102DA00064C7040008B50C4B1B68002B10D00A4BFD
:102DB0001B685B68184603F013F8074B1B685B68D9
:102DC000184602F0A7FF044B00221A60002300E01F
:102DD0000123184608BD00BF5833002000B585B058
:102DE000124B1B689868114B1B68D968002300229E
:102DF000FDF79AF90390039B002B0CD00C4806F0CA
:102E000093FA0246039B00934A230A49022006F0E4
:102E1000CDFA039B06E0054B1B689B68184602F041
:102E2000C1FF0023184605B05DF804FB5C330020A9
:102E300068C70400B8C7040008B5074B1B689B6847
:102E4000184602F0CDFF044B1B689B68184602F041
:102E500061FF0023184608BD5C33002000B587B031
:102E6000034602918DF80F301E4B1B6898681D4B6E
:102E70001B6819780DF10F0201230093012303F061
:102E8000BBFA0590059B002B0CD0174806F04CFAB6
:102E90000246059B009370231449022006F086FA2F
:102EA000059B1BE00F4B1B6898680E4B1B6819783D
:102EB0000123029A03F0CBFA0590059B002B0CD05E
:102EC000094806F031FA0246059B0093762307492C
:102ED000022006F06BFA059B00E00023184607B0BD
:102EE0005DF804FB5C33002068C70400B8C7040029
:102EF00000B587B003460A468DF80F3013468DF8AB
:102F00000E309DF80F308DF810309DF80E308DF892
:102F10001130114B1B6898680F4B1B68197804AA75
:102F200000230093022303F067FA0590059B002B12
:102F30000CD00A4806F0F8F90246059B00938E2350
:102F40000749022006F032FA059B00E000231846EC
:102F500007B05DF804FB00BF5C33002068C70400C5
:102F6000B8C7040000B589B00346049103928DF8F8
:102F70001730002307931FE0079BDAB29DF8173044
:102F80001344D8B2049A079B13441946FFF766FF0F
:102F90000690069B002B0CD00C4806F0C5F90246A3
:102FA000069B0093A4230A49022006F0FFF9069B22
:102FB00007E0079B01330793079A039B9A42DBD3F1
:102FC0000023184609B05DF804FB00BF68C7040081
:102FD000B8C7040000B583B00190054A019B136097
:102FE000FFF7FCFE0346184603B05DF804FB00BF84
:102FF0005C33002000B583B0FFF71EFF0190044B47
:1030000000221A60019B184603B05DF804FB00BF64
:103010005C33002000B585B0134B1B68002B01D139
:1030200008231DE00DF10B0319460F20FFF716FFD3
:103030000390039B002B0CD00C4806F075F9024658
:10304000039B0093C5230A49022006F0AFF9039BB6
:1030500006E09DF80B30BC2B01D1002300E00523D6
:10306000184605B05DF804FB5C33002068C7040017
:10307000B8C7040000B587B00390434B1B68002B12
:1030800001D108237BE0039B002B01D10E2376E0C6
:10309000039B1B7803F0C003002B11D1039B5B78CB
:1030A00003F07803002B0BD1039B9B7803F07C0388
:1030B000002B05D1039BDB7803F03B03002B01D0F1
:1030C00007235CE0039B1B7819461020FFF710FFD5
:1030D0000590059B002B0CD02C4806F025F90246E4
:1030E000059B0093DB232A49022006F05FF9059B2C
:1030F00045E0039B5B7819462020FFF7F9FE059019
:10310000059B002B0CD0214806F00EF90246059BCA
:103110000093DE231E49022006F048F9059B2EE0AD
:10312000039B9B7819462120FFF7E2FE0590059B43
:10313000002B0CD0154806F0F7F80246059B0093CB
:10314000E1231349022006F031F9059B17E0039BA8
:10315000DB7819462220FFF7CBFE0590059B002B5C
:103160000CD00A4806F0E0F80246059B0093E423E1
:103170000749022006F01AF9059B00E000231846D3
:1031800007B05DF804FB00BF5C33002068C7040093
:10319000B8C7040000B587B00390134B1B68002B21
:1031A00001D108231BE0039B002B01D10E2316E065
:1031B00003992720FFF752FE0590059B002B0DD0A9
:1031C0000A4806F0B1F80246059B009340F2091345
:1031D0000749022006F0EAF8059B00E000231846A4
:1031E00007B05DF804FB00BF5C33002068C7040033
:1031F000B8C7040000B58BB00390414B1B68002B8F
:1032000001D1082377E0039B002B01D10E2372E04C
:1032100005AB102219463020FFF7A4FE0990099B48
:10322000002B0DD0374806F07FF80246099B00932B
:103230004FF48C733449022006F0B8F8099B5AE029
:103240009DF81420039B1A709DF81520039B5A705B
:103250009DF816309AB29DF819301B029BB203F408
:1032600040739BB213449AB2039B5A809DF8173067
:103270009AB29DF819309B08DBB21B029BB203F493
:1032800040739BB213449AB2039B9A809DF81A3004
:103290009AB29DF81B309BB21B029BB213449BB2A7
:1032A0001AB2039BDA809DF81E309AB29DF81F3047
:1032B0009BB21B029BB213449BB21AB2039B1A81AE
:1032C0009DF820309AB29DF821309BB21B029BB230
:1032D00013449BB21AB2039B5A819DF822309AB2D2
:1032E0009DF823309BB21B029BB213449BB21AB2CF
:1032F000039B9A81002318460BB05DF804FB00BFC6
:103300005C33002068C70400B8C7040000B587B06C
:103310000390264B1B68002B01D1082342E0039B3E
:10332000002B01D10E233DE00DF112031946282098
:10333000FFF794FD0590059B002B0DD01C4805F070
:10334000F3FF0246059B009340F231131949022016
:1033500006F02CF8059B25E00DF1130319462920F2
:10336000FFF77CFD0590059B002B0DD0104805F064
:10337000DBFF0246059B00934FF49A730D49022030
:1033800006F014F8059B0DE09DF813309BB21B026C
:103390009AB29DF812309BB213449BB21AB2039BAF
:1033A0001A800023184607B05DF804FB5C33002048
:1033B00068C70400B8C7040000B587B00390264B67
:1033C0001B68002B01D1082342E0039B002B01D195
:1033D0000E233DE00DF1120319462A20FFF73EFDB2
:1033E0000590059B002B0DD01C4805F09DFF024663
:1033F000059B00934FF4A3731949022005F0D6FFF3
:10340000059B25E00DF1130319462B20FFF726FD40
:103410000590059B002B0DD0104805F085FF024656
:10342000059B009340F249130D49022005F0BEFFB1
:10343000059B0DE09DF813309BB21B029AB29DF8DC
:1034400012309BB213449BB21AB2039B1A80002322
:10345000184607B05DF804FB5C33002068C7040021
:10346000B8C7040000B585B0244B1B68002B01D100
:1034700008233FE00DF10B0319462120FFF7EEFC76
:103480000390039B002B0DD01D4805F04DFF024615
:10349000039B009340F259131A49022005F086FF5E
:1034A000039B27E09DF80B3003F00103002B01D0B4
:1034B00000231FE09DF80B3043F00103DBB28DF8D1
:1034C0000B309DF80B3019462120FFF711FD0390BA
:1034D000039B002B0DD00A4805F026FF0246039BF4
:1034E000009340F263130749022005F05FFF039B3E
:1034F00000E00023184605B05DF804FB5C330020B3
:1035000068C70400B8C7040082B001904FF0A04320
:10351000184602B0704700B585B0019001AB18465F
:10352000FFF7F2FF0390039800F00AF80246019BB0
:1035300022FA03F303F00103184605B05DF804FB1B
:1035400082B00190019BD3F81035184602B0704745
:1035500000B583B001900B46ADF80230034B1B69F8
:103560000020984700BF03B05DF804FB60330020E3
:1035700000B585B001900B468DF80330104B5B68A9
:10358000019A9A4217D10E4B5B681846FFF7C3FFAA
:103590000346002B0FD10B4A0021002003F064FBEF
:1035A0000390039B0293029B002B04D0064A5121F7
:1035B000029803F059FA00BF05B05DF804FB00BFA4
:1035C00060330020513502000CC8040000B587B0FC
:1035D000039001F0A3FE034683F00103DBB2002B4E
:1035E00012D001F053FE0590059B002B0CD01C4817
:1035F00005F09AFE0246059B00935F2319490220BD
:1036000005F0D4FE059B27E000238DF8123000233F
:103610008DF8133000238DF8113003238DF810300E
:1036200004AB114A1946039801F084FE0590059BEE
:10363000002B0CD00A4805F077FE0246059B00934C
:1036400068230849022005F0B1FE059B04E0012132
:10365000039801F0C9FE0023184607B05DF804FB8B
:103660000CC804005CC804007135020000B589B0C4
:103670000390039B002B01D10E23D8E0039B9B6892
:10368000002B01D10E23D2E0039BDB68002B01D17C
:103690000E23CCE0039B1B69002B01D10E23C6E057
:1036A000039B1B69644A1361039B1A78624B1A706F
:1036B000039B5B68604A5360039B9B685E4A936010
:1036C000039BDB685C4AD3605B4B00221A755A4847
:1036D000FFF780FC0790079B002B0CD0574805F0A4
:1036E00023FE0246079B00938C235549022005F0D8
:1036F0005DFE079B9BE0FFF78DFC0790079B002B6F
:103700000CD04E4805F010FE0246079B00938F2315
:103710004B49022005F04AFE079B88E04948FFF725
:1037200069FD0790079B002B0CD0444805F0FCFD79
:103730000246079B009392234149022005F036FE82
:10374000079B74E04048FFF795FC0790079B002B10
:103750000CD03A4805F0E8FD0246079B00939C23F5
:103760003749022005F022FE079B60E00DF11B03A4
:103770001846FFF70FFD0790079B002B0CD02F4832
:1037800005F0D2FD0246079B0093A1232C4902209D
:1037900005F00CFE079B4AE09DF81B3003F0030385
:1037A000002B2AD006AB1846FFF7B0FD0790079B09
:1037B000002B0CD0214805F0B7FD0246079B009373
:1037C000A9231F49022005F0F1FD079B2FE00DF111
:1037D00016031846FFF7F0FD0790079B002B0CD04F
:1037E000164805F0A1FD0246079B0093AB23144940
:1037F000022005F0DBFD079B19E09DF81B3003F06C
:103800000303002BB2D1FFF7F5FB0790079B002BBA
:103810000CD00A4805F088FD0246079B0093B123AF
:103820000749022005F0C2FD079B00E0002318466F
:1038300009B05DF804FB00BF603300200CC8040031
:103840005CC8040076330020B0C8040000B585B021
:103850002F4B1B7D002B01D0002354E02C4B012269
:103860001A752B48FFF7B6FB0390039B002B0CD077
:10387000284805F059FD0246039B0093CA232649B8
:10388000022005F093FD039B3DE02448FFF7F2FB87
:103890000390039B002B0CD01E4805F045FD02460B
:1038A000039B0093CD231C49022005F07FFD039B61
:1038B00029E0FFF79FFB0390039B002B0CD01548DA
:1038C00005F032FD0246039B0093D02312490220EB
:1038D00005F06CFD039B16E00D4B5B681846FFF787
:1038E00075FE0390039B002B0CD00A4805F01CFDCD
:1038F0000246039B0093D3230749022005F056FD9F
:10390000039B00E00023184605B05DF804FB00BFF0
:10391000603300200CC804005CC80400B4C8040074
:1039200010B58AB04FF0000308934FF000030793DF
:103930004F48FFF74FFB0690069B002B0ED04D48DB
:1039400005F0F2FC0246069B009340F215134A492B
:10395000022005F02BFD069B1BB285E00DF10E0346
:103960001846FFF7D3FC0690069B0593059B002B9A
:1039700005D0404A4FF48C71059803F075F8FFF7B5
:1039800039FB0690069B0493049B002B05D0394A13
:1039900040F21B11049803F067F8354BDB7D1A46A3
:1039A000334B9B7DD31A07EE903AB8EEE77AF0EEF0
:1039B000006AC7EE267ACDED087ABDF90E301A46B8
:1039C0002B4BB3F91C30D31A07EE903AB8EEE77AD6
:1039D000DDED087A67EE276A254BB3F91E301A46EB
:1039E000234BB3F91C30D31A07EE903AB8EEE77ABE
:1039F000C6EE877ACDED077A1D4B9B7D184627F0E2
:103A000079FC4FF000024FF0804327F07BFB034628
:103A10000C461846214627F09BFC034608939DED73
:103A2000087ADDED077A77EE277AFDEEE77A17EE72
:103A3000903AADF82630114BB3F90030BDF926208D
:103A40009A4204DB0D4B1B88ADF826300AE00C4B84
:103A5000B3F90030BDF926209A4203DC084B1B88DD
:103A6000ADF82630BDF9263018460AB010BD00BFAB
:103A7000603300200CC804005CC80400B8C804000F
:103A8000BAC8040010B58AB04FF0000309934FF094
:103A9000000308934FF0000307934548FFF79AFA95
:103AA0000690069B002B11D0424805F03DFC0246D3
:103AB000069B00934FF49E733F49022005F076FC6D
:103AC000069B07EE903AF8EE677A6CE00DF10E0374
:103AD0001846FFF771FC0690069B0593059B002B8B
:103AE00005D0344A40F23F11059802F0BDFFFFF7C0
:103AF00081FA0690069B0493049B002B05D02D4A67
:103B00004FF4A171049802F0AFFF294B5B8B1BB2FD
:103B10001A46274B1B8B1BB2D31A07EE903AB8EE0E
:103B2000E77AF2EE006AC7EE267ACDED097ABDF9A2
:103B30000E301A461E4BB3F92030D31A07EE903AD6
:103B4000B8EEE77ADDED097A67EE276A184BB3F92C
:103B500022301A46164BB3F92030D31A07EE903AAA
:103B6000B8EEE77AC6EE877ACDED087A104B1B8B5C
:103B70001BB2184627F0BEFB4FF000020F4B27F098
:103B8000C1FA03460C461846214627F0E1FB0346DE
:103B900009939DED097ADDED087A77EE277ACDED70
:103BA000077ADDED077AB0EE670A0AB010BD00BFF4
:103BB000603300200CC804005CC8040000002040F2
:103BC00000B585B02048FFF705FA0390039B002B52
:103BD0000DD01E4805F0A8FB0246039B009340F25F
:103BE00055131B49022005F0E1FB039B28E0FFF77A
:103BF00039FC0390039B002B0DD0144805F094FB77
:103C00000246039B00934FF4AC731149022005F068
:103C1000CDFB039B14E0FFF7EDF90390039B002B12
:103C20000DD00A4805F080FB0246039B009340F24A
:103C30005B130749022005F0B9FB039B00E000235A
:103C4000184605B05DF804FB603300200CC8040082
:103C50005CC8040084B00190244B0393019B002BAB
:103C600040D0234B1A680399019B00BF00BF00BFDF
:103C700000BF00BF00BF00BF00BF8A422FD000BFFF
:103C800000BF00BF00BF00BF00BF00BF00BF00BF3C
:103C900000BF00BF00BF00BF00BF00BF00BF00BF2C
:103CA00000BF00BF00BF00BF00BF00BF00BF00BF1C
:103CB00000BF00BF00BF00BF00BF00BF00BF00BF0C
:103CC00000BF00BF00BF00BF00BF00BF00BF00BFFC
:103CD00000BF00BF00BF00BF00BF00BF00BF013B6F
:103CE000C3D1019300BF04B0704700BF0024F400AB
:103CF000F02D002000B583B00190019B4FF47A7243
:103D000002FB03F31846FFF7A5FF00BF03B05DF801
:103D100004FB000000B585B00190084611461A4624
:103D200003468DF803300B468DF8023013468DF8AC
:103D30000130019B0F2B06D9019AB149012005F0F2
:103D40000AFB0223E2E1AF4B1B681846FEF77CFC3E
:103D50000390039B002B09D0039B6222AA490120F8
:103D600005F00DFBFFF71EF8039BCFE19DF8013036
:103D7000002B2DD10122019B02FA03F39BB21946BD
:103D80000020FEF705FD0390039B002B09D0039B49
:103D900067229D49012005F0F2FAFFF703F8039B23
:103DA000B4E10122019B02FA03F39BB21946002001
:103DB000FEF72EFD0390039B002B7CD0039B6A2211
:103DC0009149012005F0DBFAFEF7ECFF039B9DE132
:103DD0009DF80130012B2DD10122019B02FA03F342
:103DE0009BB219460020FEF7D3FC0390039B002BE7
:103DF00009D0039B6F228449012005F0C0FAFEF729
:103E0000D1FF039B82E10122019B02FA03F39BB2E3
:103E100000211846FEF7FCFC0390039B002B4AD0C0
:103E2000039B72227849012005F0A9FAFEF7BAFF38
:103E3000039B6BE19DF80130022B2DD10122019BE8
:103E400002FA03F39BB219460020FEF7E1FC03904F
:103E5000039B002B09D0039B77226B49012005F0BF
:103E60008EFAFEF79FFF039B50E10122019B02FAAD
:103E700003F39BB200211846FEF78AFC0390039BD4
:103E8000002B18D0039B7A225F49012005F077FAB6
:103E9000FEF788FF039B39E101230393039B002B6B
:103EA00009D0039B7F225849012005F068FAFEF7EC
:103EB00079FF039B2AE19DF80230002B16D10122E5
:103EC000019B02FA03F39BB219460020FEF7E0FBC8
:103ED0000390039B002B33D0039B85224A4901208A
:103EE00005F04DFAFEF75EFF039B0FE19DF80230EF
:103EF000012B16D10122019B02FA03F39BB2002190
:103F00001846FEF7C5FB0390039B002B18D0039BBC
:103F10008A223D49012005F032FAFEF743FF039B58
:103F2000F4E001230393039B002B09D0039B8F2212
:103F30003549012005F023FAFEF734FF039BE5E045
:103F40009DF81830002B16D10122019B02FA03F3D1
:103F50009BB219460020FEF79BFC0390039B002BAD
:103F600033D0039B95222849012005F008FAFEF77B
:103F700019FF039BCAE09DF81830012B16D10122CE
:103F8000019B02FA03F39BB200211846FEF780FC66
:103F90000390039B002B18D0039B9A221A490120FF
:103FA00005F0EDF9FEF7FEFE039BAFE0012303935E
:103FB000039B002B09D0039B9F221349012005F08E
:103FC000DEF9FEF7EFFE039BA0E09DF81C30002B0E
:103FD0001CD10122019B02FA03F39BB21946002077
:103FE000FEF796FB0390039B002B39D0039BA52281
:103FF0000549012005F0C3F9FEF7D4FE039B85E0D7
:10400000BCC804008433002004C904009DF81C309F
:10401000012B16D10122019B02FA03F39BB200216E
:104020001846FEF775FB0390039B002B18D0039BEB
:10403000AA223849012005F0A2F9FEF7B3FE039B3E
:1040400064E001230393039B002B09D0039BAF2261
:104050003049012005F093F9FEF7A4FE039B55E0DB
:104060009DF80330002B16D10122019B02FA03F3C5
:104070009BB219460020FEF74BFC0390039B002BDC
:1040800033D0039BB5222349012005F078F9FEF7D0
:1040900089FE039B3AE09DF80330012B16D10122E3
:1040A000019B02FA03F39BB200211846FEF730FC95
:1040B0000390039B002B18D0039BBA2215490120C3
:1040C00005F05DF9FEF76EFE039B1FE001230393ED
:1040D000039B002B09D0039BBF220E49012005F052
:1040E0004EF9FEF75FFE039B10E0FEF75BFE0390C8
:1040F000039B002B09D0039BC3220649012005F036
:104100003EF9FEF74FFE039B00E00023184605B082
:104110005DF804FB04C9040000B583B01D4B1B68A7
:104120001846FEF791FA0190019B002B09D0019BE4
:10413000CE221949012005F022F9FEF733FE019B3A
:1041400023E0FEF705FE0190019B002B09D0019BA7
:10415000D1221149012005F012F9FEF723FE019B3F
:1041600013E0FEF71FFE0190019B002B09D0019B7D
:10417000D4220949012005F002F9FEF713FE019B44
:1041800003E00520FFF7B6FD0023184603B05DF8F5
:1041900004FB00BF8433002004C9040000B585B0CF
:1041A0000190019BB3F5803F06D3019A204901207D
:1041B00005F0D1F8022336E01E4B1B681846FEF7C7
:1041C00043FA0390039B002B09D0039BE3221A4977
:1041D000012005F0D4F8FEF7E5FD039B23E0019BE9
:1041E0009BB21846FEF7D4FB0390039B002B09D02B
:1041F000039BE6221049012005F0C1F8FEF7D2FD2D
:10420000039B10E0FEF7CEFD0390039B002B09D02B
:10421000039BE9220849012005F0B1F8FEF7C2FD31
:10422000039B00E00023184605B05DF804FB00BFC7
:1042300040C904008433002004C9040000B585B0DF
:1042400001900B468DF80330019B002B01D10E230A
:1042500012E0019B1B680A4A1360FEF7EDF99DF816
:104260000330002B07D0FFF757FF0390039B002B71
:1042700001D0039B00E00023184605B05DF804FB65
:104280008433002082B00346ADF806300F4B1B7814
:1042900083F00103DBB2002B01D0012312E0BDF853
:1042A0000630002B01D100230CE0094B1A88BDF821
:1042B000063013409BB2BDF806209A4201D101237B
:1042C00000E00023184602B0704700BF8C33002086
:1042D0008E33002082B001900091019B07EE903A4E
:1042E000F8EE677A9FED147A27EE877A009B07EE47
:1042F000903AF8EE677AB4EEE77AF1EE10FA01D56B
:10430000012315E0019B07EE903AF8EE677A9FEDE6
:104310000B7A27EE877A009B07EE903AF8EE677AE1
:10432000B4EEE77AF1EE10FA01DD012300E000239C
:10433000184602B0704700BF9A99993FCDCC4C3FC8
:1043400010B590B00190009100230F93019B1B6862
:1043500007EE903AF8EE676AC64BD3ED007A9FED10
:10436000C66A86EE277AC6EE877A9FEDC47AC7EED4
:10437000876A16EE900A26F0D1FF03460C4644ECFD
:10438000103B27F00FF854EC103B1846214626F05E
:104390009FFF03460E93019B1B6807EE903AF8EED1
:1043A000676AB44BD3ED007A9FEDB56A86EE277A43
:1043B000C6EE877A9FEDB17AC7EE876A16EE900A4D
:1043C00026F0ACFF03460C4644EC103B26F0EAFF17
:1043D00054EC103B1846214626F07AFF03460D9315
:1043E0000E9B0F2B01D90F230E930D9B1F2B01D971
:1043F0001F230D930D9B0F2B01D810230D930E9BA4
:10440000A04A02FB03F307EE903AB8EE677A994BA5
:10441000D3ED007AC7EE276A16EE900A26F07EFFEB
:1044200003460C4644EC103B26F0BCFF54EC103B1A
:104430001846214626F04CFF03460A930D9B924AEC
:1044400002FB03F307EE903AB8EE677A894BD3ED9F
:10445000007AC7EE276A16EE900A26F05FFF034641
:104460000C4644EC103B26F09DFF54EC103B1846E4
:10447000214626F02DFF03460993019B1B681A462F
:104480000A9BD31A184627F0C8F80446019B1B68FC
:104490001A46099BD31A184627F0BFF803469C42D8
:1044A00014DC0E9BDAB2009B1A70019B1B68089308
:1044B000019B0A9A1A60019B1B6819460898FFF72E
:1044C00009FF02460F9B13440F9313E00D9BDAB2D2
:1044D000009B1A70019B1B680793019B099A1A6045
:1044E000019B1B6819460798FFF7F4FE02460F9BD5
:1044F00013440F93019B9B6807EE903AF8EE676AAE
:104500005C4BD3ED007A9FED5C6A86EE277AC6EEAF
:10451000877A9FED5A7AC7EE876A16EE900A26F0E0
:10452000FDFE03460C4644EC103B26F03BFF54ECEA
:10453000103B1846214626F0CBFE03460C93019B08
:104540009B6807EE903AF8EE676A4A4BD3ED007A23
:104550009FED4B6A86EE277AC6EE877A9FED477A03
:10456000C7EE876A16EE900A26F0D8FE03460C4680
:1045700044EC103B26F016FF54EC103B1846214645
:1045800026F0A6FE03460B930C9B0F2B01D90F239D
:104590000C930B9B1F2B01D91F230B930B9B0F2BF2
:1045A00001D810230B930C9B364A02FB03F307EE52
:1045B000903AB8EE677A2F4BD3ED007AC7EE276AB0
:1045C00016EE900A26F0AAFE03460C4644EC103B79
:1045D00026F0E8FE54EC103B1846214626F078FE03
:1045E000034606930B9B284A02FB03F307EE903A1F
:1045F000B8EE677A1F4BD3ED007AC7EE276A16EE46
:10460000900A26F08BFE03460C4644EC103B26F045
:10461000C9FE54EC103B1846214626F059FE0346CD
:104620000593019B9B681A46069BD31A184626F0F1
:10463000F4FF0446019B9B681A46059BD31A184653
:1046400026F0EBFF03469C4220DC0C9BDAB2009B79
:104650009A70019B9B680493019B069A9A60019B48
:104660009B6819460498FFF735FE02460F9B1344DA
:104670000F931FE08833002000007F4600007A443B
:104680000000FF470006F9000030C8070B9BDAB2B4
:10469000009B9A70019B9B680393019B059A9A600B
:1046A000019B9B6819460398FFF714FE02460F9B77
:1046B00013440F930F9B184610B010BD10B590B067
:1046C0000190009100230F93019B1B6907EE903A24
:1046D000F8EE676A009B5B781A46009BDB789B00CC
:1046E000D31A07EE903AB8EEE77A664B93ED006A7C
:1046F000DFED655AC5EE867A67EE277A86EEA77AF1
:10470000DFED626AC7EE267AFCEEE77A17EE903AA2
:104710000E93019B1B6907EE903AF8EE676A009BC7
:104720005B781A46009BDB789B00D31A1B0107EECF
:10473000903AB8EEE77A534B93ED006ADFED525AA8
:10474000C5EE867A67EE277A86EEA77ADFED4F6AA6
:10475000C7EE267AFCEEE77A17EE903A0D930E9BA1
:104760000F2B01D90F230E930D9B1F2B01D91F2354
:104770000D930D9B0F2B01D810230D93009B5B789D
:104780001A46009BDB789B00D31A1A460E9B03FB4C
:1047900002F213461B029B1A07EE903AF8EE676A84
:1047A000384B93ED007AC6EE877A9FED387A67EE44
:1047B000877A17EE900A26F0B1FD03460C4644ECCA
:1047C000103B26F0EFFD54EC103B1846214626F036
:1047D0007FFD03460A93009B5B781A46009BDB78BB
:1047E0009B00D31A1A460D9B03FB02F213461B02D1
:1047F0009B1A1B0107EE903AF8EE676A214B93ED86
:10480000007AC6EE877A9FED217A67EE877A17EEF7
:10481000900A26F083FD03460C4644EC103B26F03C
:10482000C1FD54EC103B1846214626F051FD0346CD
:104830000993019B1B691A460A9BD31A184626F056
:10484000ECFE0446019B1B691A46099BD31A1846C5
:1048500026F0E3FE03469C421ADC0E9BDAB2009B74
:104860001A71019B1B690893019B0A9A1A61019BAB
:104870001B6919460898FFF72DFD02460F9B13444C
:104880000F9319E08833002000007F4300007A4432
:104890000D9BDAB2009B1A71019B1B690793019B68
:1048A000099A1A61019B1B6919460798FFF712FDC7
:1048B00002460F9B13440F93019B5B6907EE903AEE
:1048C000F8EE676A009B5B781A46009BDB789B00DA
:1048D000D31A07EE903AB8EEE77A724B93ED006A7E
:1048E000DFED715AC5EE867A67EE277A86EEA77AF3
:1048F000DFED6E6AC7EE267AFCEEE77A17EE903AA5
:104900000C93019B5B6907EE903AF8EE676A009B97
:104910005B781A46009BDB789B00D31A1B0107EEDD
:10492000903AB8EEE77A5F4B93ED006ADFED5E5A9E
:10493000C5EE867A67EE277A86EEA77ADFED5B6AA8
:10494000C7EE267AFCEEE77A17EE903A0B930C9BB3
:104950000F2B01D90F230C930B9B1F2B01D91F2366
:104960000B930B9B0F2B01D810230B93009B5B78B1
:104970001A46009BDB789B00D31A1A460C9B03FB5C
:1049800002F213461B029B1A07EE903AF8EE676A92
:10499000444B93ED007AC6EE877A9FED447A67EE3A
:1049A000877A17EE900A26F0B9FC03460C4644ECD1
:1049B000103B26F0F7FC54EC103B1846214626F03D
:1049C00087FC03460693009B5B781A46009BDB78C6
:1049D0009B00D31A1A460B9B03FB02F213461B02E1
:1049E0009B1A1B0107EE903AF8EE676A2D4B93ED88
:1049F000007AC6EE877A9FED2D7A67EE877A17EEFA
:104A0000900A26F08BFC03460C4644EC103B26F043
:104A1000C9FC54EC103B1846214626F059FC0346CD
:104A20000593019B5B691A46069BD31A184626F02C
:104A3000F4FD0446019B5B691A46059BD31A184690
:104A400026F0EBFD03469C4214DC0C9BDAB2009B83
:104A50005A71019B5B690493019B069A5A61019B01
:104A60005B6919460498FFF735FC02460F9B134417
:104A70000F9313E00B9BDAB2009B5A71019B5B69A9
:104A80000393019B059A5A61019B5B691946039840
:104A9000FFF720FC02460F9B13440F930F9B184611
:104AA00010B010BD8833002000007F4300007A441E
:104AB00000B587B0034602910192ADF80E30002395
:104AC0000593BDF80E30002B01D1022368E0364B70
